{"abi":[{"type":"constructor","inputs":[{"name":"_delegationManager","type":"address","internalType":"contract IDelegationManager"},{"name":"_strategyManager","type":"address","internalType":"contract IStrategyManager"},{"name":"_maxPaymentDuration","type":"uint32","internalType":"uint32"},{"name":"_MAX_RETROACTIVE_LENGTH","type":"uint32","internalType":"uint32"},{"name":"_MAX_FUTURE_LENGTH","type":"uint32","internalType":"uint32"},{"name":"_GENESIS_PAYMENT_TIMESTAMP","type":"uint32","internalType":"uint32"}],"stateMutability":"nonpayable"},{"type":"function","name":"GENESIS_PAYMENT_TIMESTAMP","inputs":[],"outputs":[{"name":"","type":"uint32","internalType":"uint32"}],"stateMutability":"view"},{"type":"function","name":"MAX_FUTURE_LENGTH","inputs":[],"outputs":[{"name":"","type":"uint32","internalType":"uint32"}],"stateMutability":"view"},{"type":"function","name":"MAX_PAYMENT_DURATION","inputs":[],"outputs":[{"name":"","type":"uint32","internalType":"uint32"}],"stateMutability":"view"},{"type":"function","name":"MAX_RETROACTIVE_LENGTH","inputs":[],"outputs":[{"name":"","type":"uint32","internalType":"uint32"}],"stateMutability":"view"},{"type":"function","name":"activationDelay","inputs":[],"outputs":[{"name":"","type":"uint32","internalType":"uint32"}],"stateMutability":"view"},{"type":"function","name":"beaconChainETHStrategy","inputs":[],"outputs":[{"name":"","type":"address","internalType":"contract IStrategy"}],"stateMutability":"view"},{"type":"function","name":"calculateEarnerLeafHash","inputs":[{"name":"leaf","type":"tuple","internalType":"struct IPaymentCoordinator.EarnerTreeMerkleLeaf","components":[{"name":"earner","type":"address","internalType":"address"},{"name":"earnerTokenRoot","type":"bytes32","internalType":"bytes32"}]}],"outputs":[{"name":"","type":"bytes32","internalType":"bytes32"}],"stateMutability":"pure"},{"type":"function","name":"calculateTokenLeafHash","inputs":[{"name":"leaf","type":"tuple","internalType":"struct IPaymentCoordinator.TokenTreeMerkleLeaf","components":[{"name":"token","type":"address","internalType":"contract IERC20"},{"name":"cumulativeEarnings","type":"uint256","internalType":"uint256"}]}],"outputs":[{"name":"","type":"bytes32","internalType":"bytes32"}],"stateMutability":"pure"},{"type":"function","name":"calculationIntervalSeconds","inputs":[],"outputs":[{"name":"","type":"uint32","internalType":"uint32"}],"stateMutability":"view"},{"type":"function","name":"checkClaim","inputs":[{"name":"claim","type":"tuple","internalType":"struct IPaymentCoordinator.PaymentMerkleClaim","components":[{"name":"rootIndex","type":"uint32","internalType":"uint32"},{"name":"earnerIndex","type":"uint32","internalType":"uint32"},{"name":"earnerTreeProof","type":"bytes","internalType":"bytes"},{"name":"earnerLeaf","type":"tuple","internalType":"struct IPaymentCoordinator.EarnerTreeMerkleLeaf","components":[{"name":"earner","type":"address","internalType":"address"},{"name":"earnerTokenRoot","type":"bytes32","internalType":"bytes32"}]},{"name":"tokenIndices","type":"uint32[]","internalType":"uint32[]"},{"name":"tokenTreeProofs","type":"bytes[]","internalType":"bytes[]"},{"name":"tokenLeaves","type":"tuple[]","internalType":"struct IPaymentCoordinator.TokenTreeMerkleLeaf[]","components":[{"name":"token","type":"address","internalType":"contract IERC20"},{"name":"cumulativeEarnings","type":"uint256","internalType":"uint256"}]}]}],"outputs":[{"name":"","type":"bool","internalType":"bool"}],"stateMutability":"view"},{"type":"function","name":"claimerFor","inputs":[{"name":"","type":"address","internalType":"address"}],"outputs":[{"name":"","type":"address","internalType":"address"}],"stateMutability":"view"},{"type":"function","name":"cumulativeClaimed","inputs":[{"name":"","type":"address","internalType":"address"},{"name":"","type":"address","internalType":"contract IERC20"}],"outputs":[{"name":"","type":"uint256","internalType":"uint256"}],"stateMutability":"view"},{"type":"function","name":"currPaymentCalculationEndTimestamp","inputs":[],"outputs":[{"name":"","type":"uint32","internalType":"uint32"}],"stateMutability":"view"},{"type":"function","name":"delegationManager","inputs":[],"outputs":[{"name":"","type":"address","internalType":"contract IDelegationManager"}],"stateMutability":"view"},{"type":"function","name":"distributionRoots","inputs":[{"name":"","type":"uint256","internalType":"uint256"}],"outputs":[{"name":"root","type":"bytes32","internalType":"bytes32"},{"name":"paymentCalculationEndTimestamp","type":"uint32","internalType":"uint32"},{"name":"activatedAt","type":"uint32","internalType":"uint32"}],"stateMutability":"view"},{"type":"function","name":"domainSeparator","inputs":[],"outputs":[{"name":"","type":"bytes32","internalType":"bytes32"}],"stateMutability":"view"},{"type":"function","name":"getDistributionRootsLength","inputs":[],"outputs":[{"name":"","type":"uint256","internalType":"uint256"}],"stateMutability":"view"},{"type":"function","name":"getRootIndexFromHash","inputs":[{"name":"rootHash","type":"bytes32","internalType":"bytes32"}],"outputs":[{"name":"","type":"uint32","internalType":"uint32"}],"stateMutability":"view"},{"type":"function","name":"globalOperatorCommissionBips","inputs":[],"outputs":[{"name":"","type":"uint16","internalType":"uint16"}],"stateMutability":"view"},{"type":"function","name":"initialize","inputs":[{"name":"initialOwner","type":"address","internalType":"address"},{"name":"_pauserRegistry","type":"address","internalType":"contract IPauserRegistry"},{"name":"initialPausedStatus","type":"uint256","internalType":"uint256"},{"name":"_paymentUpdater","type":"address","internalType":"address"},{"name":"_activationDelay","type":"uint32","internalType":"uint32"},{"name":"_calculationIntervalSeconds","type":"uint32","internalType":"uint32"},{"name":"_globalCommissionBips","type":"uint16","internalType":"uint16"}],"outputs":[],"stateMutability":"nonpayable"},{"type":"function","name":"isPayAllForRangeSubmitter","inputs":[{"name":"","type":"address","internalType":"address"}],"outputs":[{"name":"","type":"bool","internalType":"bool"}],"stateMutability":"view"},{"type":"function","name":"isRangePaymentForAllHash","inputs":[{"name":"","type":"address","internalType":"address"},{"name":"","type":"bytes32","internalType":"bytes32"}],"outputs":[{"name":"","type":"bool","internalType":"bool"}],"stateMutability":"view"},{"type":"function","name":"isRangePaymentHash","inputs":[{"name":"","type":"address","internalType":"address"},{"name":"","type":"bytes32","internalType":"bytes32"}],"outputs":[{"name":"","type":"bool","internalType":"bool"}],"stateMutability":"view"},{"type":"function","name":"owner","inputs":[],"outputs":[{"name":"","type":"address","internalType":"address"}],"stateMutability":"view"},{"type":"function","name":"pause","inputs":[{"name":"newPausedStatus","type":"uint256","internalType":"uint256"}],"outputs":[],"stateMutability":"nonpayable"},{"type":"function","name":"pauseAll","inputs":[],"outputs":[],"stateMutability":"nonpayable"},{"type":"function","name":"paused","inputs":[{"name":"index","type":"uint8","internalType":"uint8"}],"outputs":[{"name":"","type":"bool","internalType":"bool"}],"stateMutability":"view"},{"type":"function","name":"paused","inputs":[],"outputs":[{"name":"","type":"uint256","internalType":"uint256"}],"stateMutability":"view"},{"type":"function","name":"pauserRegistry","inputs":[],"outputs":[{"name":"","type":"address","internalType":"contract IPauserRegistry"}],"stateMutability":"view"},{"type":"function","name":"payAllForRange","inputs":[{"name":"rangePayments","type":"tuple[]","internalType":"struct IPaymentCoordinator.RangePayment[]","components":[{"name":"strategiesAndMultipliers","type":"tuple[]","internalType":"struct IPaymentCoordinator.StrategyAndMultiplier[]","components":[{"name":"strategy","type":"address","internalType":"contract IStrategy"},{"name":"multiplier","type":"uint96","internalType":"uint96"}]},{"name":"token","type":"address","internalType":"contract IERC20"},{"name":"amount","type":"uint256","internalType":"uint256"},{"name":"startTimestamp","type":"uint32","internalType":"uint32"},{"name":"duration","type":"uint32","internalType":"uint32"}]}],"outputs":[],"stateMutability":"nonpayable"},{"type":"function","name":"payForRange","inputs":[{"name":"rangePayments","type":"tuple[]","internalType":"struct IPaymentCoordinator.RangePayment[]","components":[{"name":"strategiesAndMultipliers","type":"tuple[]","internalType":"struct IPaymentCoordinator.StrategyAndMultiplier[]","components":[{"name":"strategy","type":"address","internalType":"contract IStrategy"},{"name":"multiplier","type":"uint96","internalType":"uint96"}]},{"name":"token","type":"address","internalType":"contract IERC20"},{"name":"amount","type":"uint256","internalType":"uint256"},{"name":"startTimestamp","type":"uint32","internalType":"uint32"},{"name":"duration","type":"uint32","internalType":"uint32"}]}],"outputs":[],"stateMutability":"nonpayable"},{"type":"function","name":"paymentNonce","inputs":[{"name":"","type":"address","internalType":"address"}],"outputs":[{"name":"","type":"uint256","internalType":"uint256"}],"stateMutability":"view"},{"type":"function","name":"paymentUpdater","inputs":[],"outputs":[{"name":"","type":"address","internalType":"address"}],"stateMutability":"view"},{"type":"function","name":"processClaim","inputs":[{"name":"claim","type":"tuple","internalType":"struct IPaymentCoordinator.PaymentMerkleClaim","components":[{"name":"rootIndex","type":"uint32","internalType":"uint32"},{"name":"earnerIndex","type":"uint32","internalType":"uint32"},{"name":"earnerTreeProof","type":"bytes","internalType":"bytes"},{"name":"earnerLeaf","type":"tuple","internalType":"struct IPaymentCoordinator.EarnerTreeMerkleLeaf","components":[{"name":"earner","type":"address","internalType":"address"},{"name":"earnerTokenRoot","type":"bytes32","internalType":"bytes32"}]},{"name":"tokenIndices","type":"uint32[]","internalType":"uint32[]"},{"name":"tokenTreeProofs","type":"bytes[]","internalType":"bytes[]"},{"name":"tokenLeaves","type":"tuple[]","internalType":"struct IPaymentCoordinator.TokenTreeMerkleLeaf[]","components":[{"name":"token","type":"address","internalType":"contract IERC20"},{"name":"cumulativeEarnings","type":"uint256","internalType":"uint256"}]}]}],"outputs":[],"stateMutability":"nonpayable"},{"type":"function","name":"renounceOwnership","inputs":[],"outputs":[],"stateMutability":"nonpayable"},{"type":"function","name":"setActivationDelay","inputs":[{"name":"_activationDelay","type":"uint32","internalType":"uint32"}],"outputs":[],"stateMutability":"nonpayable"},{"type":"function","name":"setCalculationIntervalSeconds","inputs":[{"name":"_calculationIntervalSeconds","type":"uint32","internalType":"uint32"}],"outputs":[],"stateMutability":"nonpayable"},{"type":"function","name":"setClaimerFor","inputs":[{"name":"claimer","type":"address","internalType":"address"}],"outputs":[],"stateMutability":"nonpayable"},{"type":"function","name":"setGlobalOperatorCommission","inputs":[{"name":"_globalCommissionBips","type":"uint16","internalType":"uint16"}],"outputs":[],"stateMutability":"nonpayable"},{"type":"function","name":"setPauserRegistry","inputs":[{"name":"newPauserRegistry","type":"address","internalType":"contract IPauserRegistry"}],"outputs":[],"stateMutability":"nonpayable"},{"type":"function","name":"setPayAllForRangeSubmitter","inputs":[{"name":"_submitter","type":"address","internalType":"address"},{"name":"_newValue","type":"bool","internalType":"bool"}],"outputs":[],"stateMutability":"nonpayable"},{"type":"function","name":"setPaymentUpdater","inputs":[{"name":"_paymentUpdater","type":"address","internalType":"address"}],"outputs":[],"stateMutability":"nonpayable"},{"type":"function","name":"strategyManager","inputs":[],"outputs":[{"name":"","type":"address","internalType":"contract IStrategyManager"}],"stateMutability":"view"},{"type":"function","name":"submitRoot","inputs":[{"name":"root","type":"bytes32","internalType":"bytes32"},{"name":"paymentCalculationEndTimestamp","type":"uint32","internalType":"uint32"}],"outputs":[],"stateMutability":"nonpayable"},{"type":"function","name":"transferOwnership","inputs":[{"name":"newOwner","type":"address","internalType":"address"}],"outputs":[],"stateMutability":"nonpayable"},{"type":"function","name":"unpause","inputs":[{"name":"newPausedStatus","type":"uint256","internalType":"uint256"}],"outputs":[],"stateMutability":"nonpayable"},{"type":"event","name":"ActivationDelaySet","inputs":[{"name":"oldActivationDelay","type":"uint32","indexed":false,"internalType":"uint32"},{"name":"newActivationDelay","type":"uint32","indexed":false,"internalType":"uint32"}],"anonymous":false},{"type":"event","name":"CalculationIntervalSecondsSet","inputs":[{"name":"oldCalculationIntervalSeconds","type":"uint32","indexed":false,"internalType":"uint32"},{"name":"newCalculationIntervalSeconds","type":"uint32","indexed":false,"internalType":"uint32"}],"anonymous":false},{"type":"event","name":"ClaimerForSet","inputs":[{"name":"earner","type":"address","indexed":true,"internalType":"address"},{"name":"oldClaimer","type":"address","indexed":true,"internalType":"address"},{"name":"claimer","type":"address","indexed":true,"internalType":"address"}],"anonymous":false},{"type":"event","name":"DistributionRootSubmitted","inputs":[{"name":"rootIndex","type":"uint32","indexed":true,"internalType":"uint32"},{"name":"root","type":"bytes32","indexed":true,"internalType":"bytes32"},{"name":"paymentCalculationEndTimestamp","type":"uint32","indexed":false,"internalType":"uint32"},{"name":"activatedAt","type":"uint32","indexed":false,"internalType":"uint32"}],"anonymous":false},{"type":"event","name":"GlobalCommissionBipsSet","inputs":[{"name":"oldGlobalCommissionBips","type":"uint16","indexed":false,"internalType":"uint16"},{"name":"newGlobalCommissionBips","type":"uint16","indexed":false,"internalType":"uint16"}],"anonymous":false},{"type":"event","name":"Initialized","inputs":[{"name":"version","type":"uint8","indexed":false,"internalType":"uint8"}],"anonymous":false},{"type":"event","name":"OwnershipTransferred","inputs":[{"name":"previousOwner","type":"address","indexed":true,"internalType":"address"},{"name":"newOwner","type":"address","indexed":true,"internalType":"address"}],"anonymous":false},{"type":"event","name":"Paused","inputs":[{"name":"account","type":"address","indexed":true,"internalType":"address"},{"name":"newPausedStatus","type":"uint256","indexed":false,"internalType":"uint256"}],"anonymous":false},{"type":"event","name":"PauserRegistrySet","inputs":[{"name":"pauserRegistry","type":"address","indexed":false,"internalType":"contract IPauserRegistry"},{"name":"newPauserRegistry","type":"address","indexed":false,"internalType":"contract IPauserRegistry"}],"anonymous":false},{"type":"event","name":"PayAllForRangeSubmitterSet","inputs":[{"name":"payAllForRangeSubmitter","type":"address","indexed":true,"internalType":"address"},{"name":"oldValue","type":"bool","indexed":true,"internalType":"bool"},{"name":"newValue","type":"bool","indexed":true,"internalType":"bool"}],"anonymous":false},{"type":"event","name":"PaymentClaimed","inputs":[{"name":"root","type":"bytes32","indexed":false,"internalType":"bytes32"},{"name":"earner","type":"address","indexed":true,"internalType":"address"},{"name":"claimer","type":"address","indexed":true,"internalType":"address"},{"name":"token","type":"address","indexed":true,"internalType":"contract IERC20"},{"name":"claimedAmount","type":"uint256","indexed":false,"internalType":"uint256"}],"anonymous":false},{"type":"event","name":"PaymentUpdaterSet","inputs":[{"name":"oldPaymentUpdater","type":"address","indexed":true,"internalType":"address"},{"name":"newPaymentUpdater","type":"address","indexed":true,"internalType":"address"}],"anonymous":false},{"type":"event","name":"RangePaymentCreated","inputs":[{"name":"avs","type":"address","indexed":true,"internalType":"address"},{"name":"paymentNonce","type":"uint256","indexed":true,"internalType":"uint256"},{"name":"rangePaymentHash","type":"bytes32","indexed":true,"internalType":"bytes32"},{"name":"rangePayment","type":"tuple","indexed":false,"internalType":"struct IPaymentCoordinator.RangePayment","components":[{"name":"strategiesAndMultipliers","type":"tuple[]","internalType":"struct IPaymentCoordinator.StrategyAndMultiplier[]","components":[{"name":"strategy","type":"address","internalType":"contract IStrategy"},{"name":"multiplier","type":"uint96","internalType":"uint96"}]},{"name":"token","type":"address","internalType":"contract IERC20"},{"name":"amount","type":"uint256","internalType":"uint256"},{"name":"startTimestamp","type":"uint32","internalType":"uint32"},{"name":"duration","type":"uint32","internalType":"uint32"}]}],"anonymous":false},{"type":"event","name":"RangePaymentForAllCreated","inputs":[{"name":"submitter","type":"address","indexed":true,"internalType":"address"},{"name":"paymentNonce","type":"uint256","indexed":true,"internalType":"uint256"},{"name":"rangePaymentHash","type":"bytes32","indexed":true,"internalType":"bytes32"},{"name":"rangePayment","type":"tuple","indexed":false,"internalType":"struct IPaymentCoordinator.RangePayment","components":[{"name":"strategiesAndMultipliers","type":"tuple[]","internalType":"struct IPaymentCoordinator.StrategyAndMultiplier[]","components":[{"name":"strategy","type":"address","internalType":"contract IStrategy"},{"name":"multiplier","type":"uint96","internalType":"uint96"}]},{"name":"token","type":"address","internalType":"contract IERC20"},{"name":"amount","type":"uint256","internalType":"uint256"},{"name":"startTimestamp","type":"uint32","internalType":"uint32"},{"name":"duration","type":"uint32","internalType":"uint32"}]}],"anonymous":false},{"type":"event","name":"Unpaused","inputs":[{"name":"account","type":"address","indexed":true,"internalType":"address"},{"name":"newPausedStatus","type":"uint256","indexed":false,"internalType":"uint256"}],"anonymous":false}],"bytecode":{"object":"0x6101606040523480156200001257600080fd5b50604051620039f6380380620039f6833981016040819052620000359162000177565b6001600160a01b038087166101005285166101205263ffffffff80851660805280841660a05280831660c052811660e0526200007062000082565b5050466101405250620001fd92505050565b600054610100900460ff1615620000ef5760405162461bcd60e51b815260206004820152602760248201527f496e697469616c697a61626c653a20636f6e747261637420697320696e697469604482015266616c697a696e6760c81b606482015260840160405180910390fd5b60005460ff908116101562000142576000805460ff191660ff9081179091556040519081527f7f26b83ff96e1f2b6a682f133852f6798a09c465da95921460cefb38474024989060200160405180910390a15b565b6001600160a01b03811681146200015a57600080fd5b50565b805163ffffffff811681146200017257600080fd5b919050565b60008060008060008060c087890312156200019157600080fd5b86516200019e8162000144565b6020880151909650620001b18162000144565b9450620001c1604088016200015d565b9350620001d1606088016200015d565b9250620001e1608088016200015d565b9150620001f160a088016200015d565b90509295509295509295565b60805160a05160c05160e05161010051610120516101405161377b6200027b60003960006118d50152600081816104640152612740015260006106c2015260008181610416015261258b015260008181610294015261262901526000818161043d015261253a0152600081816106fc015261230d015261377b6000f3fe608060405234801561001057600080fd5b506004361061028a5760003560e01c806365d639c51161015c578063b5715284116100ce578063ec1680de11610087578063ec1680de146106e4578063ee619597146106f7578063f2fde38b1461071e578063f698da2514610731578063f8cd84481461035f578063fabc1cbc1461073957600080fd5b8063b571528414610636578063c8371b4614610649578063d588cefa14610677578063e221b24514610697578063e810ce21146106aa578063ea4d3c9b146106bd57600080fd5b80637b8f8b05116101205780637b8f8b05146105b1578063865c6953146105b9578063886f1195146105e45780638da5cb5b146105f75780639104c31914610608578063a0169ddd1461062357600080fd5b806365d639c51461053e57806366d3b16b1461055157806367ef858514610564578063715018a61461057b57806373f2fbea1461058357600080fd5b80632b9f64a41161020057806358baaa3e116101b957806358baaa3e146104b0578063595c6a67146104c35780635971b3f8146104cb5780635ac86ab7146105005780635c975abb146105235780635e9d83481461052b57600080fd5b80632b9f64a4146103d05780632cfd45eb1461041157806337838ed01461043857806339b70e381461045f5780633a8c0786146104865780633efe1db61461049d57600080fd5b8063146cd61d11610252578063146cd61d1461032c578063149bc8721461035f578063160bc83f14610380578063169bde2b1461039357806318190f53146103aa5780631b445516146103bd57600080fd5b806304a0c5021461028f57806307ba8be4146102d0578063092db007146102e557806310d67a2f14610306578063136439dd14610319575b600080fd5b6102b67f000000000000000000000000000000000000000000000000000000000000000081565b60405163ffffffff90911681526020015b60405180910390f35b6102e36102de366004612eb6565b61074c565b005b60cc546102f39061ffff1681565b60405161ffff90911681526020016102c7565b6102e3610314366004612f3b565b6108a3565b6102e3610327366004612f58565b610956565b61034f61033a366004612f3b565b60d26020526000908152604090205460ff1681565b60405190151581526020016102c7565b61037261036d366004612f89565b610a95565b6040519081526020016102c7565b6102e361038e366004612fa5565b610af4565b60cb546102b690600160a01b900463ffffffff1681565b6102e36103b8366004612f3b565b610ea1565b6102e36103cb366004612fe1565b610eb2565b6103f96103de366004612f3b565b60cd602052600090815260409020546001600160a01b031681565b6040516001600160a01b0390911681526020016102c7565b6102b67f000000000000000000000000000000000000000000000000000000000000000081565b6102b67f000000000000000000000000000000000000000000000000000000000000000081565b6103f97f000000000000000000000000000000000000000000000000000000000000000081565b60cb546102b690600160c01b900463ffffffff1681565b6102e36104ab366004613056565b61105d565b6102e36104be366004613082565b61129e565b6102e36112af565b6104de6104d9366004612f58565b611376565b6040805193845263ffffffff92831660208501529116908201526060016102c7565b61034f61050e36600461309d565b606654600160ff9092169190911b9081161490565b606654610372565b61034f610539366004612fa5565b6113b6565b6102e361054c366004613082565b611432565b60cb546103f9906001600160a01b031681565b60cb546102b690600160e01b900463ffffffff1681565b6102e3611443565b61034f6105913660046130c0565b60d160209081526000928352604080842090915290825290205460ff1681565b60ca54610372565b6103726105c73660046130f7565b60ce60209081526000928352604080842090915290825290205481565b6065546103f9906001600160a01b031681565b6033546001600160a01b03166103f9565b6103f973beac0eeeeeeeeeeeeeeeeeeeeeeeeeeeeeebeac081565b6102e3610631366004612f3b565b611457565b6102e3610644366004612fe1565b6114b6565b61034f6106573660046130c0565b60d060209081526000928352604080842090915290825290205460ff1681565b610372610685366004612f3b565b60cf6020526000908152604090205481565b6102e36106a5366004613130565b6116e6565b6102b66106b8366004612f58565b6116f7565b6103f97f000000000000000000000000000000000000000000000000000000000000000081565b6102e36106f2366004613159565b6117d9565b6102b67f000000000000000000000000000000000000000000000000000000000000000081565b6102e361072c366004612f3b565b61185b565b6103726118d1565b6102e3610747366004612f58565b61190f565b600054610100900460ff161580801561076c5750600054600160ff909116105b806107865750303b158015610786575060005460ff166001145b6107ee5760405162461bcd60e51b815260206004820152602e60248201527f496e697469616c697a61626c653a20636f6e747261637420697320616c72656160448201526d191e481a5b9a5d1a585b1a5e995960921b60648201526084015b60405180910390fd5b6000805460ff191660011790558015610811576000805461ff0019166101001790555b610819611a6b565b60c9556108268787611b02565b61082f88611bec565b61083885611c3e565b61084184611c9a565b61084a83611d0b565b61085382611d7c565b8015610899576000805461ff0019169055604051600181527f7f26b83ff96e1f2b6a682f133852f6798a09c465da95921460cefb38474024989060200160405180910390a15b5050505050505050565b606560009054906101000a90046001600160a01b03166001600160a01b031663eab66d7a6040518163ffffffff1660e01b8152600401602060405180830381865afa1580156108f6573d6000803e3d6000fd5b505050506040513d601f19601f8201168201806040525081019061091a9190613187565b6001600160a01b0316336001600160a01b03161461094a5760405162461bcd60e51b81526004016107e5906131a4565b61095381611dd6565b50565b60655460405163237dfb4760e11b81523360048201526001600160a01b03909116906346fbf68e90602401602060405180830381865afa15801561099e573d6000803e3d6000fd5b505050506040513d601f19601f820116820180604052508101906109c291906131ee565b6109de5760405162461bcd60e51b81526004016107e59061320b565b60665481811614610a575760405162461bcd60e51b815260206004820152603860248201527f5061757361626c652e70617573653a20696e76616c696420617474656d70742060448201527f746f20756e70617573652066756e6374696f6e616c697479000000000000000060648201526084016107e5565b606681905560405181815233907fab40a374bc51de372200a8bc981af8c9ecdc08dfdaef0bb6e09f88f3c616ef3d906020015b60405180910390a250565b6000610aa46020830183612f3b565b8260200135604051602001610ad792919060609290921b6bffffffffffffffffffffffff19168252601482015260340190565b604051602081830303815290604052805190602001209050919050565b60665460029060049081161415610b1d5760405162461bcd60e51b81526004016107e590613253565b60026097541415610b405760405162461bcd60e51b81526004016107e59061328a565b6002609755600060ca610b566020850185613082565b63ffffffff1681548110610b6c57610b6c6132c1565b6000918252602091829020604080516060810182526002909302909101805483526001015463ffffffff808216948401949094526401000000009004909216918101919091529050610bbe8382611ecd565b610c305760405162461bcd60e51b815260206004820152603e60248201527f5061796d656e74436f6f7264696e61746f722e70726f63657373436c61696d3a60448201527f20636c61696d20646f6573206e6f7420706173732074686520636865636b000060648201526084016107e5565b6000610c426080850160608601612f3b565b6001600160a01b03808216600090815260cd60205260409020549192501680610c685750805b336001600160a01b03821614610ce65760405162461bcd60e51b815260206004820152603c60248201527f5061796d656e74436f6f7264696e61746f722e70726f63657373436c61696d3a60448201527f2063616c6c6572206973206e6f742076616c696420636c61696d65720000000060648201526084016107e5565b60005b610cf660a08701876132d7565b9050811015610e945736610d0d60e0880188613328565b83818110610d1d57610d1d6132c1565b6001600160a01b038716600090815260ce602090815260408083209302949094019450929091508290610d5290850185612f3b565b6001600160a01b0316815260208082019290925260400160002054610d7991840135613388565b6001600160a01b038616600090815260ce60209081526040822092935084018035929190610da79086612f3b565b6001600160a01b0316815260208082019290925260400160002091909155610de99085908390610dd990860186612f3b565b6001600160a01b03169190612182565b610df660e0890189613328565b84818110610e0657610e066132c1565b610e1c9260206040909202019081019150612f3b565b6001600160a01b0316846001600160a01b0316866001600160a01b03167f12dc5ee945fb55f9b9315683bda449d0a9ff4a6726fd7cb4459acd1deaf3e359896000015185604051610e77929190918252602082015260400190565b60405180910390a450508080610e8c9061339f565b915050610ce9565b5050600160975550505050565b610ea96121ea565b61095381611c3e565b60665460009060019081161415610edb5760405162461bcd60e51b81526004016107e590613253565b60026097541415610efe5760405162461bcd60e51b81526004016107e59061328a565b600260975560005b828110156110525736848483818110610f2157610f216132c1565b9050602002810190610f3391906133ba565b33600081815260cf60209081526040808320549051949550939192610f5e92909185918791016134ff565b60408051601f19818403018152918152815160209283012033600090815260d0845282812082825290935291205490915060ff1615610faf5760405162461bcd60e51b81526004016107e59061352f565b33600090815260d0602090815260408083208484529091529020805460ff19166001179055610fdd83612244565b8082336001600160a01b03167f2a0659fa4c38e0075469a0e0dd737e045dc316ffd6cb6e68755c119ee0882aea866040516110189190613588565b60405180910390a461102b82600161359b565b33600090815260cf60205260409020555082915061104a90508161339f565b915050610f06565b505060016097555050565b60cb546001600160a01b031633146110d45760405162461bcd60e51b815260206004820152603460248201527f5061796d656e74436f6f7264696e61746f723a2063616c6c6572206973206e6f6044820152733a103a3432903830bcb6b2b73a2ab83230ba32b960611b60648201526084016107e5565b60cb5463ffffffff600160e01b9091048116908216116111705760405162461bcd60e51b815260206004820152604b60248201527f5061796d656e74436f6f7264696e61746f722e7375626d6974526f6f743a206e60448201527f657720726f6f74206d75737420626520666f72206e657765722063616c63756c60648201526a185d1959081c195c9a5bd960aa1b608482015260a4016107e5565b60ca5460cb5460009061119090600160c01b900463ffffffff16426135b3565b6040805160608101825286815263ffffffff868116602080840182815286841685870181815260ca805460018101825560009190915296517f42d72674974f694b5f5159593243114d38a5c39c89d6b62fee061ff523240ee160029098029788015591517f42d72674974f694b5f5159593243114d38a5c39c89d6b62fee061ff523240ee29096018054925196861667ffffffffffffffff19909316929092176401000000009686169690960295909517905560cb80546001600160e01b0316600160e01b8402179055845191825281019290925292935086928516917fecd866c3c158fa00bf34d803d5f6023000b57080bcb48af004c2b4b46b3afd08910160405180910390a350505050565b6112a66121ea565b61095381611c9a565b60655460405163237dfb4760e11b81523360048201526001600160a01b03909116906346fbf68e90602401602060405180830381865afa1580156112f7573d6000803e3d6000fd5b505050506040513d601f19601f8201168201806040525081019061131b91906131ee565b6113375760405162461bcd60e51b81526004016107e59061320b565b600019606681905560405190815233907fab40a374bc51de372200a8bc981af8c9ecdc08dfdaef0bb6e09f88f3c616ef3d9060200160405180910390a2565b60ca818154811061138657600080fd5b60009182526020909120600290910201805460019091015490915063ffffffff8082169164010000000090041683565b600061142c8260ca6113cb6020830183613082565b63ffffffff16815481106113e1576113e16132c1565b6000918252602091829020604080516060810182526002909302909101805483526001015463ffffffff80821694840194909452640100000000900490921691810191909152611ecd565b92915050565b61143a6121ea565b61095381611d0b565b61144b6121ea565b6114556000611bec565b565b33600081815260cd602052604080822080546001600160a01b031981166001600160a01b038781169182179093559251911692839185917fbab947934d42e0ad206f25c9cab18b5bb6ae144acfb00f40b4e3aa59590ca31291a4505050565b606654600190600290811614156114df5760405162461bcd60e51b81526004016107e590613253565b33600090815260d2602052604090205460ff1661156f5760405162461bcd60e51b815260206004820152604260248201527f5061796d656e74436f6f7264696e61746f723a2063616c6c6572206973206e6f60448201527f7420612076616c696420706179416c6c466f7252616e6765207375626d69747460648201526132b960f11b608482015260a4016107e5565b600260975414156115925760405162461bcd60e51b81526004016107e59061328a565b600260975560005b8281101561105257368484838181106115b5576115b56132c1565b90506020028101906115c791906133ba565b33600081815260cf602090815260408083205490519495509391926115f292909185918791016134ff565b60408051601f19818403018152918152815160209283012033600090815260d1845282812082825290935291205490915060ff16156116435760405162461bcd60e51b81526004016107e59061352f565b33600090815260d1602090815260408083208484529091529020805460ff1916600117905561167183612244565b8082336001600160a01b03167fbc0782940ec5871f66c5490ef957f44d19a9adac1dac18b946ad0dd6579c30d6866040516116ac9190613588565b60405180910390a46116bf82600161359b565b33600090815260cf6020526040902055508291506116de90508161339f565b91505061159a565b6116ee6121ea565b61095381611d7c565b60ca546000905b63ffffffff81161561176a578260ca6117186001846135db565b63ffffffff168154811061172e5761172e6132c1565b9060005260206000209060020201600001541415611758576117516001826135db565b9392505050565b8061176281613600565b9150506116fe565b5060405162461bcd60e51b815260206004820152603760248201527f5061796d656e74436f6f7264696e61746f722e676574526f6f74496e6465784660448201527f726f6d486173683a20726f6f74206e6f7420666f756e6400000000000000000060648201526084016107e5565b6117e16121ea565b6001600160a01b038216600081815260d2602052604080822054905160ff9091169284151592841515927f17b06be02af2803593116eb96121b9c6e8bee1cc1b145e7c31c19c180e86189b9190a4506001600160a01b0391909116600090815260d260205260409020805460ff1916911515919091179055565b6118636121ea565b6001600160a01b0381166118c85760405162461bcd60e51b815260206004820152602660248201527f4f776e61626c653a206e6577206f776e657220697320746865207a65726f206160448201526564647265737360d01b60648201526084016107e5565b61095381611bec565b60007f0000000000000000000000000000000000000000000000000000000000000000461415611902575060c95490565b61190a611a6b565b905090565b606560009054906101000a90046001600160a01b03166001600160a01b031663eab66d7a6040518163ffffffff1660e01b8152600401602060405180830381865afa158015611962573d6000803e3d6000fd5b505050506040513d601f19601f820116820180604052508101906119869190613187565b6001600160a01b0316336001600160a01b0316146119b65760405162461bcd60e51b81526004016107e5906131a4565b606654198119606654191614611a345760405162461bcd60e51b815260206004820152603860248201527f5061757361626c652e756e70617573653a20696e76616c696420617474656d7060448201527f7420746f2070617573652066756e6374696f6e616c697479000000000000000060648201526084016107e5565b606681905560405181815233907f3582d1828e26bf56bd801502bc021ac0bc8afb57c826e4986b45593c8fad389c90602001610a8a565b604080518082018252600a81526922b4b3b2b72630bcb2b960b11b60209182015281517f8cad95687ba82c2ce50e74f7b754645e5117c3a5bec8151c0726d5857980a866818301527f71b625cfad44bac63b13dba07f2e1d6084ee04b6f8752101ece6126d584ee6ea81840152466060820152306080808301919091528351808303909101815260a0909101909252815191012090565b6065546001600160a01b0316158015611b2357506001600160a01b03821615155b611ba55760405162461bcd60e51b815260206004820152604760248201527f5061757361626c652e5f696e697469616c697a655061757365723a205f696e6960448201527f7469616c697a6550617573657228292063616e206f6e6c792062652063616c6c6064820152666564206f6e636560c81b608482015260a4016107e5565b606681905560405181815233907fab40a374bc51de372200a8bc981af8c9ecdc08dfdaef0bb6e09f88f3c616ef3d9060200160405180910390a2611be882611dd6565b5050565b603380546001600160a01b038381166001600160a01b0319831681179093556040519116919082907f8be0079c531659141344cd1fd0a4f28419497f9722a3daafe3b4186f6b6457e090600090a35050565b60cb546040516001600160a01b038084169216907f07d2890b3eb1206e7c3cb6bf8d46da31385ace3ce99abf85e5b690c83aa4967890600090a360cb80546001600160a01b0319166001600160a01b0392909216919091179055565b60cb546040805163ffffffff600160c01b9093048316815291831660208301527faf557c6c02c208794817a705609cfa935f827312a1adfdd26494b6b95dd2b4b3910160405180910390a160cb805463ffffffff909216600160c01b0263ffffffff60c01b19909216919091179055565b60cb546040805163ffffffff600160a01b9093048316815291831660208301527faddb24ca333700fdcbf56935d0b5441c4eeed55b009d95a2efc6dc734c8935e4910160405180910390a160cb805463ffffffff909216600160a01b0263ffffffff60a01b19909216919091179055565b60cc546040805161ffff928316815291831660208301527f8cdc428b0431b82d1619763f443a48197db344ba96905f3949643acd1c863a06910160405180910390a160cc805461ffff191661ffff92909216919091179055565b6001600160a01b038116611e645760405162461bcd60e51b815260206004820152604960248201527f5061757361626c652e5f73657450617573657252656769737472793a206e657760448201527f50617573657252656769737472792063616e6e6f7420626520746865207a65726064820152686f206164647265737360b81b608482015260a4016107e5565b606554604080516001600160a01b03928316815291831660208301527f6e9fcd539896fca60e8b0f01dd580233e48a6b0f7df013b89ba7f565869acdb6910160405180910390a1606580546001600160a01b0319166001600160a01b0392909216919091179055565b6000816040015163ffffffff16421015611f485760405162461bcd60e51b815260206004820152603660248201527f5061796d656e74436f6f7264696e61746f722e5f636865636b436c61696d3a206044820152751c9bdbdd081b9bdd081858dd1a5d985d1959081e595d60521b60648201526084016107e5565b611f5560c08401846132d7565b9050611f6460a08501856132d7565b905014611fee5760405162461bcd60e51b815260206004820152604c60248201527f5061796d656e74436f6f7264696e61746f722e5f636865636b436c61696d3a2060448201527f746f6b656e496e646963657320616e6420746f6b656e50726f6f6673206c656e60648201526b0cee8d040dad2e6dac2e8c6d60a31b608482015260a4016107e5565b611ffb60e0840184613328565b905061200a60c08501856132d7565b9050146120925760405162461bcd60e51b815260206004820152604a60248201527f5061796d656e74436f6f7264696e61746f722e5f636865636b436c61696d3a2060448201527f746f6b656e5472656550726f6f667320616e64206c6561766573206c656e67746064820152690d040dad2e6dac2e8c6d60b31b608482015260a4016107e5565b81516120be906120a86040860160208701613082565b6120b56040870187613620565b8760600161290c565b60005b6120ce60a08501856132d7565b90508110156121785761216860808501356120ec60a08701876132d7565b848181106120fc576120fc6132c1565b90506020020160208101906121119190613082565b61211e60c08801886132d7565b8581811061212e5761212e6132c1565b90506020028101906121409190613620565b61214d60e08a018a613328565b8781811061215d5761215d6132c1565b9050604002016129eb565b6121718161339f565b90506120c1565b5060019392505050565b6040516001600160a01b0383166024820152604481018290526121e590849063a9059cbb60e01b906064015b60408051601f198184030181529190526020810180516001600160e01b03166001600160e01b031990931692909217909152612ab3565b505050565b6033546001600160a01b031633146114555760405162461bcd60e51b815260206004820181905260248201527f4f776e61626c653a2063616c6c6572206973206e6f7420746865206f776e657260448201526064016107e5565b60006122508280613328565b9050116122a85760405162461bcd60e51b81526020600482015260326024820152600080516020613726833981519152604482015271081b9bc81cdd1c985d1959da595cc81cd95d60721b60648201526084016107e5565b60008160400135116123065760405162461bcd60e51b81526020600482015260336024820152600080516020613726833981519152604482015272020616d6f756e742063616e6e6f74206265203606c1b60648201526084016107e5565b63ffffffff7f00000000000000000000000000000000000000000000000000000000000000001661233d60a0830160808401613082565b63ffffffff1611156123b45760405162461bcd60e51b8152602060048201526046602482015260008051602061372683398151915260448201527f206475726174696f6e2065786365656473204d41585f5041594d454e545f44556064820152652920aa24a7a760d11b608482015260a4016107e5565b60cb54600160a01b900463ffffffff166123d460a0830160808401613082565b6123de919061367d565b63ffffffff161561246b5760405162461bcd60e51b815260206004820152605a602482015260008051602061372683398151915260448201527f206475726174696f6e206d7573742062652061206d756c7469706c65206f662060648201527f63616c63756c6174696f6e496e74657276616c5365636f6e6473000000000000608482015260a4016107e5565b60cb54600160a01b900463ffffffff1661248b6080830160608401613082565b612495919061367d565b63ffffffff16156125225760405162461bcd60e51b8152602060048201526060602482015260008051602061372683398151915260448201527f20737461727454696d657374616d70206d7573742062652061206d756c74697060648201527f6c65206f662063616c63756c6174696f6e496e74657276616c5365636f6e6473608482015260a4016107e5565b6125326080820160608301613082565b63ffffffff167f000000000000000000000000000000000000000000000000000000000000000063ffffffff164261256a9190613388565b111580156125b357506125836080820160608301613082565b63ffffffff167f000000000000000000000000000000000000000000000000000000000000000063ffffffff1611155b61261f5760405162461bcd60e51b8152602060048201526043602482015260008051602061372683398151915260448201527f20737461727454696d657374616d7020746f6f2066617220696e207468652070606482015262185cdd60ea1b608482015260a4016107e5565b61264f63ffffffff7f0000000000000000000000000000000000000000000000000000000000000000164261359b565b61265f6080830160608401613082565b63ffffffff1611156126d55760405162461bcd60e51b8152602060048201526045602482015260008051602061372683398151915260448201527f20737461727454696d657374616d7020746f6f2066617220696e207468652066606482015264757475726560d81b608482015260a4016107e5565b6000805b6126e38380613328565b90508110156128e15760006126f88480613328565b83818110612708576127086132c1565b61271e9260206040909202019081019150612f3b565b60405163198f077960e21b81526001600160a01b0380831660048301529192507f00000000000000000000000000000000000000000000000000000000000000009091169063663c1de490602401602060405180830381865afa158015612789573d6000803e3d6000fd5b505050506040513d601f19601f820116820180604052508101906127ad91906131ee565b806127d457506001600160a01b03811673beac0eeeeeeeeeeeeeeeeeeeeeeeeeeeeeebeac0145b6128345760405162461bcd60e51b815260206004820152603c602482015260008051602061372683398151915260448201527f20696e76616c696420737472617465677920636f6e736964657265640000000060648201526084016107e5565b806001600160a01b0316836001600160a01b0316106128cf5760405162461bcd60e51b815260206004820152605b602482015260008051602061372683398151915260448201527f2073747261746567696573206d75737420626520696e20617363656e64696e6760648201527f206f7264657220746f2068616e646c65206475706c6963617465730000000000608482015260a4016107e5565b91506128da8161339f565b90506126d9565b50611be83330604085018035906128fb9060208801612f3b565b6001600160a01b0316929190612b85565b600061291782610a95565b905061296284848080601f0160208091040260200160405190810160405280939291908181526020018383808284376000920191909152508a92508591505063ffffffff8916612bc3565b6129e35760405162461bcd60e51b815260206004820152604660248201527f5061796d656e74436f6f7264696e61746f722e5f7665726966794561726e657260448201527f436c61696d50726f6f663a20696e76616c6964206561726e657220636c61696d60648201526510383937b7b360d11b608482015260a4016107e5565b505050505050565b60006129f682610a95565b9050612a4184848080601f0160208091040260200160405190810160405280939291908181526020018383808284376000920191909152508a92508591505063ffffffff8916612bc3565b6129e35760405162461bcd60e51b815260206004820152603f60248201527f5061796d656e74436f6f7264696e61746f722e5f766572696679546f6b656e4360448201527f6c61696d3a20696e76616c696420746f6b656e20636c61696d2070726f6f660060648201526084016107e5565b6000612b08826040518060400160405280602081526020017f5361666545524332303a206c6f772d6c6576656c2063616c6c206661696c6564815250856001600160a01b0316612bdb9092919063ffffffff16565b8051909150156121e55780806020019051810190612b2691906131ee565b6121e55760405162461bcd60e51b815260206004820152602a60248201527f5361666545524332303a204552433230206f7065726174696f6e20646964206e6044820152691bdd081cdd58d8d9595960b21b60648201526084016107e5565b6040516001600160a01b0380851660248301528316604482015260648101829052612bbd9085906323b872dd60e01b906084016121ae565b50505050565b600083612bd1868585612bf2565b1495945050505050565b6060612bea8484600085612d0c565b949350505050565b60008351600014158015612c11575060208451612c0f91906136a0565b155b612ca05760405162461bcd60e51b815260206004820152605460248201527f4d65726b6c652e70726f63657373496e636c7573696f6e50726f6f664b65636360448201527f616b3a2070726f6f66206c656e6774682073686f756c642062652061206e6f6e60648201527316bd32b9379036bab63a34b836329037b310199960611b608482015260a4016107e5565b8260205b85518111612d0357612cb76002856136a0565b612cd857816000528086015160205260406000209150600284049350612cf1565b8086015160005281602052604060002091506002840493505b612cfc60208261359b565b9050612ca4565b50949350505050565b606082471015612d6d5760405162461bcd60e51b815260206004820152602660248201527f416464726573733a20696e73756666696369656e742062616c616e636520666f6044820152651c8818d85b1b60d21b60648201526084016107e5565b6001600160a01b0385163b612dc45760405162461bcd60e51b815260206004820152601d60248201527f416464726573733a2063616c6c20746f206e6f6e2d636f6e747261637400000060448201526064016107e5565b600080866001600160a01b03168587604051612de091906136e0565b60006040518083038185875af1925050503d8060008114612e1d576040519150601f19603f3d011682016040523d82523d6000602084013e612e22565b606091505b5091509150612e32828286612e3d565b979650505050505050565b60608315612e4c575081611751565b825115612e5c5782518084602001fd5b8160405162461bcd60e51b81526004016107e591906136f2565b6001600160a01b038116811461095357600080fd5b803563ffffffff81168114612e9f57600080fd5b919050565b803561ffff81168114612e9f57600080fd5b600080600080600080600060e0888a031215612ed157600080fd5b8735612edc81612e76565b96506020880135612eec81612e76565b9550604088013594506060880135612f0381612e76565b9350612f1160808901612e8b565b9250612f1f60a08901612e8b565b9150612f2d60c08901612ea4565b905092959891949750929550565b600060208284031215612f4d57600080fd5b813561175181612e76565b600060208284031215612f6a57600080fd5b5035919050565b600060408284031215612f8357600080fd5b50919050565b600060408284031215612f9b57600080fd5b6117518383612f71565b600060208284031215612fb757600080fd5b813567ffffffffffffffff811115612fce57600080fd5b8201610100818503121561175157600080fd5b60008060208385031215612ff457600080fd5b823567ffffffffffffffff8082111561300c57600080fd5b818501915085601f83011261302057600080fd5b81358181111561302f57600080fd5b8660208260051b850101111561304457600080fd5b60209290920196919550909350505050565b6000806040838503121561306957600080fd5b8235915061307960208401612e8b565b90509250929050565b60006020828403121561309457600080fd5b61175182612e8b565b6000602082840312156130af57600080fd5b813560ff8116811461175157600080fd5b600080604083850312156130d357600080fd5b82356130de81612e76565b946020939093013593505050565b8035612e9f81612e76565b6000806040838503121561310a57600080fd5b823561311581612e76565b9150602083013561312581612e76565b809150509250929050565b60006020828403121561314257600080fd5b61175182612ea4565b801515811461095357600080fd5b6000806040838503121561316c57600080fd5b823561317781612e76565b915060208301356131258161314b565b60006020828403121561319957600080fd5b815161175181612e76565b6020808252602a908201527f6d73672e73656e646572206973206e6f74207065726d697373696f6e6564206160408201526939903ab73830bab9b2b960b11b606082015260800190565b60006020828403121561320057600080fd5b81516117518161314b565b60208082526028908201527f6d73672e73656e646572206973206e6f74207065726d697373696f6e6564206160408201526739903830bab9b2b960c11b606082015260800190565b60208082526019908201527f5061757361626c653a20696e6465782069732070617573656400000000000000604082015260600190565b6020808252601f908201527f5265656e7472616e637947756172643a207265656e7472616e742063616c6c00604082015260600190565b634e487b7160e01b600052603260045260246000fd5b6000808335601e198436030181126132ee57600080fd5b83018035915067ffffffffffffffff82111561330957600080fd5b6020019150600581901b360382131561332157600080fd5b9250929050565b6000808335601e1984360301811261333f57600080fd5b83018035915067ffffffffffffffff82111561335a57600080fd5b6020019150600681901b360382131561332157600080fd5b634e487b7160e01b600052601160045260246000fd5b60008282101561339a5761339a613372565b500390565b60006000198214156133b3576133b3613372565b5060010190565b60008235609e198336030181126133d057600080fd5b9190910192915050565b818352600060208085019450826000805b8681101561343f5782356133fe81612e76565b6001600160a01b03168852828401356bffffffffffffffffffffffff8116808214613427578384fd5b898601525060409788019792909201916001016133eb565b50959695505050505050565b60008135601e1983360301811261346157600080fd5b8201803567ffffffffffffffff81111561347a57600080fd5b8060061b360384131561348c57600080fd5b60a085526134a160a0860182602085016133da565b9150506134b0602084016130ec565b6001600160a01b03166020850152604083810135908501526134d460608401612e8b565b63ffffffff1660608501526134eb60808401612e8b565b63ffffffff81166080860152509392505050565b60018060a01b0384168152826020820152606060408201526000613526606083018461344b565b95945050505050565b602080825260459082015260008051602061372683398151915260408201527f2072616e6765207061796d656e74206861736820616c7265616479207375626d6060820152641a5d1d195960da1b608082015260a00190565b602081526000611751602083018461344b565b600082198211156135ae576135ae613372565b500190565b600063ffffffff8083168185168083038211156135d2576135d2613372565b01949350505050565b600063ffffffff838116908316818110156135f8576135f8613372565b039392505050565b600063ffffffff82168061361657613616613372565b6000190192915050565b6000808335601e1984360301811261363757600080fd5b83018035915067ffffffffffffffff82111561365257600080fd5b60200191503681900382131561332157600080fd5b634e487b7160e01b600052601260045260246000fd5b600063ffffffff8084168061369457613694613667565b92169190910692915050565b6000826136af576136af613667565b500690565b60005b838110156136cf5781810151838201526020016136b7565b83811115612bbd5750506000910152565b600082516133d08184602087016136b4565b60208152600082518060208401526137118160408501602087016136b4565b601f01601f1916919091016040019291505056fe5061796d656e74436f6f7264696e61746f722e5f706179466f7252616e67653aa2646970667358221220b8ae1164a4036255de9a3facb552f764c5ba2a8e4420deea196d1d31cddad89c64736f6c634300080c0033","linkReferences":{}},"methodIdentifiers":{"GENESIS_PAYMENT_TIMESTAMP()":"2cfd45eb","MAX_FUTURE_LENGTH()":"04a0c502","MAX_PAYMENT_DURATION()":"ee619597","MAX_RETROACTIVE_LENGTH()":"37838ed0","activationDelay()":"3a8c0786","beaconChainETHStrategy()":"9104c319","calculateEarnerLeafHash((address,bytes32))":"149bc872","calculateTokenLeafHash((address,uint256))":"f8cd8448","calculationIntervalSeconds()":"169bde2b","checkClaim((uint32,uint32,bytes,(address,bytes32),uint32[],bytes[],(address,uint256)[]))":"5e9d8348","claimerFor(address)":"2b9f64a4","cumulativeClaimed(address,address)":"865c6953","currPaymentCalculationEndTimestamp()":"67ef8585","delegationManager()":"ea4d3c9b","distributionRoots(uint256)":"5971b3f8","domainSeparator()":"f698da25","getDistributionRootsLength()":"7b8f8b05","getRootIndexFromHash(bytes32)":"e810ce21","globalOperatorCommissionBips()":"092db007","initialize(address,address,uint256,address,uint32,uint32,uint16)":"07ba8be4","isPayAllForRangeSubmitter(address)":"146cd61d","isRangePaymentForAllHash(address,bytes32)":"73f2fbea","isRangePaymentHash(address,bytes32)":"c8371b46","owner()":"8da5cb5b","pause(uint256)":"136439dd","pauseAll()":"595c6a67","paused()":"5c975abb","paused(uint8)":"5ac86ab7","pauserRegistry()":"886f1195","payAllForRange(((address,uint96)[],address,uint256,uint32,uint32)[])":"b5715284","payForRange(((address,uint96)[],address,uint256,uint32,uint32)[])":"1b445516","paymentNonce(address)":"d588cefa","paymentUpdater()":"66d3b16b","processClaim((uint32,uint32,bytes,(address,bytes32),uint32[],bytes[],(address,uint256)[]))":"160bc83f","renounceOwnership()":"715018a6","setActivationDelay(uint32)":"58baaa3e","setCalculationIntervalSeconds(uint32)":"65d639c5","setClaimerFor(address)":"a0169ddd","setGlobalOperatorCommission(uint16)":"e221b245","setPauserRegistry(address)":"10d67a2f","setPayAllForRangeSubmitter(address,bool)":"ec1680de","setPaymentUpdater(address)":"18190f53","strategyManager()":"39b70e38","submitRoot(bytes32,uint32)":"3efe1db6","transferOwnership(address)":"f2fde38b","unpause(uint256)":"fabc1cbc"},"id":27}