{"abi":[{"type":"function","name":"OPERATOR_AVS_REGISTRATION_TYPEHASH","inputs":[],"outputs":[{"name":"","type":"bytes32","internalType":"bytes32"}],"stateMutability":"view"},{"type":"function","name":"calculateOperatorAVSRegistrationDigestHash","inputs":[{"name":"operator","type":"address","internalType":"address"},{"name":"avs","type":"address","internalType":"address"},{"name":"salt","type":"bytes32","internalType":"bytes32"},{"name":"expiry","type":"uint256","internalType":"uint256"}],"outputs":[{"name":"","type":"bytes32","internalType":"bytes32"}],"stateMutability":"view"},{"type":"function","name":"deregisterOperatorFromAVS","inputs":[{"name":"operator","type":"address","internalType":"address"}],"outputs":[],"stateMutability":"nonpayable"},{"type":"function","name":"operatorSaltIsSpent","inputs":[{"name":"operator","type":"address","internalType":"address"},{"name":"salt","type":"bytes32","internalType":"bytes32"}],"outputs":[{"name":"","type":"bool","internalType":"bool"}],"stateMutability":"view"},{"type":"function","name":"registerOperatorToAVS","inputs":[{"name":"operator","type":"address","internalType":"address"},{"name":"operatorSignature","type":"tuple","internalType":"struct ISignatureUtils.SignatureWithSaltAndExpiry","components":[{"name":"signature","type":"bytes","internalType":"bytes"},{"name":"salt","type":"bytes32","internalType":"bytes32"},{"name":"expiry","type":"uint256","internalType":"uint256"}]}],"outputs":[],"stateMutability":"nonpayable"},{"type":"function","name":"updateAVSMetadataURI","inputs":[{"name":"metadataURI","type":"string","internalType":"string"}],"outputs":[],"stateMutability":"nonpayable"},{"type":"event","name":"AVSMetadataURIUpdated","inputs":[{"name":"avs","type":"address","indexed":true,"internalType":"address"},{"name":"metadataURI","type":"string","indexed":false,"internalType":"string"}],"anonymous":false},{"type":"event","name":"OperatorAVSRegistrationStatusUpdated","inputs":[{"name":"operator","type":"address","indexed":true,"internalType":"address"},{"name":"avs","type":"address","indexed":true,"internalType":"address"},{"name":"status","type":"uint8","indexed":false,"internalType":"enum IAVSDirectory.OperatorAVSRegistrationStatus"}],"anonymous":false}],"bytecode":{"object":"0x608060405234801561001057600080fd5b50610399806100206000396000f3fe608060405234801561001057600080fd5b50600436106100625760003560e01c8063374823b5146100675780639926ee7d14610092578063a1060c88146100a6578063a364f4da146100cc578063a98fb355146100dd578063d79aceab146100eb575b600080fd5b61007d61007536600461010e565b600092915050565b60405190151581526020015b60405180910390f35b6100a46100a03660046101a8565b5050565b005b6100be6100b436600461028d565b6000949350505050565b604051908152602001610089565b6100a46100da3660046102cf565b50565b6100a46100a03660046102f1565b60006100be565b80356001600160a01b038116811461010957600080fd5b919050565b6000806040838503121561012157600080fd5b61012a836100f2565b946020939093013593505050565b634e487b7160e01b600052604160045260246000fd5b6040516060810167ffffffffffffffff8111828210171561017157610171610138565b60405290565b604051601f8201601f1916810167ffffffffffffffff811182821017156101a0576101a0610138565b604052919050565b600080604083850312156101bb57600080fd5b6101c4836100f2565b915060208084013567ffffffffffffffff808211156101e257600080fd5b90850190606082880312156101f657600080fd5b6101fe61014e565b82358281111561020d57600080fd5b8301601f8101891361021e57600080fd5b80358381111561023057610230610138565b610242601f8201601f19168701610177565b9350808452898682840101111561025857600080fd5b808683018786013760008682860101525050818152838301358482015260408301356040820152809450505050509250929050565b600080600080608085870312156102a357600080fd5b6102ac856100f2565b93506102ba602086016100f2565b93969395505050506040820135916060013590565b6000602082840312156102e157600080fd5b6102ea826100f2565b9392505050565b6000806020838503121561030457600080fd5b823567ffffffffffffffff8082111561031c57600080fd5b818501915085601f83011261033057600080fd5b81358181111561033f57600080fd5b86602082850101111561035157600080fd5b6020929092019691955090935050505056fea2646970667358221220198cbe04bad6fefa8031abae3d6aea2a4c7984d871c053266941d1f296b6bc9c64736f6c634300080c0033","linkReferences":{}},"methodIdentifiers":{"OPERATOR_AVS_REGISTRATION_TYPEHASH()":"d79aceab","calculateOperatorAVSRegistrationDigestHash(address,address,bytes32,uint256)":"a1060c88","deregisterOperatorFromAVS(address)":"a364f4da","operatorSaltIsSpent(address,bytes32)":"374823b5","registerOperatorToAVS(address,(bytes,bytes32,uint256))":"9926ee7d","updateAVSMetadataURI(string)":"a98fb355"},"id":82}