{"abi":[{"type":"constructor","inputs":[{"name":"_avsDirectory","type":"address","internalType":"contract IAVSDirectory"},{"name":"_paymentCoordinator","type":"address","internalType":"contract IPaymentCoordinator"},{"name":"_registryCoordinator","type":"address","internalType":"contract IRegistryCoordinator"},{"name":"_stakeRegistry","type":"address","internalType":"contract IStakeRegistry"}],"stateMutability":"nonpayable"},{"type":"function","name":"avsDirectory","inputs":[],"outputs":[{"name":"","type":"address","internalType":"address"}],"stateMutability":"view"},{"type":"function","name":"deregisterOperatorFromAVS","inputs":[{"name":"operator","type":"address","internalType":"address"}],"outputs":[],"stateMutability":"nonpayable"},{"type":"function","name":"getOperatorRestakedStrategies","inputs":[{"name":"operator","type":"address","internalType":"address"}],"outputs":[{"name":"","type":"address[]","internalType":"address[]"}],"stateMutability":"view"},{"type":"function","name":"getRestakeableStrategies","inputs":[],"outputs":[{"name":"","type":"address[]","internalType":"address[]"}],"stateMutability":"view"},{"type":"function","name":"initialize","inputs":[{"name":"initialOwner","type":"address","internalType":"address"}],"outputs":[],"stateMutability":"nonpayable"},{"type":"function","name":"owner","inputs":[],"outputs":[{"name":"","type":"address","internalType":"address"}],"stateMutability":"view"},{"type":"function","name":"payForRange","inputs":[{"name":"rangePayments","type":"tuple[]","internalType":"struct IPaymentCoordinator.RangePayment[]","components":[{"name":"strategiesAndMultipliers","type":"tuple[]","internalType":"struct IPaymentCoordinator.StrategyAndMultiplier[]","components":[{"name":"strategy","type":"address","internalType":"contract IStrategy"},{"name":"multiplier","type":"uint96","internalType":"uint96"}]},{"name":"token","type":"address","internalType":"contract IERC20"},{"name":"amount","type":"uint256","internalType":"uint256"},{"name":"startTimestamp","type":"uint32","internalType":"uint32"},{"name":"duration","type":"uint32","internalType":"uint32"}]}],"outputs":[],"stateMutability":"nonpayable"},{"type":"function","name":"registerOperatorToAVS","inputs":[{"name":"operator","type":"address","internalType":"address"},{"name":"operatorSignature","type":"tuple","internalType":"struct ISignatureUtils.SignatureWithSaltAndExpiry","components":[{"name":"signature","type":"bytes","internalType":"bytes"},{"name":"salt","type":"bytes32","internalType":"bytes32"},{"name":"expiry","type":"uint256","internalType":"uint256"}]}],"outputs":[],"stateMutability":"nonpayable"},{"type":"function","name":"renounceOwnership","inputs":[],"outputs":[],"stateMutability":"nonpayable"},{"type":"function","name":"transferOwnership","inputs":[{"name":"newOwner","type":"address","internalType":"address"}],"outputs":[],"stateMutability":"nonpayable"},{"type":"function","name":"updateAVSMetadataURI","inputs":[{"name":"_metadataURI","type":"string","internalType":"string"}],"outputs":[],"stateMutability":"nonpayable"},{"type":"event","name":"Initialized","inputs":[{"name":"version","type":"uint8","indexed":false,"internalType":"uint8"}],"anonymous":false},{"type":"event","name":"OwnershipTransferred","inputs":[{"name":"previousOwner","type":"address","indexed":true,"internalType":"address"},{"name":"newOwner","type":"address","indexed":true,"internalType":"address"}],"anonymous":false}],"bytecode":{"object":"0x6101006040523480156200001257600080fd5b5060405162001bdc38038062001bdc83398101604081905262000035916200014b565b6001600160a01b0380851660805280841660a05280831660c052811660e052838383836200006262000070565b5050505050505050620001b3565b600054610100900460ff1615620000dd5760405162461bcd60e51b815260206004820152602760248201527f496e697469616c697a61626c653a20636f6e747261637420697320696e697469604482015266616c697a696e6760c81b606482015260840160405180910390fd5b60005460ff908116101562000130576000805460ff191660ff9081179091556040519081527f7f26b83ff96e1f2b6a682f133852f6798a09c465da95921460cefb38474024989060200160405180910390a15b565b6001600160a01b03811681146200014857600080fd5b50565b600080600080608085870312156200016257600080fd5b84516200016f8162000132565b6020860151909450620001828162000132565b6040860151909350620001958162000132565b6060860151909250620001a88162000132565b939692955090935050565b60805160a05160c05160e0516119876200025560003960008181610628015281816107840152818161081b01528181610ca701528181610e2b0152610eca015260008181610453015281816104e2015281816105620152818161091d015281816109bc01528181610be50152610d860152600081816102e301526103c101526000818160ee0152818161097a01528181610a180152610a9701526119876000f3fe608060405234801561001057600080fd5b50600436106100a95760003560e01c80639926ee7d116100715780639926ee7d1461013f578063a364f4da14610152578063a98fb35514610165578063c4d66de814610178578063e481af9d1461018b578063f2fde38b1461019357600080fd5b80631b445516146100ae57806333cfb7b7146100c35780636b3aa72e146100ec578063715018a6146101265780638da5cb5b1461012e575b600080fd5b6100c16100bc36600461122d565b6101a6565b005b6100d66100d13660046112b7565b61042e565b6040516100e391906112db565b60405180910390f35b7f00000000000000000000000000000000000000000000000000000000000000005b6040516001600160a01b0390911681526020016100e3565b6100c16108fe565b6033546001600160a01b031661010e565b6100c161014d3660046113dd565b610912565b6100c16101603660046112b7565b6109b1565b6100c1610173366004611488565b610a78565b6100c16101863660046112b7565b610acc565b6100d6610bdf565b6100c16101a13660046112b7565b610fa9565b6101ae611022565b60005b818110156103a9578282828181106101cb576101cb6114d9565b90506020028101906101dd91906114ef565b6101ee9060408101906020016112b7565b6001600160a01b03166323b872dd3330868686818110610210576102106114d9565b905060200281019061022291906114ef565b604080516001600160e01b031960e087901b1681526001600160a01b039485166004820152939092166024840152013560448201526064016020604051808303816000875af1158015610279573d6000803e3d6000fd5b505050506040513d601f19601f8201168201806040525081019061029d919061151f565b508282828181106102b0576102b06114d9565b90506020028101906102c291906114ef565b6102d39060408101906020016112b7565b6001600160a01b031663095ea7b37f0000000000000000000000000000000000000000000000000000000000000000858585818110610314576103146114d9565b905060200281019061032691906114ef565b604080516001600160e01b031960e086901b1681526001600160a01b039093166004840152013560248201526044016020604051808303816000875af1158015610374573d6000803e3d6000fd5b505050506040513d601f19601f82011682018060405250810190610398919061151f565b506103a281611557565b90506101b1565b50604051630da22a8b60e11b81526001600160a01b037f00000000000000000000000000000000000000000000000000000000000000001690631b445516906103f8908590859060040161160b565b600060405180830381600087803b15801561041257600080fd5b505af1158015610426573d6000803e3d6000fd5b505050505050565b6040516309aa152760e11b81526001600160a01b0382811660048301526060916000917f000000000000000000000000000000000000000000000000000000000000000016906313542a4e90602401602060405180830381865afa15801561049a573d6000803e3d6000fd5b505050506040513d601f19601f820116820180604052508101906104be9190611719565b60405163871ef04960e01b8152600481018290529091506000906001600160a01b037f0000000000000000000000000000000000000000000000000000000000000000169063871ef04990602401602060405180830381865afa158015610529573d6000803e3d6000fd5b505050506040513d601f19601f8201168201806040525081019061054d9190611732565b90506001600160c01b03811615806105e757507f00000000000000000000000000000000000000000000000000000000000000006001600160a01b0316639aa1653d6040518163ffffffff1660e01b8152600401602060405180830381865afa1580156105be573d6000803e3d6000fd5b505050506040513d601f19601f820116820180604052508101906105e2919061175b565b60ff16155b1561060357505060408051600081526020810190915292915050565b6000610617826001600160c01b031661107c565b90506000805b82518110156106ed577f00000000000000000000000000000000000000000000000000000000000000006001600160a01b0316633ca5a5f5848381518110610667576106676114d9565b01602001516040516001600160e01b031960e084901b16815260f89190911c6004820152602401602060405180830381865afa1580156106ab573d6000803e3d6000fd5b505050506040513d601f19601f820116820180604052508101906106cf9190611719565b6106d9908361177e565b9150806106e581611557565b91505061061d565b5060008167ffffffffffffffff81111561070957610709611328565b604051908082528060200260200182016040528015610732578160200160208202803683370190505b5090506000805b84518110156108f1576000858281518110610756576107566114d9565b0160200151604051633ca5a5f560e01b815260f89190911c6004820181905291506000906001600160a01b037f00000000000000000000000000000000000000000000000000000000000000001690633ca5a5f590602401602060405180830381865afa1580156107cb573d6000803e3d6000fd5b505050506040513d601f19601f820116820180604052508101906107ef9190611719565b905060005b818110156108db576040516356e4026d60e11b815260ff84166004820152602481018290527f00000000000000000000000000000000000000000000000000000000000000006001600160a01b03169063adc804da906044016040805180830381865afa158015610869573d6000803e3d6000fd5b505050506040513d601f19601f8201168201806040525081019061088d9190611796565b600001518686815181106108a3576108a36114d9565b6001600160a01b0390921660209283029190910190910152846108c581611557565b95505080806108d390611557565b9150506107f4565b50505080806108e990611557565b915050610739565b5090979650505050505050565b610906611022565b610910600061113f565b565b336001600160a01b037f000000000000000000000000000000000000000000000000000000000000000016146109635760405162461bcd60e51b815260040161095a906117f5565b60405180910390fd5b604051639926ee7d60e01b81526001600160a01b037f00000000000000000000000000000000000000000000000000000000000000001690639926ee7d906103f890859085906004016118ba565b336001600160a01b037f000000000000000000000000000000000000000000000000000000000000000016146109f95760405162461bcd60e51b815260040161095a906117f5565b6040516351b27a6d60e11b81526001600160a01b0382811660048301527f0000000000000000000000000000000000000000000000000000000000000000169063a364f4da906024015b600060405180830381600087803b158015610a5d57600080fd5b505af1158015610a71573d6000803e3d6000fd5b5050505050565b610a80611022565b60405163a98fb35560e01b81526001600160a01b037f0000000000000000000000000000000000000000000000000000000000000000169063a98fb35590610a43908490600401611905565b600054610100900460ff1615808015610aec5750600054600160ff909116105b80610b065750303b158015610b06575060005460ff166001145b610b695760405162461bcd60e51b815260206004820152602e60248201527f496e697469616c697a61626c653a20636f6e747261637420697320616c72656160448201526d191e481a5b9a5d1a585b1a5e995960921b606482015260840161095a565b6000805460ff191660011790558015610b8c576000805461ff0019166101001790555b610b9582611191565b8015610bdb576000805461ff0019169055604051600181527f7f26b83ff96e1f2b6a682f133852f6798a09c465da95921460cefb38474024989060200160405180910390a15b5050565b606060007f00000000000000000000000000000000000000000000000000000000000000006001600160a01b0316639aa1653d6040518163ffffffff1660e01b8152600401602060405180830381865afa158015610c41573d6000803e3d6000fd5b505050506040513d601f19601f82011682018060405250810190610c65919061175b565b60ff16905080610c8357505060408051600081526020810190915290565b6000805b82811015610d3857604051633ca5a5f560e01b815260ff821660048201527f00000000000000000000000000000000000000000000000000000000000000006001600160a01b031690633ca5a5f590602401602060405180830381865afa158015610cf6573d6000803e3d6000fd5b505050506040513d601f19601f82011682018060405250810190610d1a9190611719565b610d24908361177e565b915080610d3081611557565b915050610c87565b5060008167ffffffffffffffff811115610d5457610d54611328565b604051908082528060200260200182016040528015610d7d578160200160208202803683370190505b5090506000805b7f00000000000000000000000000000000000000000000000000000000000000006001600160a01b0316639aa1653d6040518163ffffffff1660e01b8152600401602060405180830381865afa158015610de2573d6000803e3d6000fd5b505050506040513d601f19601f82011682018060405250810190610e06919061175b565b60ff16811015610f9f57604051633ca5a5f560e01b815260ff821660048201526000907f00000000000000000000000000000000000000000000000000000000000000006001600160a01b031690633ca5a5f590602401602060405180830381865afa158015610e7a573d6000803e3d6000fd5b505050506040513d601f19601f82011682018060405250810190610e9e9190611719565b905060005b81811015610f8a576040516356e4026d60e11b815260ff84166004820152602481018290527f00000000000000000000000000000000000000000000000000000000000000006001600160a01b03169063adc804da906044016040805180830381865afa158015610f18573d6000803e3d6000fd5b505050506040513d601f19601f82011682018060405250810190610f3c9190611796565b60000151858581518110610f5257610f526114d9565b6001600160a01b039092166020928302919091019091015283610f7481611557565b9450508080610f8290611557565b915050610ea3565b50508080610f9790611557565b915050610d84565b5090949350505050565b610fb1611022565b6001600160a01b0381166110165760405162461bcd60e51b815260206004820152602660248201527f4f776e61626c653a206e6577206f776e657220697320746865207a65726f206160448201526564647265737360d01b606482015260840161095a565b61101f8161113f565b50565b6033546001600160a01b031633146109105760405162461bcd60e51b815260206004820181905260248201527f4f776e61626c653a2063616c6c6572206973206e6f7420746865206f776e6572604482015260640161095a565b606060008061108a846111fc565b61ffff1667ffffffffffffffff8111156110a6576110a6611328565b6040519080825280601f01601f1916602001820160405280156110d0576020820181803683370190505b5090506000805b8251821080156110e8575061010081105b15610f9f576001811b93508584161561112f578060f81b838381518110611111576111116114d9565b60200101906001600160f81b031916908160001a9053508160010191505b61113881611557565b90506110d7565b603380546001600160a01b038381166001600160a01b0319831681179093556040519116919082907f8be0079c531659141344cd1fd0a4f28419497f9722a3daafe3b4186f6b6457e090600090a35050565b600054610100900460ff166110165760405162461bcd60e51b815260206004820152602b60248201527f496e697469616c697a61626c653a20636f6e7472616374206973206e6f74206960448201526a6e697469616c697a696e6760a81b606482015260840161095a565b6000805b821561122757611211600184611918565b909216918061121f8161192f565b915050611200565b92915050565b6000806020838503121561124057600080fd5b823567ffffffffffffffff8082111561125857600080fd5b818501915085601f83011261126c57600080fd5b81358181111561127b57600080fd5b8660208260051b850101111561129057600080fd5b60209290920196919550909350505050565b6001600160a01b038116811461101f57600080fd5b6000602082840312156112c957600080fd5b81356112d4816112a2565b9392505050565b6020808252825182820181905260009190848201906040850190845b8181101561131c5783516001600160a01b0316835292840192918401916001016112f7565b50909695505050505050565b634e487b7160e01b600052604160045260246000fd5b6040516060810167ffffffffffffffff8111828210171561136157611361611328565b60405290565b600067ffffffffffffffff8084111561138257611382611328565b604051601f8501601f19908116603f011681019082821181831017156113aa576113aa611328565b816040528093508581528686860111156113c357600080fd5b858560208301376000602087830101525050509392505050565b600080604083850312156113f057600080fd5b82356113fb816112a2565b9150602083013567ffffffffffffffff8082111561141857600080fd5b908401906060828703121561142c57600080fd5b61143461133e565b82358281111561144357600080fd5b83019150601f8201871361145657600080fd5b61146587833560208501611367565b815260208301356020820152604083013560408201528093505050509250929050565b60006020828403121561149a57600080fd5b813567ffffffffffffffff8111156114b157600080fd5b8201601f810184136114c257600080fd5b6114d184823560208401611367565b949350505050565b634e487b7160e01b600052603260045260246000fd5b60008235609e1983360301811261150557600080fd5b9190910192915050565b803561151a816112a2565b919050565b60006020828403121561153157600080fd5b815180151581146112d457600080fd5b634e487b7160e01b600052601160045260246000fd5b600060001982141561156b5761156b611541565b5060010190565b6bffffffffffffffffffffffff8116811461101f57600080fd5b8183526000602080850194508260005b858110156115ec5781356115af816112a2565b6001600160a01b03168752818301356115c781611572565b6bffffffffffffffffffffffff1687840152604096870196919091019060010161159c565b509495945050505050565b803563ffffffff8116811461151a57600080fd5b60208082528181018390526000906040808401600586901b8501820187855b8881101561170b57878303603f190184528135368b9003609e1901811261165057600080fd5b8a0160a0813536839003601e1901811261166957600080fd5b8201803567ffffffffffffffff81111561168257600080fd5b8060061b360384131561169457600080fd5b8287526116a6838801828c850161158c565b925050506116b588830161150f565b6001600160a01b031688860152818701358786015260606116d78184016115f7565b63ffffffff169086015260806116ee8382016115f7565b63ffffffff1695019490945250928501929085019060010161162a565b509098975050505050505050565b60006020828403121561172b57600080fd5b5051919050565b60006020828403121561174457600080fd5b81516001600160c01b03811681146112d457600080fd5b60006020828403121561176d57600080fd5b815160ff811681146112d457600080fd5b6000821982111561179157611791611541565b500190565b6000604082840312156117a857600080fd5b6040516040810181811067ffffffffffffffff821117156117cb576117cb611328565b60405282516117d9816112a2565b815260208301516117e981611572565b60208201529392505050565b60208082526052908201527f536572766963654d616e61676572426173652e6f6e6c7952656769737472794360408201527f6f6f7264696e61746f723a2063616c6c6572206973206e6f742074686520726560608201527133b4b9ba393c9031b7b7b93234b730ba37b960711b608082015260a00190565b6000815180845260005b8181101561189357602081850181015186830182015201611877565b818111156118a5576000602083870101525b50601f01601f19169290920160200192915050565b60018060a01b03831681526040602082015260008251606060408401526118e460a084018261186d565b90506020840151606084015260408401516080840152809150509392505050565b6020815260006112d4602083018461186d565b60008282101561192a5761192a611541565b500390565b600061ffff8083168181141561194757611947611541565b600101939250505056fea2646970667358221220bd087e05ef9989262640228e55651efba3ca7d9a1aa9d46094dfa48f7da0783364736f6c634300080c0033","linkReferences":{}},"methodIdentifiers":{"avsDirectory()":"6b3aa72e","deregisterOperatorFromAVS(address)":"a364f4da","getOperatorRestakedStrategies(address)":"33cfb7b7","getRestakeableStrategies()":"e481af9d","initialize(address)":"c4d66de8","owner()":"8da5cb5b","payForRange(((address,uint96)[],address,uint256,uint32,uint32)[])":"1b445516","registerOperatorToAVS(address,(bytes,bytes32,uint256))":"9926ee7d","renounceOwnership()":"715018a6","transferOwnership(address)":"f2fde38b","updateAVSMetadataURI(string)":"a98fb355"},"id":85}