{"abi":[{"type":"function","name":"DELEGATION_APPROVAL_TYPEHASH","inputs":[],"outputs":[{"name":"","type":"bytes32","internalType":"bytes32"}],"stateMutability":"view"},{"type":"function","name":"DOMAIN_TYPEHASH","inputs":[],"outputs":[{"name":"","type":"bytes32","internalType":"bytes32"}],"stateMutability":"view"},{"type":"function","name":"STAKER_DELEGATION_TYPEHASH","inputs":[],"outputs":[{"name":"","type":"bytes32","internalType":"bytes32"}],"stateMutability":"view"},{"type":"function","name":"addShares","inputs":[{"name":"strategyManager","type":"address","internalType":"contract IStrategyManager"},{"name":"staker","type":"address","internalType":"address"},{"name":"token","type":"address","internalType":"contract IERC20"},{"name":"strategy","type":"address","internalType":"contract IStrategy"},{"name":"shares","type":"uint256","internalType":"uint256"}],"outputs":[],"stateMutability":"nonpayable"},{"type":"function","name":"beaconChainETHStrategy","inputs":[],"outputs":[{"name":"","type":"address","internalType":"contract IStrategy"}],"stateMutability":"pure"},{"type":"function","name":"calculateApproverDigestHash","inputs":[{"name":"","type":"address","internalType":"address"},{"name":"","type":"address","internalType":"address"},{"name":"","type":"uint256","internalType":"uint256"}],"outputs":[{"name":"approverDigestHash","type":"bytes32","internalType":"bytes32"}],"stateMutability":"pure"},{"type":"function","name":"calculateCurrentStakerDelegationDigestHash","inputs":[{"name":"","type":"address","internalType":"address"},{"name":"","type":"address","internalType":"address"},{"name":"","type":"uint256","internalType":"uint256"}],"outputs":[{"name":"","type":"bytes32","internalType":"bytes32"}],"stateMutability":"view"},{"type":"function","name":"calculateDelegationApprovalDigestHash","inputs":[{"name":"","type":"address","internalType":"address"},{"name":"","type":"address","internalType":"address"},{"name":"","type":"address","internalType":"address"},{"name":"","type":"bytes32","internalType":"bytes32"},{"name":"","type":"uint256","internalType":"uint256"}],"outputs":[{"name":"","type":"bytes32","internalType":"bytes32"}],"stateMutability":"view"},{"type":"function","name":"calculateOperatorAVSRegistrationDigestHash","inputs":[{"name":"","type":"address","internalType":"address"},{"name":"","type":"address","internalType":"address"},{"name":"","type":"bytes32","internalType":"bytes32"},{"name":"","type":"uint256","internalType":"uint256"}],"outputs":[{"name":"digestHash","type":"bytes32","internalType":"bytes32"}],"stateMutability":"pure"},{"type":"function","name":"calculateStakerDelegationDigestHash","inputs":[{"name":"","type":"address","internalType":"address"},{"name":"","type":"uint256","internalType":"uint256"},{"name":"","type":"address","internalType":"address"},{"name":"","type":"uint256","internalType":"uint256"}],"outputs":[{"name":"","type":"bytes32","internalType":"bytes32"}],"stateMutability":"view"},{"type":"function","name":"calculateStakerDigestHash","inputs":[{"name":"","type":"address","internalType":"address"},{"name":"","type":"address","internalType":"address"},{"name":"","type":"uint256","internalType":"uint256"}],"outputs":[{"name":"stakerDigestHash","type":"bytes32","internalType":"bytes32"}],"stateMutability":"pure"},{"type":"function","name":"calculateWithdrawalRoot","inputs":[{"name":"withdrawal","type":"tuple","internalType":"struct IDelegationManager.Withdrawal","components":[{"name":"staker","type":"address","internalType":"address"},{"name":"delegatedTo","type":"address","internalType":"address"},{"name":"withdrawer","type":"address","internalType":"address"},{"name":"nonce","type":"uint256","internalType":"uint256"},{"name":"startBlock","type":"uint32","internalType":"uint32"},{"name":"strategies","type":"address[]","internalType":"contract IStrategy[]"},{"name":"shares","type":"uint256[]","internalType":"uint256[]"}]}],"outputs":[{"name":"","type":"bytes32","internalType":"bytes32"}],"stateMutability":"pure"},{"type":"function","name":"completeQueuedWithdrawal","inputs":[{"name":"withdrawal","type":"tuple","internalType":"struct IDelegationManager.Withdrawal","components":[{"name":"staker","type":"address","internalType":"address"},{"name":"delegatedTo","type":"address","internalType":"address"},{"name":"withdrawer","type":"address","internalType":"address"},{"name":"nonce","type":"uint256","internalType":"uint256"},{"name":"startBlock","type":"uint32","internalType":"uint32"},{"name":"strategies","type":"address[]","internalType":"contract IStrategy[]"},{"name":"shares","type":"uint256[]","internalType":"uint256[]"}]},{"name":"tokens","type":"address[]","internalType":"contract IERC20[]"},{"name":"middlewareTimesIndex","type":"uint256","internalType":"uint256"},{"name":"receiveAsTokens","type":"bool","internalType":"bool"}],"outputs":[],"stateMutability":"nonpayable"},{"type":"function","name":"completeQueuedWithdrawals","inputs":[{"name":"withdrawals","type":"tuple[]","internalType":"struct IDelegationManager.Withdrawal[]","components":[{"name":"staker","type":"address","internalType":"address"},{"name":"delegatedTo","type":"address","internalType":"address"},{"name":"withdrawer","type":"address","internalType":"address"},{"name":"nonce","type":"uint256","internalType":"uint256"},{"name":"startBlock","type":"uint32","internalType":"uint32"},{"name":"strategies","type":"address[]","internalType":"contract IStrategy[]"},{"name":"shares","type":"uint256[]","internalType":"uint256[]"}]},{"name":"tokens","type":"address[][]","internalType":"contract IERC20[][]"},{"name":"middlewareTimesIndexes","type":"uint256[]","internalType":"uint256[]"},{"name":"receiveAsTokens","type":"bool[]","internalType":"bool[]"}],"outputs":[],"stateMutability":"nonpayable"},{"type":"function","name":"cumulativeWithdrawalsQueued","inputs":[{"name":"staker","type":"address","internalType":"address"}],"outputs":[{"name":"","type":"uint256","internalType":"uint256"}],"stateMutability":"view"},{"type":"function","name":"decreaseDelegatedShares","inputs":[{"name":"","type":"address","internalType":"address"},{"name":"","type":"address","internalType":"contract IStrategy"},{"name":"","type":"uint256","internalType":"uint256"}],"outputs":[],"stateMutability":"pure"},{"type":"function","name":"delegateTo","inputs":[{"name":"operator","type":"address","internalType":"address"},{"name":"","type":"tuple","internalType":"struct ISignatureUtils.SignatureWithExpiry","components":[{"name":"signature","type":"bytes","internalType":"bytes"},{"name":"expiry","type":"uint256","internalType":"uint256"}]},{"name":"","type":"bytes32","internalType":"bytes32"}],"outputs":[],"stateMutability":"nonpayable"},{"type":"function","name":"delegateToBySignature","inputs":[{"name":"","type":"address","internalType":"address"},{"name":"","type":"address","internalType":"address"},{"name":"","type":"tuple","internalType":"struct ISignatureUtils.SignatureWithExpiry","components":[{"name":"signature","type":"bytes","internalType":"bytes"},{"name":"expiry","type":"uint256","internalType":"uint256"}]},{"name":"","type":"tuple","internalType":"struct ISignatureUtils.SignatureWithExpiry","components":[{"name":"signature","type":"bytes","internalType":"bytes"},{"name":"expiry","type":"uint256","internalType":"uint256"}]},{"name":"","type":"bytes32","internalType":"bytes32"}],"outputs":[],"stateMutability":"pure"},{"type":"function","name":"delegatedTo","inputs":[{"name":"","type":"address","internalType":"address"}],"outputs":[{"name":"","type":"address","internalType":"address"}],"stateMutability":"view"},{"type":"function","name":"delegationApprover","inputs":[{"name":"operator","type":"address","internalType":"address"}],"outputs":[{"name":"","type":"address","internalType":"address"}],"stateMutability":"pure"},{"type":"function","name":"delegationApproverSaltIsSpent","inputs":[{"name":"","type":"address","internalType":"address"},{"name":"","type":"bytes32","internalType":"bytes32"}],"outputs":[{"name":"","type":"bool","internalType":"bool"}],"stateMutability":"pure"},{"type":"function","name":"domainSeparator","inputs":[],"outputs":[{"name":"","type":"bytes32","internalType":"bytes32"}],"stateMutability":"view"},{"type":"function","name":"earningsReceiver","inputs":[{"name":"operator","type":"address","internalType":"address"}],"outputs":[{"name":"","type":"address","internalType":"address"}],"stateMutability":"pure"},{"type":"function","name":"getOperatorShares","inputs":[{"name":"operator","type":"address","internalType":"address"},{"name":"strategies","type":"address[]","internalType":"contract IStrategy[]"}],"outputs":[{"name":"","type":"uint256[]","internalType":"uint256[]"}],"stateMutability":"view"},{"type":"function","name":"getWithdrawalDelay","inputs":[{"name":"","type":"address[]","internalType":"contract IStrategy[]"}],"outputs":[{"name":"","type":"uint256","internalType":"uint256"}],"stateMutability":"view"},{"type":"function","name":"increaseDelegatedShares","inputs":[{"name":"","type":"address","internalType":"address"},{"name":"","type":"address","internalType":"contract IStrategy"},{"name":"","type":"uint256","internalType":"uint256"}],"outputs":[],"stateMutability":"pure"},{"type":"function","name":"isDelegated","inputs":[{"name":"staker","type":"address","internalType":"address"}],"outputs":[{"name":"","type":"bool","internalType":"bool"}],"stateMutability":"view"},{"type":"function","name":"isNotDelegated","inputs":[{"name":"","type":"address","internalType":"address"}],"outputs":[{"name":"","type":"bool","internalType":"bool"}],"stateMutability":"pure"},{"type":"function","name":"isOperator","inputs":[{"name":"","type":"address","internalType":"address"}],"outputs":[{"name":"","type":"bool","internalType":"bool"}],"stateMutability":"view"},{"type":"function","name":"migrateQueuedWithdrawals","inputs":[{"name":"withdrawalsToQueue","type":"tuple[]","internalType":"struct IStrategyManager.DeprecatedStruct_QueuedWithdrawal[]","components":[{"name":"strategies","type":"address[]","internalType":"contract IStrategy[]"},{"name":"shares","type":"uint256[]","internalType":"uint256[]"},{"name":"staker","type":"address","internalType":"address"},{"name":"withdrawerAndNonce","type":"tuple","internalType":"struct IStrategyManager.DeprecatedStruct_WithdrawerAndNonce","components":[{"name":"withdrawer","type":"address","internalType":"address"},{"name":"nonce","type":"uint96","internalType":"uint96"}]},{"name":"withdrawalStartBlock","type":"uint32","internalType":"uint32"},{"name":"delegatedAddress","type":"address","internalType":"address"}]}],"outputs":[],"stateMutability":"nonpayable"},{"type":"function","name":"minWithdrawalDelayBlocks","inputs":[],"outputs":[{"name":"","type":"uint256","internalType":"uint256"}],"stateMutability":"view"},{"type":"function","name":"modifyOperatorDetails","inputs":[{"name":"","type":"tuple","internalType":"struct IDelegationManager.OperatorDetails","components":[{"name":"earningsReceiver","type":"address","internalType":"address"},{"name":"delegationApprover","type":"address","internalType":"address"},{"name":"stakerOptOutWindowBlocks","type":"uint32","internalType":"uint32"}]}],"outputs":[],"stateMutability":"pure"},{"type":"function","name":"operatorDetails","inputs":[{"name":"operator","type":"address","internalType":"address"}],"outputs":[{"name":"","type":"tuple","internalType":"struct IDelegationManager.OperatorDetails","components":[{"name":"earningsReceiver","type":"address","internalType":"address"},{"name":"delegationApprover","type":"address","internalType":"address"},{"name":"stakerOptOutWindowBlocks","type":"uint32","internalType":"uint32"}]}],"stateMutability":"pure"},{"type":"function","name":"operatorSaltIsSpent","inputs":[{"name":"avs","type":"address","internalType":"address"},{"name":"salt","type":"bytes32","internalType":"bytes32"}],"outputs":[{"name":"","type":"bool","internalType":"bool"}],"stateMutability":"view"},{"type":"function","name":"operatorShares","inputs":[{"name":"","type":"address","internalType":"address"},{"name":"","type":"address","internalType":"contract IStrategy"}],"outputs":[{"name":"","type":"uint256","internalType":"uint256"}],"stateMutability":"view"},{"type":"function","name":"queueWithdrawals","inputs":[{"name":"queuedWithdrawalParams","type":"tuple[]","internalType":"struct IDelegationManager.QueuedWithdrawalParams[]","components":[{"name":"strategies","type":"address[]","internalType":"contract IStrategy[]"},{"name":"shares","type":"uint256[]","internalType":"uint256[]"},{"name":"withdrawer","type":"address","internalType":"address"}]}],"outputs":[{"name":"","type":"bytes32[]","internalType":"bytes32[]"}],"stateMutability":"nonpayable"},{"type":"function","name":"registerAsOperator","inputs":[{"name":"","type":"tuple","internalType":"struct IDelegationManager.OperatorDetails","components":[{"name":"earningsReceiver","type":"address","internalType":"address"},{"name":"delegationApprover","type":"address","internalType":"address"},{"name":"stakerOptOutWindowBlocks","type":"uint32","internalType":"uint32"}]},{"name":"","type":"string","internalType":"string"}],"outputs":[],"stateMutability":"pure"},{"type":"function","name":"removeShares","inputs":[{"name":"strategyManager","type":"address","internalType":"contract IStrategyManager"},{"name":"staker","type":"address","internalType":"address"},{"name":"strategy","type":"address","internalType":"contract IStrategy"},{"name":"shares","type":"uint256","internalType":"uint256"}],"outputs":[],"stateMutability":"nonpayable"},{"type":"function","name":"setIsOperator","inputs":[{"name":"operator","type":"address","internalType":"address"},{"name":"_isOperatorReturnValue","type":"bool","internalType":"bool"}],"outputs":[],"stateMutability":"nonpayable"},{"type":"function","name":"setOperatorShares","inputs":[{"name":"operator","type":"address","internalType":"address"},{"name":"strategy","type":"address","internalType":"contract IStrategy"},{"name":"shares","type":"uint256","internalType":"uint256"}],"outputs":[],"stateMutability":"nonpayable"},{"type":"function","name":"stakerNonce","inputs":[{"name":"","type":"address","internalType":"address"}],"outputs":[{"name":"","type":"uint256","internalType":"uint256"}],"stateMutability":"pure"},{"type":"function","name":"stakerOptOutWindowBlocks","inputs":[{"name":"","type":"address","internalType":"address"}],"outputs":[{"name":"","type":"uint256","internalType":"uint256"}],"stateMutability":"pure"},{"type":"function","name":"strategyWithdrawalDelayBlocks","inputs":[{"name":"","type":"address","internalType":"contract IStrategy"}],"outputs":[{"name":"","type":"uint256","internalType":"uint256"}],"stateMutability":"view"},{"type":"function","name":"undelegate","inputs":[{"name":"staker","type":"address","internalType":"address"}],"outputs":[{"name":"withdrawalRoot","type":"bytes32[]","internalType":"bytes32[]"}],"stateMutability":"nonpayable"},{"type":"function","name":"updateAVSMetadataURI","inputs":[{"name":"","type":"string","internalType":"string"}],"outputs":[],"stateMutability":"pure"},{"type":"function","name":"updateOperatorMetadataURI","inputs":[{"name":"","type":"string","internalType":"string"}],"outputs":[],"stateMutability":"pure"},{"type":"function","name":"withdrawSharesAsTokens","inputs":[{"name":"strategyManager","type":"address","internalType":"contract IStrategyManager"},{"name":"recipient","type":"address","internalType":"address"},{"name":"strategy","type":"address","internalType":"contract IStrategy"},{"name":"shares","type":"uint256","internalType":"uint256"},{"name":"token","type":"address","internalType":"contract IERC20"}],"outputs":[],"stateMutability":"nonpayable"},{"type":"event","name":"MinWithdrawalDelayBlocksSet","inputs":[{"name":"previousValue","type":"uint256","indexed":false,"internalType":"uint256"},{"name":"newValue","type":"uint256","indexed":false,"internalType":"uint256"}],"anonymous":false},{"type":"event","name":"OperatorDetailsModified","inputs":[{"name":"operator","type":"address","indexed":true,"internalType":"address"},{"name":"newOperatorDetails","type":"tuple","indexed":false,"internalType":"struct IDelegationManager.OperatorDetails","components":[{"name":"earningsReceiver","type":"address","internalType":"address"},{"name":"delegationApprover","type":"address","internalType":"address"},{"name":"stakerOptOutWindowBlocks","type":"uint32","internalType":"uint32"}]}],"anonymous":false},{"type":"event","name":"OperatorMetadataURIUpdated","inputs":[{"name":"operator","type":"address","indexed":true,"internalType":"address"},{"name":"metadataURI","type":"string","indexed":false,"internalType":"string"}],"anonymous":false},{"type":"event","name":"OperatorRegistered","inputs":[{"name":"operator","type":"address","indexed":true,"internalType":"address"},{"name":"operatorDetails","type":"tuple","indexed":false,"internalType":"struct IDelegationManager.OperatorDetails","components":[{"name":"earningsReceiver","type":"address","internalType":"address"},{"name":"delegationApprover","type":"address","internalType":"address"},{"name":"stakerOptOutWindowBlocks","type":"uint32","internalType":"uint32"}]}],"anonymous":false},{"type":"event","name":"OperatorSharesDecreased","inputs":[{"name":"operator","type":"address","indexed":true,"internalType":"address"},{"name":"staker","type":"address","indexed":false,"internalType":"address"},{"name":"strategy","type":"address","indexed":false,"internalType":"contract IStrategy"},{"name":"shares","type":"uint256","indexed":false,"internalType":"uint256"}],"anonymous":false},{"type":"event","name":"OperatorSharesIncreased","inputs":[{"name":"operator","type":"address","indexed":true,"internalType":"address"},{"name":"staker","type":"address","indexed":false,"internalType":"address"},{"name":"strategy","type":"address","indexed":false,"internalType":"contract IStrategy"},{"name":"shares","type":"uint256","indexed":false,"internalType":"uint256"}],"anonymous":false},{"type":"event","name":"StakerDelegated","inputs":[{"name":"staker","type":"address","indexed":true,"internalType":"address"},{"name":"operator","type":"address","indexed":true,"internalType":"address"}],"anonymous":false},{"type":"event","name":"StakerForceUndelegated","inputs":[{"name":"staker","type":"address","indexed":true,"internalType":"address"},{"name":"operator","type":"address","indexed":true,"internalType":"address"}],"anonymous":false},{"type":"event","name":"StakerUndelegated","inputs":[{"name":"staker","type":"address","indexed":true,"internalType":"address"},{"name":"operator","type":"address","indexed":true,"internalType":"address"}],"anonymous":false},{"type":"event","name":"StrategyWithdrawalDelayBlocksSet","inputs":[{"name":"strategy","type":"address","indexed":false,"internalType":"contract IStrategy"},{"name":"previousValue","type":"uint256","indexed":false,"internalType":"uint256"},{"name":"newValue","type":"uint256","indexed":false,"internalType":"uint256"}],"anonymous":false},{"type":"event","name":"WithdrawalCompleted","inputs":[{"name":"withdrawalRoot","type":"bytes32","indexed":false,"internalType":"bytes32"}],"anonymous":false},{"type":"event","name":"WithdrawalMigrated","inputs":[{"name":"oldWithdrawalRoot","type":"bytes32","indexed":false,"internalType":"bytes32"},{"name":"newWithdrawalRoot","type":"bytes32","indexed":false,"internalType":"bytes32"}],"anonymous":false},{"type":"event","name":"WithdrawalQueued","inputs":[{"name":"withdrawalRoot","type":"bytes32","indexed":false,"internalType":"bytes32"},{"name":"withdrawal","type":"tuple","indexed":false,"internalType":"struct IDelegationManager.Withdrawal","components":[{"name":"staker","type":"address","internalType":"address"},{"name":"delegatedTo","type":"address","internalType":"address"},{"name":"withdrawer","type":"address","internalType":"address"},{"name":"nonce","type":"uint256","internalType":"uint256"},{"name":"startBlock","type":"uint32","internalType":"uint32"},{"name":"strategies","type":"address[]","internalType":"contract IStrategy[]"},{"name":"shares","type":"uint256[]","internalType":"uint256[]"}]}],"anonymous":false}],"bytecode":{"object":"0x608060405234801561001057600080fd5b50611596806100206000396000f3fe608060405234801561001057600080fd5b50600436106102955760003560e01c80636d70f7ae11610167578063bb45fef2116100ce578063cbb5d4db11610087578063cbb5d4db146105c3578063da8be864146105fc578063dbe35bd814610634578063eea9064b1461066e578063f16172b0146106ad578063f698da25146102c357600080fd5b8063bb45fef21461038a578063bc56ff6614610512578063c448feb814610525578063c488375a14610329578063c5e480db1461052d578063c94b5111146105b557600080fd5b80639104c319116101205780639104c319146104e1578063965682711461033d57806399be81c8146104e8578063a1060c88146104fa578063a178848414610329578063a98fb355146104e857600080fd5b80636d70f7ae1461045f57806374d898d71461033d578063778e55f3146104825780637f548071146104ad5780638d90cd56146104bb57806390041347146104ce57600080fd5b806329c77d4f1161020b578063597b36da116101c4578063597b36da146103ef5780635cfe8d2c146103fd5780635f966f141461039857806360d7faed1461040e57806365da12641461042357806367f292c71461044c57600080fd5b806329c77d4f146103295780633340439614610372578063374823b51461038a5780633cdeb5e0146103985780633e28391d146103c157806343377382146102c357600080fd5b8063132d49671161025d578063132d49671461031b57806316928365146103295780631bbce0911461033d5780631d3696b71461035457806320606b70146102c357806328a573ae1461031b57600080fd5b80630449ca391461029a57806304a4f979146102c35780630b9f487a146102ca5780630dd8dd02146102e35780630f589e5914610306575b600080fd5b6102b06102a836600461090d565b600092915050565b6040519081526020015b60405180910390f35b60006102b0565b6102b06102d8366004610973565b600095945050505050565b6102f96102f136600461090d565b606092915050565b6040516102ba91906109ce565b610319610314366004610a6b565b505050565b005b610319610314366004610abe565b6102b0610337366004610aff565b50600090565b6102b061034b366004610abe565b60009392505050565b610362610337366004610aff565b60405190151581526020016102ba565b610319610380366004610b23565b5050505050505050565b6103626102a8366004610be6565b6103a96103a6366004610aff565b90565b6040516001600160a01b0390911681526020016102ba565b6103626103cf366004610aff565b6001600160a01b0390811660009081526002602052604090205416151590565b6102b0610337366004610dca565b61031961040b366004610efb565b50565b61031961041c36600461105d565b5050505050565b6103a9610431366004610aff565b6002602052600090815260409020546001600160a01b031681565b61031961045a3660046110e8565b6106bb565b61036261046d366004610aff565b60006020819052908152604090205460ff1681565b6102b0610490366004611150565b600160209081526000928352604080842090915290825290205481565b61031961041c366004611231565b6103196104c93660046112c1565b610735565b6102f96104dc366004611312565b61079b565b60006103a9565b6103196104f6366004611361565b5050565b6102b0610508366004611396565b6000949350505050565b6103196105203660046113dc565b61087d565b61c4e06102b0565b61057f61053b366004610aff565b604080516060810182526000808252602082018190529181019190915250604080516060810182526001600160a01b03909216808352602083015260009082015290565b6040805182516001600160a01b039081168252602080850151909116908201529181015163ffffffff16908201526060016102ba565b6102b0610508366004611440565b6103196105d1366004611478565b6001600160a01b03919091166000908152602081905260409020805460ff1916911515919091179055565b6102f961060a366004610aff565b6001600160a01b0316600090815260026020526040902080546001600160a01b0319169055606090565b610319610642366004610abe565b6001600160a01b0392831660009081526001602090815260408083209490951682529290925291902055565b61031961067c3660046114ad565b505033600090815260026020526040902080546001600160a01b0319166001600160a01b0392909216919091179055565b61031961040b366004611505565b60405163c608c7f360e01b81526001600160a01b038581166004830152848116602483015260448201849052828116606483015286169063c608c7f3906084015b600060405180830381600087803b15801561071657600080fd5b505af115801561072a573d6000803e3d6000fd5b505050505050505050565b604051638c80d4e560e01b81526001600160a01b038481166004830152838116602483015260448201839052851690638c80d4e590606401600060405180830381600087803b15801561078757600080fd5b505af1158015610380573d6000803e3d6000fd5b6060600082516001600160401b038111156107b8576107b8610c12565b6040519080825280602002602001820160405280156107e1578160200160208202803683370190505b50905060005b8351811015610875576001600160a01b0385166000908152600160205260408120855190919086908490811061081f5761081f611521565b60200260200101516001600160a01b03166001600160a01b031681526020019081526020016000205482828151811061085a5761085a611521565b602090810291909101015261086e81611537565b90506107e7565b509392505050565b60405163c4623ea160e01b81526001600160a01b038581166004830152848116602483015283811660448301526064820183905286169063c4623ea1906084016106fc565b60008083601f8401126108d457600080fd5b5081356001600160401b038111156108eb57600080fd5b6020830191508360208260051b850101111561090657600080fd5b9250929050565b6000806020838503121561092057600080fd5b82356001600160401b0381111561093657600080fd5b610942858286016108c2565b90969095509350505050565b6001600160a01b038116811461040b57600080fd5b803561096e8161094e565b919050565b600080600080600060a0868803121561098b57600080fd5b85356109968161094e565b945060208601356109a68161094e565b935060408601356109b68161094e565b94979396509394606081013594506080013592915050565b6020808252825182820181905260009190848201906040850190845b81811015610a06578351835292840192918401916001016109ea565b50909695505050505050565b600060608284031215610a2457600080fd5b50919050565b60008083601f840112610a3c57600080fd5b5081356001600160401b03811115610a5357600080fd5b60208301915083602082850101111561090657600080fd5b600080600060808486031215610a8057600080fd5b610a8a8585610a12565b925060608401356001600160401b03811115610aa557600080fd5b610ab186828701610a2a565b9497909650939450505050565b600080600060608486031215610ad357600080fd5b8335610ade8161094e565b92506020840135610aee8161094e565b929592945050506040919091013590565b600060208284031215610b1157600080fd5b8135610b1c8161094e565b9392505050565b6000806000806000806000806080898b031215610b3f57600080fd5b88356001600160401b0380821115610b5657600080fd5b610b628c838d016108c2565b909a50985060208b0135915080821115610b7b57600080fd5b610b878c838d016108c2565b909850965060408b0135915080821115610ba057600080fd5b610bac8c838d016108c2565b909650945060608b0135915080821115610bc557600080fd5b50610bd28b828c016108c2565b999c989b5096995094979396929594505050565b60008060408385031215610bf957600080fd5b8235610c048161094e565b946020939093013593505050565b634e487b7160e01b600052604160045260246000fd5b60405160e081016001600160401b0381118282101715610c4a57610c4a610c12565b60405290565b604080519081016001600160401b0381118282101715610c4a57610c4a610c12565b60405160c081016001600160401b0381118282101715610c4a57610c4a610c12565b604051601f8201601f191681016001600160401b0381118282101715610cbc57610cbc610c12565b604052919050565b803563ffffffff8116811461096e57600080fd5b60006001600160401b03821115610cf157610cf1610c12565b5060051b60200190565b600082601f830112610d0c57600080fd5b81356020610d21610d1c83610cd8565b610c94565b82815260059290921b84018101918181019086841115610d4057600080fd5b8286015b84811015610d64578035610d578161094e565b8352918301918301610d44565b509695505050505050565b600082601f830112610d8057600080fd5b81356020610d90610d1c83610cd8565b82815260059290921b84018101918181019086841115610daf57600080fd5b8286015b84811015610d645780358352918301918301610db3565b600060208284031215610ddc57600080fd5b81356001600160401b0380821115610df357600080fd5b9083019060e08286031215610e0757600080fd5b610e0f610c28565b610e1883610963565b8152610e2660208401610963565b6020820152610e3760408401610963565b604082015260608301356060820152610e5260808401610cc4565b608082015260a083013582811115610e6957600080fd5b610e7587828601610cfb565b60a08301525060c083013582811115610e8d57600080fd5b610e9987828601610d6f565b60c08301525095945050505050565b600060408284031215610eba57600080fd5b610ec2610c50565b90508135610ecf8161094e565b815260208201356bffffffffffffffffffffffff81168114610ef057600080fd5b602082015292915050565b60006020808385031215610f0e57600080fd5b82356001600160401b0380821115610f2557600080fd5b818501915085601f830112610f3957600080fd5b8135610f47610d1c82610cd8565b81815260059190911b83018401908481019088831115610f6657600080fd5b8585015b8381101561104057803585811115610f825760008081fd5b860160e0818c03601f1901811315610f9a5760008081fd5b610fa2610c72565b8983013588811115610fb45760008081fd5b610fc28e8c83870101610cfb565b82525060408084013589811115610fd95760008081fd5b610fe78f8d83880101610d6f565b8c840152506060610ff9818601610963565b828401526080915061100d8f838701610ea8565b9083015261101d60c08501610cc4565b9082015261102c838301610963565b60a082015285525050918601918601610f6a565b5098975050505050505050565b8035801515811461096e57600080fd5b60008060008060006080868803121561107557600080fd5b85356001600160401b038082111561108c57600080fd5b9087019060e0828a0312156110a057600080fd5b909550602087013590808211156110b657600080fd5b506110c3888289016108c2565b909550935050604086013591506110dc6060870161104d565b90509295509295909350565b600080600080600060a0868803121561110057600080fd5b853561110b8161094e565b9450602086013561111b8161094e565b9350604086013561112b8161094e565b92506060860135915060808601356111428161094e565b809150509295509295909350565b6000806040838503121561116357600080fd5b823561116e8161094e565b9150602083013561117e8161094e565b809150509250929050565b60006040828403121561119b57600080fd5b6111a3610c50565b905081356001600160401b03808211156111bc57600080fd5b818401915084601f8301126111d057600080fd5b81356020828211156111e4576111e4610c12565b6111f6601f8301601f19168201610c94565b9250818352868183860101111561120c57600080fd5b8181850182850137600081838501015282855280860135818601525050505092915050565b600080600080600060a0868803121561124957600080fd5b85356112548161094e565b945060208601356112648161094e565b935060408601356001600160401b038082111561128057600080fd5b61128c89838a01611189565b945060608801359150808211156112a257600080fd5b506112af88828901611189565b95989497509295608001359392505050565b600080600080608085870312156112d757600080fd5b84356112e28161094e565b935060208501356112f28161094e565b925060408501356113028161094e565b9396929550929360600135925050565b6000806040838503121561132557600080fd5b82356113308161094e565b915060208301356001600160401b0381111561134b57600080fd5b61135785828601610cfb565b9150509250929050565b6000806020838503121561137457600080fd5b82356001600160401b0381111561138a57600080fd5b61094285828601610a2a565b600080600080608085870312156113ac57600080fd5b84356113b78161094e565b935060208501356113c78161094e565b93969395505050506040820135916060013590565b600080600080600060a086880312156113f457600080fd5b85356113ff8161094e565b9450602086013561140f8161094e565b9350604086013561141f8161094e565b9250606086013561142f8161094e565b949793965091946080013592915050565b6000806000806080858703121561145657600080fd5b84356114618161094e565b93506020850135925060408501356113028161094e565b6000806040838503121561148b57600080fd5b82356114968161094e565b91506114a46020840161104d565b90509250929050565b6000806000606084860312156114c257600080fd5b83356114cd8161094e565b925060208401356001600160401b038111156114e857600080fd5b6114f486828701611189565b925050604084013590509250925092565b60006060828403121561151757600080fd5b610b1c8383610a12565b634e487b7160e01b600052603260045260246000fd5b600060001982141561155957634e487b7160e01b600052601160045260246000fd5b506001019056fea2646970667358221220a705bb0d32286ffa4e438b801430f7daa6a23655b1ed8beafc167ce242bcc2ab64736f6c634300080c0033","linkReferences":{}},"methodIdentifiers":{"DELEGATION_APPROVAL_TYPEHASH()":"04a4f979","DOMAIN_TYPEHASH()":"20606b70","STAKER_DELEGATION_TYPEHASH()":"43377382","addShares(address,address,address,address,uint256)":"bc56ff66","beaconChainETHStrategy()":"9104c319","calculateApproverDigestHash(address,address,uint256)":"74d898d7","calculateCurrentStakerDelegationDigestHash(address,address,uint256)":"1bbce091","calculateDelegationApprovalDigestHash(address,address,address,bytes32,uint256)":"0b9f487a","calculateOperatorAVSRegistrationDigestHash(address,address,bytes32,uint256)":"a1060c88","calculateStakerDelegationDigestHash(address,uint256,address,uint256)":"c94b5111","calculateStakerDigestHash(address,address,uint256)":"96568271","calculateWithdrawalRoot((address,address,address,uint256,uint32,address[],uint256[]))":"597b36da","completeQueuedWithdrawal((address,address,address,uint256,uint32,address[],uint256[]),address[],uint256,bool)":"60d7faed","completeQueuedWithdrawals((address,address,address,uint256,uint32,address[],uint256[])[],address[][],uint256[],bool[])":"33404396","cumulativeWithdrawalsQueued(address)":"a1788484","decreaseDelegatedShares(address,address,uint256)":"132d4967","delegateTo(address,(bytes,uint256),bytes32)":"eea9064b","delegateToBySignature(address,address,(bytes,uint256),(bytes,uint256),bytes32)":"7f548071","delegatedTo(address)":"65da1264","delegationApprover(address)":"3cdeb5e0","delegationApproverSaltIsSpent(address,bytes32)":"bb45fef2","domainSeparator()":"f698da25","earningsReceiver(address)":"5f966f14","getOperatorShares(address,address[])":"90041347","getWithdrawalDelay(address[])":"0449ca39","increaseDelegatedShares(address,address,uint256)":"28a573ae","isDelegated(address)":"3e28391d","isNotDelegated(address)":"1d3696b7","isOperator(address)":"6d70f7ae","migrateQueuedWithdrawals((address[],uint256[],address,(address,uint96),uint32,address)[])":"5cfe8d2c","minWithdrawalDelayBlocks()":"c448feb8","modifyOperatorDetails((address,address,uint32))":"f16172b0","operatorDetails(address)":"c5e480db","operatorSaltIsSpent(address,bytes32)":"374823b5","operatorShares(address,address)":"778e55f3","queueWithdrawals((address[],uint256[],address)[])":"0dd8dd02","registerAsOperator((address,address,uint32),string)":"0f589e59","removeShares(address,address,address,uint256)":"8d90cd56","setIsOperator(address,bool)":"cbb5d4db","setOperatorShares(address,address,uint256)":"dbe35bd8","stakerNonce(address)":"29c77d4f","stakerOptOutWindowBlocks(address)":"16928365","strategyWithdrawalDelayBlocks(address)":"c488375a","undelegate(address)":"da8be864","updateAVSMetadataURI(string)":"a98fb355","updateOperatorMetadataURI(string)":"99be81c8","withdrawSharesAsTokens(address,address,address,uint256,address)":"67f292c7"},"id":83}