{"abi":[{"type":"constructor","inputs":[{"name":"_registryCoordinator","type":"address","internalType":"contract IRegistryCoordinator"}],"stateMutability":"nonpayable"},{"type":"function","name":"blsApkRegistry","inputs":[],"outputs":[{"name":"","type":"address","internalType":"contract IBLSApkRegistry"}],"stateMutability":"view"},{"type":"function","name":"checkSignatures","inputs":[{"name":"msgHash","type":"bytes32","internalType":"bytes32"},{"name":"quorumNumbers","type":"bytes","internalType":"bytes"},{"name":"referenceBlockNumber","type":"uint32","internalType":"uint32"},{"name":"params","type":"tuple","internalType":"struct IBLSSignatureChecker.NonSignerStakesAndSignature","components":[{"name":"nonSignerQuorumBitmapIndices","type":"uint32[]","internalType":"uint32[]"},{"name":"nonSignerPubkeys","type":"tuple[]","internalType":"struct BN254.G1Point[]","components":[{"name":"X","type":"uint256","internalType":"uint256"},{"name":"Y","type":"uint256","internalType":"uint256"}]},{"name":"quorumApks","type":"tuple[]","internalType":"struct BN254.G1Point[]","components":[{"name":"X","type":"uint256","internalType":"uint256"},{"name":"Y","type":"uint256","internalType":"uint256"}]},{"name":"apkG2","type":"tuple","internalType":"struct BN254.G2Point","components":[{"name":"X","type":"uint256[2]","internalType":"uint256[2]"},{"name":"Y","type":"uint256[2]","internalType":"uint256[2]"}]},{"name":"sigma","type":"tuple","internalType":"struct BN254.G1Point","components":[{"name":"X","type":"uint256","internalType":"uint256"},{"name":"Y","type":"uint256","internalType":"uint256"}]},{"name":"quorumApkIndices","type":"uint32[]","internalType":"uint32[]"},{"name":"totalStakeIndices","type":"uint32[]","internalType":"uint32[]"},{"name":"nonSignerStakeIndices","type":"uint32[][]","internalType":"uint32[][]"}]}],"outputs":[{"name":"","type":"tuple","internalType":"struct IBLSSignatureChecker.QuorumStakeTotals","components":[{"name":"signedStakeForQuorum","type":"uint96[]","internalType":"uint96[]"},{"name":"totalStakeForQuorum","type":"uint96[]","internalType":"uint96[]"}]},{"name":"","type":"bytes32","internalType":"bytes32"}],"stateMutability":"view"},{"type":"function","name":"delegation","inputs":[],"outputs":[{"name":"","type":"address","internalType":"contract IDelegationManager"}],"stateMutability":"view"},{"type":"function","name":"registryCoordinator","inputs":[],"outputs":[{"name":"","type":"address","internalType":"contract IRegistryCoordinator"}],"stateMutability":"view"},{"type":"function","name":"setStaleStakesForbidden","inputs":[{"name":"value","type":"bool","internalType":"bool"}],"outputs":[],"stateMutability":"nonpayable"},{"type":"function","name":"stakeRegistry","inputs":[],"outputs":[{"name":"","type":"address","internalType":"contract IStakeRegistry"}],"stateMutability":"view"},{"type":"function","name":"staleStakesForbidden","inputs":[],"outputs":[{"name":"","type":"bool","internalType":"bool"}],"stateMutability":"view"},{"type":"function","name":"trySignatureAndApkVerification","inputs":[{"name":"msgHash","type":"bytes32","internalType":"bytes32"},{"name":"apk","type":"tuple","internalType":"struct BN254.G1Point","components":[{"name":"X","type":"uint256","internalType":"uint256"},{"name":"Y","type":"uint256","internalType":"uint256"}]},{"name":"apkG2","type":"tuple","internalType":"struct BN254.G2Point","components":[{"name":"X","type":"uint256[2]","internalType":"uint256[2]"},{"name":"Y","type":"uint256[2]","internalType":"uint256[2]"}]},{"name":"sigma","type":"tuple","internalType":"struct BN254.G1Point","components":[{"name":"X","type":"uint256","internalType":"uint256"},{"name":"Y","type":"uint256","internalType":"uint256"}]}],"outputs":[{"name":"pairingSuccessful","type":"bool","internalType":"bool"},{"name":"siganatureIsValid","type":"bool","internalType":"bool"}],"stateMutability":"view"},{"type":"event","name":"StaleStakesForbiddenUpdate","inputs":[{"name":"value","type":"bool","indexed":false,"internalType":"bool"}],"anonymous":false}],"bytecode":{"object":"0x6101006040523480156200001257600080fd5b506040516200292d3803806200292d8339810160408190526200003591620001dd565b6001600160a01b038116608081905260408051636830483560e01b815290516368304835916004808201926020929091908290030181865afa15801562000080573d6000803e3d6000fd5b505050506040513d601f19601f82011682018060405250810190620000a69190620001dd565b6001600160a01b031660a0816001600160a01b031681525050806001600160a01b0316635df459466040518163ffffffff1660e01b8152600401602060405180830381865afa158015620000fe573d6000803e3d6000fd5b505050506040513d601f19601f82011682018060405250810190620001249190620001dd565b6001600160a01b031660c0816001600160a01b03168152505060a0516001600160a01b031663df5cf7236040518163ffffffff1660e01b8152600401602060405180830381865afa1580156200017e573d6000803e3d6000fd5b505050506040513d601f19601f82011682018060405250810190620001a49190620001dd565b6001600160a01b031660e052506000805460ff1916600117905562000204565b6001600160a01b0381168114620001da57600080fd5b50565b600060208284031215620001f057600080fd5b8151620001fd81620001c4565b9392505050565b60805160a05160c05160e0516126b862000275600039600081816101a10152610bb101526000818160d60152610d9301526000818161011501528181610f69015261112b01526000818161013c0152818161034f0152818161087a01528181610a120152610c4e01526126b86000f3fe608060405234801561001057600080fd5b50600436106100885760003560e01c80636d14a9871161005b5780636d14a987146101375780636efb46361461015e578063b98d09081461017f578063df5cf7231461019c57600080fd5b8063171f1d5b1461008d578063416c7e5e146100bc5780635df45946146100d15780636830483514610110575b600080fd5b6100a061009b366004611fb2565b6101c3565b6040805192151583529015156020830152015b60405180910390f35b6100cf6100ca366004612003565b61034d565b005b6100f87f000000000000000000000000000000000000000000000000000000000000000081565b6040516001600160a01b0390911681526020016100b3565b6100f87f000000000000000000000000000000000000000000000000000000000000000081565b6100f87f000000000000000000000000000000000000000000000000000000000000000081565b61017161016c3660046122db565b6104c7565b6040516100b39291906123ce565b60005461018c9060ff1681565b60405190151581526020016100b3565b6100f87f000000000000000000000000000000000000000000000000000000000000000081565b60008060007f30644e72e131a029b85045b68181585d2833e84879b9709143e1f593f00000018787600001518860200151886000015160006002811061020b5761020b612417565b60200201518951600160200201518a6020015160006002811061023057610230612417565b60200201518b6020015160016002811061024c5761024c612417565b602090810291909101518c518d8301516040516102a99a99989796959401988952602089019790975260408801959095526060870193909352608086019190915260a085015260c084015260e08301526101008201526101200190565b6040516020818303038152906040528051906020012060001c6102cc919061242d565b905061033f6102e56102de88846113e0565b8690611477565b6102ed61150b565b61033561032685610320604080518082018252600080825260209182015281518083019092526001825260029082015290565b906113e0565b61032f8c6115cb565b90611477565b886201d4c061165b565b909890975095505050505050565b7f00000000000000000000000000000000000000000000000000000000000000006001600160a01b0316638da5cb5b6040518163ffffffff1660e01b8152600401602060405180830381865afa1580156103ab573d6000803e3d6000fd5b505050506040513d601f19601f820116820180604052508101906103cf919061244f565b6001600160a01b0316336001600160a01b0316146104805760405162461bcd60e51b815260206004820152605c60248201527f424c535369676e6174757265436865636b65722e6f6e6c79436f6f7264696e6160448201527f746f724f776e65723a2063616c6c6572206973206e6f7420746865206f776e6560648201527f72206f6620746865207265676973747279436f6f7264696e61746f7200000000608482015260a4015b60405180910390fd5b6000805460ff19168215159081179091556040519081527f40e4ed880a29e0f6ddce307457fb75cddf4feef7d3ecb0301bfdf4976a0e2dfc9060200160405180910390a150565b604080518082019091526060808252602082015260008461053e5760405162461bcd60e51b8152602060048201526037602482015260008051602061266383398151915260448201527f7265733a20656d7074792071756f72756d20696e7075740000000000000000006064820152608401610477565b60408301515185148015610556575060a08301515185145b8015610566575060c08301515185145b8015610576575060e08301515185145b6105e05760405162461bcd60e51b8152602060048201526041602482015260008051602061266383398151915260448201527f7265733a20696e7075742071756f72756d206c656e677468206d69736d6174636064820152600d60fb1b608482015260a401610477565b825151602084015151146106585760405162461bcd60e51b815260206004820152604460248201819052600080516020612663833981519152908201527f7265733a20696e707574206e6f6e7369676e6572206c656e677468206d69736d6064820152630c2e8c6d60e31b608482015260a401610477565b4363ffffffff168463ffffffff16106106c75760405162461bcd60e51b815260206004820152603c602482015260008051602061266383398151915260448201527f7265733a20696e76616c6964207265666572656e636520626c6f636b000000006064820152608401610477565b6040805180820182526000808252602080830191909152825180840190935260608084529083015290866001600160401b0381111561070857610708611e4d565b604051908082528060200260200182016040528015610731578160200160208202803683370190505b506020820152866001600160401b0381111561074f5761074f611e4d565b604051908082528060200260200182016040528015610778578160200160208202803683370190505b50815260408051808201909152606080825260208201528560200151516001600160401b038111156107ac576107ac611e4d565b6040519080825280602002602001820160405280156107d5578160200160208202803683370190505b5081526020860151516001600160401b038111156107f5576107f5611e4d565b60405190808252806020026020018201604052801561081e578160200160208202803683370190505b50816020018190525060006108f08a8a8080601f0160208091040260200160405190810160405280939291908181526020018383808284376000920191909152505060408051639aa1653d60e01b815290516001600160a01b037f0000000000000000000000000000000000000000000000000000000000000000169350639aa1653d925060048083019260209291908290030181865afa1580156108c7573d6000803e3d6000fd5b505050506040513d601f19601f820116820180604052508101906108eb9190612478565b61187f565b905060005b876020015151811015610b8b5761093a8860200151828151811061091b5761091b612417565b6020026020010151805160009081526020918201519091526040902090565b8360200151828151811061095057610950612417565b60209081029190910101528015610a105760208301516109716001836124b1565b8151811061098157610981612417565b602002602001015160001c836020015182815181106109a2576109a2612417565b602002602001015160001c11610a10576040805162461bcd60e51b815260206004820152602481019190915260008051602061266383398151915260448201527f7265733a206e6f6e5369676e65725075626b657973206e6f7420736f727465646064820152608401610477565b7f00000000000000000000000000000000000000000000000000000000000000006001600160a01b03166304ec635184602001518381518110610a5557610a55612417565b60200260200101518b8b600001518581518110610a7457610a74612417565b60200260200101516040518463ffffffff1660e01b8152600401610ab19392919092835263ffffffff918216602084015216604082015260600190565b602060405180830381865afa158015610ace573d6000803e3d6000fd5b505050506040513d601f19601f82011682018060405250810190610af291906124c8565b6001600160c01b031683600001518281518110610b1157610b11612417565b602002602001018181525050610b776102de610b4b8486600001518581518110610b3d57610b3d612417565b602002602001015116611912565b8a602001518481518110610b6157610b61612417565b602002602001015161193d90919063ffffffff16565b945080610b83816124f1565b9150506108f5565b5050610b9683611a21565b6000805491945060ff9091169081610baf576000610c31565b7f00000000000000000000000000000000000000000000000000000000000000006001600160a01b031663c448feb86040518163ffffffff1660e01b8152600401602060405180830381865afa158015610c0d573d6000803e3d6000fd5b505050506040513d601f19601f82011682018060405250810190610c31919061250c565b905060005b8a8110156112af578215610d91578963ffffffff16827f00000000000000000000000000000000000000000000000000000000000000006001600160a01b031663249a0c428f8f86818110610c8d57610c8d612417565b60405160e085901b6001600160e01b031916815292013560f81c600483015250602401602060405180830381865afa158015610ccd573d6000803e3d6000fd5b505050506040513d601f19601f82011682018060405250810190610cf1919061250c565b610cfb9190612525565b11610d915760405162461bcd60e51b8152602060048201526066602482015260008051602061266383398151915260448201527f7265733a205374616b6552656769737472792075706461746573206d7573742060648201527f62652077697468696e207769746864726177616c44656c6179426c6f636b732060848201526577696e646f7760d01b60a482015260c401610477565b7f00000000000000000000000000000000000000000000000000000000000000006001600160a01b03166368bccaac8d8d84818110610dd257610dd2612417565b9050013560f81c60f81b60f81c8c8c60a001518581518110610df657610df6612417565b60209081029190910101516040516001600160e01b031960e086901b16815260ff909316600484015263ffffffff9182166024840152166044820152606401602060405180830381865afa158015610e52573d6000803e3d6000fd5b505050506040513d601f19601f82011682018060405250810190610e76919061253d565b6001600160401b031916610e998a60400151838151811061091b5761091b612417565b67ffffffffffffffff191614610f355760405162461bcd60e51b8152602060048201526061602482015260008051602061266383398151915260448201527f7265733a2071756f72756d41706b206861736820696e2073746f72616765206460648201527f6f6573206e6f74206d617463682070726f76696465642071756f72756d2061706084820152606b60f81b60a482015260c401610477565b610f6589604001518281518110610f4e57610f4e612417565b60200260200101518761147790919063ffffffff16565b95507f00000000000000000000000000000000000000000000000000000000000000006001600160a01b031663c8294c568d8d84818110610fa857610fa8612417565b9050013560f81c60f81b60f81c8c8c60c001518581518110610fcc57610fcc612417565b60209081029190910101516040516001600160e01b031960e086901b16815260ff909316600484015263ffffffff9182166024840152166044820152606401602060405180830381865afa158015611028573d6000803e3d6000fd5b505050506040513d601f19601f8201168201806040525081019061104c9190612568565b8560200151828151811061106257611062612417565b6001600160601b0390921660209283029190910182015285015180518290811061108e5761108e612417565b6020026020010151856000015182815181106110ac576110ac612417565b60200260200101906001600160601b031690816001600160601b0316815250506000805b8a602001515181101561129a57611124866000015182815181106110f6576110f6612417565b60200260200101518f8f8681811061111057611110612417565b600192013560f81c9290921c811614919050565b15611288577f00000000000000000000000000000000000000000000000000000000000000006001600160a01b031663f2be94ae8f8f8681811061116a5761116a612417565b9050013560f81c60f81b60f81c8e8960200151858151811061118e5761118e612417565b60200260200101518f60e0015188815181106111ac576111ac612417565b602002602001015187815181106111c5576111c5612417565b60209081029190910101516040516001600160e01b031960e087901b16815260ff909416600485015263ffffffff92831660248501526044840191909152166064820152608401602060405180830381865afa158015611229573d6000803e3d6000fd5b505050506040513d601f19601f8201168201806040525081019061124d9190612568565b875180518590811061126157611261612417565b602002602001018181516112759190612591565b6001600160601b03169052506001909101905b80611292816124f1565b9150506110d0565b505080806112a7906124f1565b915050610c36565b5050506000806112c98c868a606001518b608001516101c3565b915091508161133a5760405162461bcd60e51b8152602060048201526043602482015260008051602061266383398151915260448201527f7265733a2070616972696e6720707265636f6d70696c652063616c6c206661696064820152621b195960ea1b608482015260a401610477565b8061139b5760405162461bcd60e51b8152602060048201526039602482015260008051602061266383398151915260448201527f7265733a207369676e617475726520697320696e76616c6964000000000000006064820152608401610477565b505060008782602001516040516020016113b69291906125b9565b60408051808303601f190181529190528051602090910120929b929a509198505050505050505050565b60408051808201909152600080825260208201526113fc611d73565b835181526020808501519082015260408082018490526000908360608460076107d05a03fa905080801561142f57611431565bfe5b508061146f5760405162461bcd60e51b815260206004820152600d60248201526c1958cb5b5d5b0b59985a5b1959609a1b6044820152606401610477565b505092915050565b6040805180820190915260008082526020820152611493611d91565b835181526020808501518183015283516040808401919091529084015160608301526000908360808460066107d05a03fa905080801561142f57508061146f5760405162461bcd60e51b815260206004820152600d60248201526c1958cb5859190b59985a5b1959609a1b6044820152606401610477565b611513611daf565b50604080516080810182527f198e9393920d483a7260bfb731fb5d25f1aa493335a9e71297e485b7aef312c28183019081527f1800deef121f1e76426a00665e5c4479674322d4f75edadd46debd5cd992f6ed6060830152815281518083019092527f275dc4a288d1afb3cbb1ac09187524c7db36395df7be3b99e673b13a075a65ec82527f1d9befcd05a5323e6da4d435f3b617cdb3af83285c2df711ef39c01571827f9d60208381019190915281019190915290565b6040805180820190915260008082526020820152600080806115fb6000805160206126438339815191528661242d565b90505b61160781611abc565b9093509150600080516020612643833981519152828309831415611641576040805180820190915290815260208101919091529392505050565b6000805160206126438339815191526001820890506115fe565b60408051808201825286815260208082018690528251808401909352868352820184905260009182919061168d611dd4565b60005b60028110156118525760006116a6826006612601565b90508482600281106116ba576116ba612417565b602002015151836116cc836000612525565b600c81106116dc576116dc612417565b60200201528482600281106116f3576116f3612417565b6020020151602001518382600161170a9190612525565b600c811061171a5761171a612417565b602002015283826002811061173157611731612417565b6020020151515183611744836002612525565b600c811061175457611754612417565b602002015283826002811061176b5761176b612417565b6020020151516001602002015183611784836003612525565b600c811061179457611794612417565b60200201528382600281106117ab576117ab612417565b6020020151602001516000600281106117c6576117c6612417565b6020020151836117d7836004612525565b600c81106117e7576117e7612417565b60200201528382600281106117fe576117fe612417565b60200201516020015160016002811061181957611819612417565b60200201518361182a836005612525565b600c811061183a5761183a612417565b6020020152508061184a816124f1565b915050611690565b5061185b611df3565b60006020826101808560088cfa9151919c9115159b50909950505050505050505050565b60008061188b84611b3e565b9050808360ff166001901b116119095760405162461bcd60e51b815260206004820152603f60248201527f4269746d61705574696c732e6f72646572656442797465734172726179546f4260448201527f69746d61703a206269746d61702065786365656473206d61782076616c7565006064820152608401610477565b90505b92915050565b6000805b821561190c576119276001846124b1565b909216918061193581612620565b915050611916565b60408051808201909152600080825260208201526102008261ffff16106119995760405162461bcd60e51b815260206004820152601060248201526f7363616c61722d746f6f2d6c6172676560801b6044820152606401610477565b8161ffff16600114156119ad57508161190c565b6040805180820190915260008082526020820181905284906001905b8161ffff168661ffff1610611a1657600161ffff871660ff83161c811614156119f9576119f68484611477565b93505b611a038384611477565b92506201fffe600192831b1691016119c9565b509195945050505050565b60408051808201909152600080825260208201528151158015611a4657506020820151155b15611a64575050604080518082019091526000808252602082015290565b6040518060400160405280836000015181526020016000805160206126438339815191528460200151611a97919061242d565b611aaf906000805160206126438339815191526124b1565b905292915050565b919050565b60008080600080516020612643833981519152600360008051602061264383398151915286600080516020612643833981519152888909090890506000611b32827f0c19139cb84c680a6e14116da060561765e05aa45a1c72a34f082305b61f3f52600080516020612643833981519152611ccb565b91959194509092505050565b600061010082511115611bc75760405162461bcd60e51b8152602060048201526044602482018190527f4269746d61705574696c732e6f72646572656442797465734172726179546f42908201527f69746d61703a206f7264657265644279746573417272617920697320746f6f206064820152636c6f6e6760e01b608482015260a401610477565b8151611bd557506000919050565b60008083600081518110611beb57611beb612417565b0160200151600160f89190911c81901b92505b8451811015611cc257848181518110611c1957611c19612417565b0160200151600160f89190911c1b9150828211611cae5760405162461bcd60e51b815260206004820152604760248201527f4269746d61705574696c732e6f72646572656442797465734172726179546f4260448201527f69746d61703a206f72646572656442797465734172726179206973206e6f74206064820152661bdc99195c995960ca1b608482015260a401610477565b91811791611cbb816124f1565b9050611bfe565b50909392505050565b600080611cd6611df3565b611cde611e11565b602080825281810181905260408201819052606082018890526080820187905260a082018690528260c08360056107d05a03fa925082801561142f575082611d685760405162461bcd60e51b815260206004820152601a60248201527f424e3235342e6578704d6f643a2063616c6c206661696c7572650000000000006044820152606401610477565b505195945050505050565b60405180606001604052806003906020820280368337509192915050565b60405180608001604052806004906020820280368337509192915050565b6040518060400160405280611dc2611e2f565b8152602001611dcf611e2f565b905290565b604051806101800160405280600c906020820280368337509192915050565b60405180602001604052806001906020820280368337509192915050565b6040518060c001604052806006906020820280368337509192915050565b60405180604001604052806002906020820280368337509192915050565b634e487b7160e01b600052604160045260246000fd5b604080519081016001600160401b0381118282101715611e8557611e85611e4d565b60405290565b60405161010081016001600160401b0381118282101715611e8557611e85611e4d565b604051601f8201601f191681016001600160401b0381118282101715611ed657611ed6611e4d565b604052919050565b600060408284031215611ef057600080fd5b611ef8611e63565b9050813581526020820135602082015292915050565b600082601f830112611f1f57600080fd5b604051604081018181106001600160401b0382111715611f4157611f41611e4d565b8060405250806040840185811115611f5857600080fd5b845b81811015611a16578035835260209283019201611f5a565b600060808284031215611f8457600080fd5b611f8c611e63565b9050611f988383611f0e565b8152611fa78360408401611f0e565b602082015292915050565b6000806000806101208587031215611fc957600080fd5b84359350611fda8660208701611ede565b9250611fe98660608701611f72565b9150611ff88660e08701611ede565b905092959194509250565b60006020828403121561201557600080fd5b8135801515811461190957600080fd5b803563ffffffff81168114611ab757600080fd5b60006001600160401b0382111561205257612052611e4d565b5060051b60200190565b600082601f83011261206d57600080fd5b8135602061208261207d83612039565b611eae565b82815260059290921b840181019181810190868411156120a157600080fd5b8286015b848110156120c3576120b681612025565b83529183019183016120a5565b509695505050505050565b600082601f8301126120df57600080fd5b813560206120ef61207d83612039565b82815260069290921b8401810191818101908684111561210e57600080fd5b8286015b848110156120c3576121248882611ede565b835291830191604001612112565b600082601f83011261214357600080fd5b8135602061215361207d83612039565b82815260059290921b8401810191818101908684111561217257600080fd5b8286015b848110156120c35780356001600160401b038111156121955760008081fd5b6121a38986838b010161205c565b845250918301918301612176565b600061018082840312156121c457600080fd5b6121cc611e8b565b905081356001600160401b03808211156121e557600080fd5b6121f18583860161205c565b8352602084013591508082111561220757600080fd5b612213858386016120ce565b6020840152604084013591508082111561222c57600080fd5b612238858386016120ce565b604084015261224a8560608601611f72565b606084015261225c8560e08601611ede565b608084015261012084013591508082111561227657600080fd5b6122828583860161205c565b60a084015261014084013591508082111561229c57600080fd5b6122a88583860161205c565b60c08401526101608401359150808211156122c257600080fd5b506122cf84828501612132565b60e08301525092915050565b6000806000806000608086880312156122f357600080fd5b8535945060208601356001600160401b038082111561231157600080fd5b818801915088601f83011261232557600080fd5b81358181111561233457600080fd5b89602082850101111561234657600080fd5b602083019650945061235a60408901612025565b9350606088013591508082111561237057600080fd5b5061237d888289016121b1565b9150509295509295909350565b600081518084526020808501945080840160005b838110156123c35781516001600160601b03168752958201959082019060010161239e565b509495945050505050565b60408152600083516040808401526123e9608084018261238a565b90506020850151603f19848303016060850152612406828261238a565b925050508260208301529392505050565b634e487b7160e01b600052603260045260246000fd5b60008261244a57634e487b7160e01b600052601260045260246000fd5b500690565b60006020828403121561246157600080fd5b81516001600160a01b038116811461190957600080fd5b60006020828403121561248a57600080fd5b815160ff8116811461190957600080fd5b634e487b7160e01b600052601160045260246000fd5b6000828210156124c3576124c361249b565b500390565b6000602082840312156124da57600080fd5b81516001600160c01b038116811461190957600080fd5b60006000198214156125055761250561249b565b5060010190565b60006020828403121561251e57600080fd5b5051919050565b600082198211156125385761253861249b565b500190565b60006020828403121561254f57600080fd5b815167ffffffffffffffff198116811461190957600080fd5b60006020828403121561257a57600080fd5b81516001600160601b038116811461190957600080fd5b60006001600160601b03838116908316818110156125b1576125b161249b565b039392505050565b63ffffffff60e01b8360e01b1681526000600482018351602080860160005b838110156125f4578151855293820193908201906001016125d8565b5092979650505050505050565b600081600019048311821515161561261b5761261b61249b565b500290565b600061ffff808316818114156126385761263861249b565b600101939250505056fe30644e72e131a029b85045b68181585d97816a916871ca8d3c208c16d87cfd47424c535369676e6174757265436865636b65722e636865636b5369676e617475a2646970667358221220548dcbdf6e5f083cde47a60666581545e79209c013b2dcddbbb7a589a288292664736f6c634300080c0033","linkReferences":{}},"methodIdentifiers":{"blsApkRegistry()":"5df45946","checkSignatures(bytes32,bytes,uint32,(uint32[],(uint256,uint256)[],(uint256,uint256)[],(uint256[2],uint256[2]),(uint256,uint256),uint32[],uint32[],uint32[][]))":"6efb4636","delegation()":"df5cf723","registryCoordinator()":"6d14a987","setStaleStakesForbidden(bool)":"416c7e5e","stakeRegistry()":"68304835","staleStakesForbidden()":"b98d0908","trySignatureAndApkVerification(bytes32,(uint256,uint256),(uint256[2],uint256[2]),(uint256,uint256))":"171f1d5b"},"id":59}