{"abi":[{"type":"constructor","inputs":[{"name":"_pausers","type":"address[]","internalType":"address[]"},{"name":"_unpauser","type":"address","internalType":"address"}],"stateMutability":"nonpayable"},{"type":"function","name":"isPauser","inputs":[{"name":"","type":"address","internalType":"address"}],"outputs":[{"name":"","type":"bool","internalType":"bool"}],"stateMutability":"view"},{"type":"function","name":"setIsPauser","inputs":[{"name":"newPauser","type":"address","internalType":"address"},{"name":"canPause","type":"bool","internalType":"bool"}],"outputs":[],"stateMutability":"nonpayable"},{"type":"function","name":"setUnpauser","inputs":[{"name":"newUnpauser","type":"address","internalType":"address"}],"outputs":[],"stateMutability":"nonpayable"},{"type":"function","name":"unpauser","inputs":[],"outputs":[{"name":"","type":"address","internalType":"address"}],"stateMutability":"view"},{"type":"event","name":"PauserStatusChanged","inputs":[{"name":"pauser","type":"address","indexed":false,"internalType":"address"},{"name":"canPause","type":"bool","indexed":false,"internalType":"bool"}],"anonymous":false},{"type":"event","name":"UnpauserChanged","inputs":[{"name":"previousUnpauser","type":"address","indexed":false,"internalType":"address"},{"name":"newUnpauser","type":"address","indexed":false,"internalType":"address"}],"anonymous":false}],"bytecode":{"object":"0x608060405234801561001057600080fd5b5060405161077838038061077883398101604081905261002f91610263565b60005b82518110156100775761006583828151811061005057610050610339565b6020026020010151600161008860201b60201c565b8061006f8161034f565b915050610032565b506100818161015a565b5050610378565b6001600160a01b0382166100f95760405162461bcd60e51b815260206004820152602d60248201527f50617573657252656769737472792e5f7365745061757365723a207a65726f2060448201526c1859191c995cdcc81a5b9c1d5d609a1b60648201526084015b60405180910390fd5b6001600160a01b03821660008181526020818152604091829020805460ff19168515159081179091558251938452908301527f65d3a1fd4c13f05cba164f80d03ce90fb4b5e21946bfc3ab7dbd434c2d0b9152910160405180910390a15050565b6001600160a01b0381166101c85760405162461bcd60e51b815260206004820152602f60248201527f50617573657252656769737472792e5f736574556e7061757365723a207a657260448201526e1bc81859191c995cdcc81a5b9c1d5d608a1b60648201526084016100f0565b600154604080516001600160a01b03928316815291831660208301527f06b4167a2528887a1e97a366eefe8549bfbf1ea3e6ac81cb2564a934d20e8892910160405180910390a1600180546001600160a01b0319166001600160a01b0392909216919091179055565b634e487b7160e01b600052604160045260246000fd5b80516001600160a01b038116811461025e57600080fd5b919050565b6000806040838503121561027657600080fd5b82516001600160401b038082111561028d57600080fd5b818501915085601f8301126102a157600080fd5b81516020828211156102b5576102b5610231565b8160051b604051601f19603f830116810181811086821117156102da576102da610231565b6040529283528183019350848101820192898411156102f857600080fd5b948201945b8386101561031d5761030e86610247565b855294820194938201936102fd565b965061032c9050878201610247565b9450505050509250929050565b634e487b7160e01b600052603260045260246000fd5b600060001982141561037157634e487b7160e01b600052601160045260246000fd5b5060010190565b6103f1806103876000396000f3fe608060405234801561001057600080fd5b506004361061004c5760003560e01c806346fbf68e146100515780638568520614610089578063ce5484281461009e578063eab66d7a146100b1575b600080fd5b61007461005f366004610313565b60006020819052908152604090205460ff1681565b60405190151581526020015b60405180910390f35b61009c610097366004610335565b6100dc565b005b61009c6100ac366004610313565b61011d565b6001546100c4906001600160a01b031681565b6040516001600160a01b039091168152602001610080565b6001546001600160a01b0316331461010f5760405162461bcd60e51b815260040161010690610371565b60405180910390fd5b6101198282610153565b5050565b6001546001600160a01b031633146101475760405162461bcd60e51b815260040161010690610371565b61015081610220565b50565b6001600160a01b0382166101bf5760405162461bcd60e51b815260206004820152602d60248201527f50617573657252656769737472792e5f7365745061757365723a207a65726f2060448201526c1859191c995cdcc81a5b9c1d5d609a1b6064820152608401610106565b6001600160a01b03821660008181526020818152604091829020805460ff19168515159081179091558251938452908301527f65d3a1fd4c13f05cba164f80d03ce90fb4b5e21946bfc3ab7dbd434c2d0b9152910160405180910390a15050565b6001600160a01b03811661028e5760405162461bcd60e51b815260206004820152602f60248201527f50617573657252656769737472792e5f736574556e7061757365723a207a657260448201526e1bc81859191c995cdcc81a5b9c1d5d608a1b6064820152608401610106565b600154604080516001600160a01b03928316815291831660208301527f06b4167a2528887a1e97a366eefe8549bfbf1ea3e6ac81cb2564a934d20e8892910160405180910390a1600180546001600160a01b0319166001600160a01b0392909216919091179055565b80356001600160a01b038116811461030e57600080fd5b919050565b60006020828403121561032557600080fd5b61032e826102f7565b9392505050565b6000806040838503121561034857600080fd5b610351836102f7565b91506020830135801515811461036657600080fd5b809150509250929050565b6020808252602a908201527f6d73672e73656e646572206973206e6f74207065726d697373696f6e6564206160408201526939903ab73830bab9b2b960b11b60608201526080019056fea26469706673582212204b649d0dd3ff204605cd874016240a00ece4824c133a33ef58854e541dd1c14264736f6c634300080c0033","linkReferences":{}},"methodIdentifiers":{"isPauser(address)":"46fbf68e","setIsPauser(address,bool)":"85685206","setUnpauser(address)":"ce548428","unpauser()":"eab66d7a"},"id":51}