{"abi":[{"type":"function","name":"GENESIS_PAYMENT_TIMESTAMP","inputs":[],"outputs":[{"name":"","type":"uint32","internalType":"uint32"}],"stateMutability":"view"},{"type":"function","name":"MAX_FUTURE_LENGTH","inputs":[],"outputs":[{"name":"","type":"uint32","internalType":"uint32"}],"stateMutability":"view"},{"type":"function","name":"MAX_PAYMENT_DURATION","inputs":[],"outputs":[{"name":"","type":"uint32","internalType":"uint32"}],"stateMutability":"view"},{"type":"function","name":"MAX_RETROACTIVE_LENGTH","inputs":[],"outputs":[{"name":"","type":"uint32","internalType":"uint32"}],"stateMutability":"view"},{"type":"function","name":"activationDelay","inputs":[],"outputs":[{"name":"","type":"uint32","internalType":"uint32"}],"stateMutability":"view"},{"type":"function","name":"calculateEarnerLeafHash","inputs":[{"name":"leaf","type":"tuple","internalType":"struct IPaymentCoordinator.EarnerTreeMerkleLeaf","components":[{"name":"earner","type":"address","internalType":"address"},{"name":"earnerTokenRoot","type":"bytes32","internalType":"bytes32"}]}],"outputs":[{"name":"","type":"bytes32","internalType":"bytes32"}],"stateMutability":"pure"},{"type":"function","name":"calculateTokenLeafHash","inputs":[{"name":"leaf","type":"tuple","internalType":"struct IPaymentCoordinator.TokenTreeMerkleLeaf","components":[{"name":"token","type":"address","internalType":"contract IERC20"},{"name":"cumulativeEarnings","type":"uint256","internalType":"uint256"}]}],"outputs":[{"name":"","type":"bytes32","internalType":"bytes32"}],"stateMutability":"pure"},{"type":"function","name":"calculationIntervalSeconds","inputs":[],"outputs":[{"name":"","type":"uint32","internalType":"uint32"}],"stateMutability":"view"},{"type":"function","name":"checkClaim","inputs":[{"name":"claim","type":"tuple","internalType":"struct IPaymentCoordinator.PaymentMerkleClaim","components":[{"name":"rootIndex","type":"uint32","internalType":"uint32"},{"name":"earnerIndex","type":"uint32","internalType":"uint32"},{"name":"earnerTreeProof","type":"bytes","internalType":"bytes"},{"name":"earnerLeaf","type":"tuple","internalType":"struct IPaymentCoordinator.EarnerTreeMerkleLeaf","components":[{"name":"earner","type":"address","internalType":"address"},{"name":"earnerTokenRoot","type":"bytes32","internalType":"bytes32"}]},{"name":"tokenIndices","type":"uint32[]","internalType":"uint32[]"},{"name":"tokenTreeProofs","type":"bytes[]","internalType":"bytes[]"},{"name":"tokenLeaves","type":"tuple[]","internalType":"struct IPaymentCoordinator.TokenTreeMerkleLeaf[]","components":[{"name":"token","type":"address","internalType":"contract IERC20"},{"name":"cumulativeEarnings","type":"uint256","internalType":"uint256"}]}]}],"outputs":[{"name":"","type":"bool","internalType":"bool"}],"stateMutability":"view"},{"type":"function","name":"claimerFor","inputs":[{"name":"earner","type":"address","internalType":"address"}],"outputs":[{"name":"","type":"address","internalType":"address"}],"stateMutability":"view"},{"type":"function","name":"cumulativeClaimed","inputs":[{"name":"claimer","type":"address","internalType":"address"},{"name":"token","type":"address","internalType":"contract IERC20"}],"outputs":[{"name":"","type":"uint256","internalType":"uint256"}],"stateMutability":"view"},{"type":"function","name":"globalOperatorCommissionBips","inputs":[],"outputs":[{"name":"","type":"uint16","internalType":"uint16"}],"stateMutability":"view"},{"type":"function","name":"payAllForRange","inputs":[{"name":"rangePayment","type":"tuple[]","internalType":"struct IPaymentCoordinator.RangePayment[]","components":[{"name":"strategiesAndMultipliers","type":"tuple[]","internalType":"struct IPaymentCoordinator.StrategyAndMultiplier[]","components":[{"name":"strategy","type":"address","internalType":"contract IStrategy"},{"name":"multiplier","type":"uint96","internalType":"uint96"}]},{"name":"token","type":"address","internalType":"contract IERC20"},{"name":"amount","type":"uint256","internalType":"uint256"},{"name":"startTimestamp","type":"uint32","internalType":"uint32"},{"name":"duration","type":"uint32","internalType":"uint32"}]}],"outputs":[],"stateMutability":"nonpayable"},{"type":"function","name":"payForRange","inputs":[{"name":"rangePayments","type":"tuple[]","internalType":"struct IPaymentCoordinator.RangePayment[]","components":[{"name":"strategiesAndMultipliers","type":"tuple[]","internalType":"struct IPaymentCoordinator.StrategyAndMultiplier[]","components":[{"name":"strategy","type":"address","internalType":"contract IStrategy"},{"name":"multiplier","type":"uint96","internalType":"uint96"}]},{"name":"token","type":"address","internalType":"contract IERC20"},{"name":"amount","type":"uint256","internalType":"uint256"},{"name":"startTimestamp","type":"uint32","internalType":"uint32"},{"name":"duration","type":"uint32","internalType":"uint32"}]}],"outputs":[],"stateMutability":"nonpayable"},{"type":"function","name":"paymentUpdater","inputs":[],"outputs":[{"name":"","type":"address","internalType":"address"}],"stateMutability":"view"},{"type":"function","name":"processClaim","inputs":[{"name":"claim","type":"tuple","internalType":"struct IPaymentCoordinator.PaymentMerkleClaim","components":[{"name":"rootIndex","type":"uint32","internalType":"uint32"},{"name":"earnerIndex","type":"uint32","internalType":"uint32"},{"name":"earnerTreeProof","type":"bytes","internalType":"bytes"},{"name":"earnerLeaf","type":"tuple","internalType":"struct IPaymentCoordinator.EarnerTreeMerkleLeaf","components":[{"name":"earner","type":"address","internalType":"address"},{"name":"earnerTokenRoot","type":"bytes32","internalType":"bytes32"}]},{"name":"tokenIndices","type":"uint32[]","internalType":"uint32[]"},{"name":"tokenTreeProofs","type":"bytes[]","internalType":"bytes[]"},{"name":"tokenLeaves","type":"tuple[]","internalType":"struct IPaymentCoordinator.TokenTreeMerkleLeaf[]","components":[{"name":"token","type":"address","internalType":"contract IERC20"},{"name":"cumulativeEarnings","type":"uint256","internalType":"uint256"}]}]}],"outputs":[],"stateMutability":"nonpayable"},{"type":"function","name":"setActivationDelay","inputs":[{"name":"_activationDelay","type":"uint32","internalType":"uint32"}],"outputs":[],"stateMutability":"nonpayable"},{"type":"function","name":"setClaimerFor","inputs":[{"name":"claimer","type":"address","internalType":"address"}],"outputs":[],"stateMutability":"nonpayable"},{"type":"function","name":"setGlobalOperatorCommission","inputs":[{"name":"_globalCommissionBips","type":"uint16","internalType":"uint16"}],"outputs":[],"stateMutability":"nonpayable"},{"type":"function","name":"setPaymentUpdater","inputs":[{"name":"_paymentUpdater","type":"address","internalType":"address"}],"outputs":[],"stateMutability":"nonpayable"},{"type":"function","name":"submitRoot","inputs":[{"name":"root","type":"bytes32","internalType":"bytes32"},{"name":"paymentCalculationEndTimestamp","type":"uint32","internalType":"uint32"}],"outputs":[],"stateMutability":"nonpayable"},{"type":"event","name":"ActivationDelaySet","inputs":[{"name":"oldActivationDelay","type":"uint32","indexed":false,"internalType":"uint32"},{"name":"newActivationDelay","type":"uint32","indexed":false,"internalType":"uint32"}],"anonymous":false},{"type":"event","name":"CalculationIntervalSecondsSet","inputs":[{"name":"oldCalculationIntervalSeconds","type":"uint32","indexed":false,"internalType":"uint32"},{"name":"newCalculationIntervalSeconds","type":"uint32","indexed":false,"internalType":"uint32"}],"anonymous":false},{"type":"event","name":"ClaimerForSet","inputs":[{"name":"earner","type":"address","indexed":true,"internalType":"address"},{"name":"oldClaimer","type":"address","indexed":true,"internalType":"address"},{"name":"claimer","type":"address","indexed":true,"internalType":"address"}],"anonymous":false},{"type":"event","name":"DistributionRootSubmitted","inputs":[{"name":"rootIndex","type":"uint32","indexed":true,"internalType":"uint32"},{"name":"root","type":"bytes32","indexed":true,"internalType":"bytes32"},{"name":"paymentCalculationEndTimestamp","type":"uint32","indexed":false,"internalType":"uint32"},{"name":"activatedAt","type":"uint32","indexed":false,"internalType":"uint32"}],"anonymous":false},{"type":"event","name":"GlobalCommissionBipsSet","inputs":[{"name":"oldGlobalCommissionBips","type":"uint16","indexed":false,"internalType":"uint16"},{"name":"newGlobalCommissionBips","type":"uint16","indexed":false,"internalType":"uint16"}],"anonymous":false},{"type":"event","name":"PayAllForRangeSubmitterSet","inputs":[{"name":"payAllForRangeSubmitter","type":"address","indexed":true,"internalType":"address"},{"name":"oldValue","type":"bool","indexed":true,"internalType":"bool"},{"name":"newValue","type":"bool","indexed":true,"internalType":"bool"}],"anonymous":false},{"type":"event","name":"PaymentClaimed","inputs":[{"name":"root","type":"bytes32","indexed":false,"internalType":"bytes32"},{"name":"earner","type":"address","indexed":true,"internalType":"address"},{"name":"claimer","type":"address","indexed":true,"internalType":"address"},{"name":"token","type":"address","indexed":true,"internalType":"contract IERC20"},{"name":"claimedAmount","type":"uint256","indexed":false,"internalType":"uint256"}],"anonymous":false},{"type":"event","name":"PaymentUpdaterSet","inputs":[{"name":"oldPaymentUpdater","type":"address","indexed":true,"internalType":"address"},{"name":"newPaymentUpdater","type":"address","indexed":true,"internalType":"address"}],"anonymous":false},{"type":"event","name":"RangePaymentCreated","inputs":[{"name":"avs","type":"address","indexed":true,"internalType":"address"},{"name":"paymentNonce","type":"uint256","indexed":true,"internalType":"uint256"},{"name":"rangePaymentHash","type":"bytes32","indexed":true,"internalType":"bytes32"},{"name":"rangePayment","type":"tuple","indexed":false,"internalType":"struct IPaymentCoordinator.RangePayment","components":[{"name":"strategiesAndMultipliers","type":"tuple[]","internalType":"struct IPaymentCoordinator.StrategyAndMultiplier[]","components":[{"name":"strategy","type":"address","internalType":"contract IStrategy"},{"name":"multiplier","type":"uint96","internalType":"uint96"}]},{"name":"token","type":"address","internalType":"contract IERC20"},{"name":"amount","type":"uint256","internalType":"uint256"},{"name":"startTimestamp","type":"uint32","internalType":"uint32"},{"name":"duration","type":"uint32","internalType":"uint32"}]}],"anonymous":false},{"type":"event","name":"RangePaymentForAllCreated","inputs":[{"name":"submitter","type":"address","indexed":true,"internalType":"address"},{"name":"paymentNonce","type":"uint256","indexed":true,"internalType":"uint256"},{"name":"rangePaymentHash","type":"bytes32","indexed":true,"internalType":"bytes32"},{"name":"rangePayment","type":"tuple","indexed":false,"internalType":"struct IPaymentCoordinator.RangePayment","components":[{"name":"strategiesAndMultipliers","type":"tuple[]","internalType":"struct IPaymentCoordinator.StrategyAndMultiplier[]","components":[{"name":"strategy","type":"address","internalType":"contract IStrategy"},{"name":"multiplier","type":"uint96","internalType":"uint96"}]},{"name":"token","type":"address","internalType":"contract IERC20"},{"name":"amount","type":"uint256","internalType":"uint256"},{"name":"startTimestamp","type":"uint32","internalType":"uint32"},{"name":"duration","type":"uint32","internalType":"uint32"}]}],"anonymous":false}],"bytecode":{"object":"0x608060405234801561001057600080fd5b50610450806100206000396000f3fe608060405234801561001057600080fd5b50600436106101375760003560e01c80633a8c0786116100b8578063865c69531161007c578063865c69531461021b578063a0169ddd14610194578063b5715284146101a2578063e221b24514610231578063ee6195971461013c578063f8cd84481461015f57600080fd5b80633a8c07861461013c5780633efe1db6146101da57806358baaa3e146101e85780635e9d8348146101f657806366d3b16b1461021457600080fd5b806318190f53116100ff57806318190f53146101945780631b445516146101a25780632b9f64a4146101b45780632cfd45eb1461013c57806337838ed01461013c57600080fd5b806304a0c5021461013c578063092db00714610150578063149bc8721461015f578063160bc83f14610181578063169bde2b1461013c575b600080fd5b604051600081526020015b60405180910390f35b60405160008152602001610147565b61017361016d366004610257565b50600090565b604051908152602001610147565b61019261018f36600461027a565b50565b005b61019261018f3660046102cb565b6101926101b03660046102e8565b5050565b6101c261016d3660046102cb565b6040516001600160a01b039091168152602001610147565b6101926101b0366004610376565b61019261018f3660046103a2565b61020461016d36600461027a565b6040519015158152602001610147565b60006101c2565b6101736102293660046103bd565b600092915050565b61019261018f3660046103f6565b60006040828403121561025157600080fd5b50919050565b60006040828403121561026957600080fd5b610273838361023f565b9392505050565b60006020828403121561028c57600080fd5b813567ffffffffffffffff8111156102a357600080fd5b8201610100818503121561027357600080fd5b6001600160a01b038116811461018f57600080fd5b6000602082840312156102dd57600080fd5b8135610273816102b6565b600080602083850312156102fb57600080fd5b823567ffffffffffffffff8082111561031357600080fd5b818501915085601f83011261032757600080fd5b81358181111561033657600080fd5b8660208260051b850101111561034b57600080fd5b60209290920196919550909350505050565b803563ffffffff8116811461037157600080fd5b919050565b6000806040838503121561038957600080fd5b823591506103996020840161035d565b90509250929050565b6000602082840312156103b457600080fd5b6102738261035d565b600080604083850312156103d057600080fd5b82356103db816102b6565b915060208301356103eb816102b6565b809150509250929050565b60006020828403121561040857600080fd5b813561ffff8116811461027357600080fdfea264697066735822122081f98d67ec1bf0c833e3b2fecdfd3ed50ae6db587a6de9f89db778ae15cb999364736f6c634300080c0033","linkReferences":{}},"methodIdentifiers":{"GENESIS_PAYMENT_TIMESTAMP()":"2cfd45eb","MAX_FUTURE_LENGTH()":"04a0c502","MAX_PAYMENT_DURATION()":"ee619597","MAX_RETROACTIVE_LENGTH()":"37838ed0","activationDelay()":"3a8c0786","calculateEarnerLeafHash((address,bytes32))":"149bc872","calculateTokenLeafHash((address,uint256))":"f8cd8448","calculationIntervalSeconds()":"169bde2b","checkClaim((uint32,uint32,bytes,(address,bytes32),uint32[],bytes[],(address,uint256)[]))":"5e9d8348","claimerFor(address)":"2b9f64a4","cumulativeClaimed(address,address)":"865c6953","globalOperatorCommissionBips()":"092db007","payAllForRange(((address,uint96)[],address,uint256,uint32,uint32)[])":"b5715284","payForRange(((address,uint96)[],address,uint256,uint32,uint32)[])":"1b445516","paymentUpdater()":"66d3b16b","processClaim((uint32,uint32,bytes,(address,bytes32),uint32[],bytes[],(address,uint256)[]))":"160bc83f","setActivationDelay(uint32)":"58baaa3e","setClaimerFor(address)":"a0169ddd","setGlobalOperatorCommission(uint16)":"e221b245","setPaymentUpdater(address)":"18190f53","submitRoot(bytes32,uint32)":"3efe1db6"},"id":84}