{"abi":[{"type":"constructor","inputs":[{"name":"_registryCoordinator","type":"address","internalType":"contract IRegistryCoordinator"},{"name":"_delegationManager","type":"address","internalType":"contract IDelegationManager"}],"stateMutability":"nonpayable"},{"type":"function","name":"MAX_WEIGHING_FUNCTION_LENGTH","inputs":[],"outputs":[{"name":"","type":"uint8","internalType":"uint8"}],"stateMutability":"view"},{"type":"function","name":"WEIGHTING_DIVISOR","inputs":[],"outputs":[{"name":"","type":"uint256","internalType":"uint256"}],"stateMutability":"view"},{"type":"function","name":"addStrategies","inputs":[{"name":"quorumNumber","type":"uint8","internalType":"uint8"},{"name":"_strategyParams","type":"tuple[]","internalType":"struct IStakeRegistry.StrategyParams[]","components":[{"name":"strategy","type":"address","internalType":"contract IStrategy"},{"name":"multiplier","type":"uint96","internalType":"uint96"}]}],"outputs":[],"stateMutability":"nonpayable"},{"type":"function","name":"applyDelta","inputs":[{"name":"value","type":"uint96","internalType":"uint96"},{"name":"delta","type":"int256","internalType":"int256"}],"outputs":[{"name":"","type":"uint96","internalType":"uint96"}],"stateMutability":"pure"},{"type":"function","name":"calculateDelta","inputs":[{"name":"prev","type":"uint96","internalType":"uint96"},{"name":"cur","type":"uint96","internalType":"uint96"}],"outputs":[{"name":"","type":"int256","internalType":"int256"}],"stateMutability":"pure"},{"type":"function","name":"delegation","inputs":[],"outputs":[{"name":"","type":"address","internalType":"contract IDelegationManager"}],"stateMutability":"view"},{"type":"function","name":"deregisterOperator","inputs":[{"name":"operatorId","type":"bytes32","internalType":"bytes32"},{"name":"quorumNumbers","type":"bytes","internalType":"bytes"}],"outputs":[],"stateMutability":"nonpayable"},{"type":"function","name":"getCurrentStake","inputs":[{"name":"operatorId","type":"bytes32","internalType":"bytes32"},{"name":"quorumNumber","type":"uint8","internalType":"uint8"}],"outputs":[{"name":"","type":"uint96","internalType":"uint96"}],"stateMutability":"view"},{"type":"function","name":"getCurrentTotalStake","inputs":[{"name":"quorumNumber","type":"uint8","internalType":"uint8"}],"outputs":[{"name":"","type":"uint96","internalType":"uint96"}],"stateMutability":"view"},{"type":"function","name":"getLatestStakeUpdate","inputs":[{"name":"operatorId","type":"bytes32","internalType":"bytes32"},{"name":"quorumNumber","type":"uint8","internalType":"uint8"}],"outputs":[{"name":"","type":"tuple","internalType":"struct IStakeRegistry.StakeUpdate","components":[{"name":"updateBlockNumber","type":"uint32","internalType":"uint32"},{"name":"nextUpdateBlockNumber","type":"uint32","internalType":"uint32"},{"name":"stake","type":"uint96","internalType":"uint96"}]}],"stateMutability":"view"},{"type":"function","name":"getStakeAtBlockNumber","inputs":[{"name":"operatorId","type":"bytes32","internalType":"bytes32"},{"name":"quorumNumber","type":"uint8","internalType":"uint8"},{"name":"blockNumber","type":"uint32","internalType":"uint32"}],"outputs":[{"name":"","type":"uint96","internalType":"uint96"}],"stateMutability":"view"},{"type":"function","name":"getStakeAtBlockNumberAndIndex","inputs":[{"name":"quorumNumber","type":"uint8","internalType":"uint8"},{"name":"blockNumber","type":"uint32","internalType":"uint32"},{"name":"operatorId","type":"bytes32","internalType":"bytes32"},{"name":"index","type":"uint256","internalType":"uint256"}],"outputs":[{"name":"","type":"uint96","internalType":"uint96"}],"stateMutability":"view"},{"type":"function","name":"getStakeHistory","inputs":[{"name":"operatorId","type":"bytes32","internalType":"bytes32"},{"name":"quorumNumber","type":"uint8","internalType":"uint8"}],"outputs":[{"name":"","type":"tuple[]","internalType":"struct IStakeRegistry.StakeUpdate[]","components":[{"name":"updateBlockNumber","type":"uint32","internalType":"uint32"},{"name":"nextUpdateBlockNumber","type":"uint32","internalType":"uint32"},{"name":"stake","type":"uint96","internalType":"uint96"}]}],"stateMutability":"view"},{"type":"function","name":"getStakeHistoryLength","inputs":[{"name":"operatorId","type":"bytes32","internalType":"bytes32"},{"name":"quorumNumber","type":"uint8","internalType":"uint8"}],"outputs":[{"name":"","type":"uint256","internalType":"uint256"}],"stateMutability":"view"},{"type":"function","name":"getStakeUpdateAtIndex","inputs":[{"name":"quorumNumber","type":"uint8","internalType":"uint8"},{"name":"operatorId","type":"bytes32","internalType":"bytes32"},{"name":"index","type":"uint256","internalType":"uint256"}],"outputs":[{"name":"","type":"tuple","internalType":"struct IStakeRegistry.StakeUpdate","components":[{"name":"updateBlockNumber","type":"uint32","internalType":"uint32"},{"name":"nextUpdateBlockNumber","type":"uint32","internalType":"uint32"},{"name":"stake","type":"uint96","internalType":"uint96"}]}],"stateMutability":"view"},{"type":"function","name":"getStakeUpdateIndexAtBlockNumber","inputs":[{"name":"operatorId","type":"bytes32","internalType":"bytes32"},{"name":"quorumNumber","type":"uint8","internalType":"uint8"},{"name":"blockNumber","type":"uint32","internalType":"uint32"}],"outputs":[{"name":"","type":"uint32","internalType":"uint32"}],"stateMutability":"view"},{"type":"function","name":"getTotalStakeAtBlockNumberFromIndex","inputs":[{"name":"quorumNumber","type":"uint8","internalType":"uint8"},{"name":"blockNumber","type":"uint32","internalType":"uint32"},{"name":"index","type":"uint256","internalType":"uint256"}],"outputs":[{"name":"","type":"uint96","internalType":"uint96"}],"stateMutability":"view"},{"type":"function","name":"getTotalStakeHistoryLength","inputs":[{"name":"quorumNumber","type":"uint8","internalType":"uint8"}],"outputs":[{"name":"","type":"uint256","internalType":"uint256"}],"stateMutability":"view"},{"type":"function","name":"getTotalStakeIndicesAtBlockNumber","inputs":[{"name":"blockNumber","type":"uint32","internalType":"uint32"},{"name":"quorumNumbers","type":"bytes","internalType":"bytes"}],"outputs":[{"name":"","type":"uint32[]","internalType":"uint32[]"}],"stateMutability":"view"},{"type":"function","name":"getTotalStakeUpdateAtIndex","inputs":[{"name":"quorumNumber","type":"uint8","internalType":"uint8"},{"name":"index","type":"uint256","internalType":"uint256"}],"outputs":[{"name":"","type":"tuple","internalType":"struct IStakeRegistry.StakeUpdate","components":[{"name":"updateBlockNumber","type":"uint32","internalType":"uint32"},{"name":"nextUpdateBlockNumber","type":"uint32","internalType":"uint32"},{"name":"stake","type":"uint96","internalType":"uint96"}]}],"stateMutability":"view"},{"type":"function","name":"initializeQuorum","inputs":[{"name":"quorumNumber","type":"uint8","internalType":"uint8"},{"name":"minimumStake","type":"uint96","internalType":"uint96"},{"name":"_strategyParams","type":"tuple[]","internalType":"struct IStakeRegistry.StrategyParams[]","components":[{"name":"strategy","type":"address","internalType":"contract IStrategy"},{"name":"multiplier","type":"uint96","internalType":"uint96"}]}],"outputs":[],"stateMutability":"nonpayable"},{"type":"function","name":"minimumStakeForQuorum","inputs":[{"name":"","type":"uint8","internalType":"uint8"}],"outputs":[{"name":"","type":"uint96","internalType":"uint96"}],"stateMutability":"view"},{"type":"function","name":"modifyStrategyParams","inputs":[{"name":"quorumNumber","type":"uint8","internalType":"uint8"},{"name":"strategyIndices","type":"uint256[]","internalType":"uint256[]"},{"name":"newMultipliers","type":"uint96[]","internalType":"uint96[]"}],"outputs":[],"stateMutability":"nonpayable"},{"type":"function","name":"recordOperatorStakeUpdate","inputs":[{"name":"operatorId","type":"bytes32","internalType":"bytes32"},{"name":"quorumNumber","type":"uint8","internalType":"uint8"},{"name":"newStake","type":"uint96","internalType":"uint96"}],"outputs":[{"name":"","type":"int256","internalType":"int256"}],"stateMutability":"nonpayable"},{"type":"function","name":"recordTotalStakeUpdate","inputs":[{"name":"quorumNumber","type":"uint8","internalType":"uint8"},{"name":"stakeDelta","type":"int256","internalType":"int256"}],"outputs":[],"stateMutability":"nonpayable"},{"type":"function","name":"registerOperator","inputs":[{"name":"operator","type":"address","internalType":"address"},{"name":"operatorId","type":"bytes32","internalType":"bytes32"},{"name":"quorumNumbers","type":"bytes","internalType":"bytes"}],"outputs":[{"name":"","type":"uint96[]","internalType":"uint96[]"},{"name":"","type":"uint96[]","internalType":"uint96[]"}],"stateMutability":"nonpayable"},{"type":"function","name":"registryCoordinator","inputs":[],"outputs":[{"name":"","type":"address","internalType":"address"}],"stateMutability":"view"},{"type":"function","name":"removeStrategies","inputs":[{"name":"quorumNumber","type":"uint8","internalType":"uint8"},{"name":"indicesToRemove","type":"uint256[]","internalType":"uint256[]"}],"outputs":[],"stateMutability":"nonpayable"},{"type":"function","name":"setMinimumStakeForQuorum","inputs":[{"name":"quorumNumber","type":"uint8","internalType":"uint8"},{"name":"minimumStake","type":"uint96","internalType":"uint96"}],"outputs":[],"stateMutability":"nonpayable"},{"type":"function","name":"strategiesPerQuorum","inputs":[{"name":"","type":"uint8","internalType":"uint8"},{"name":"","type":"uint256","internalType":"uint256"}],"outputs":[{"name":"","type":"address","internalType":"contract IStrategy"}],"stateMutability":"view"},{"type":"function","name":"strategyParams","inputs":[{"name":"","type":"uint8","internalType":"uint8"},{"name":"","type":"uint256","internalType":"uint256"}],"outputs":[{"name":"strategy","type":"address","internalType":"contract IStrategy"},{"name":"multiplier","type":"uint96","internalType":"uint96"}],"stateMutability":"view"},{"type":"function","name":"strategyParamsByIndex","inputs":[{"name":"quorumNumber","type":"uint8","internalType":"uint8"},{"name":"index","type":"uint256","internalType":"uint256"}],"outputs":[{"name":"","type":"tuple","internalType":"struct IStakeRegistry.StrategyParams","components":[{"name":"strategy","type":"address","internalType":"contract IStrategy"},{"name":"multiplier","type":"uint96","internalType":"uint96"}]}],"stateMutability":"view"},{"type":"function","name":"strategyParamsLength","inputs":[{"name":"quorumNumber","type":"uint8","internalType":"uint8"}],"outputs":[{"name":"","type":"uint256","internalType":"uint256"}],"stateMutability":"view"},{"type":"function","name":"updateOperatorStake","inputs":[{"name":"operator","type":"address","internalType":"address"},{"name":"operatorId","type":"bytes32","internalType":"bytes32"},{"name":"quorumNumbers","type":"bytes","internalType":"bytes"}],"outputs":[{"name":"","type":"uint192","internalType":"uint192"}],"stateMutability":"nonpayable"},{"type":"function","name":"weightOfOperatorForQuorum","inputs":[{"name":"quorumNumber","type":"uint8","internalType":"uint8"},{"name":"operator","type":"address","internalType":"address"}],"outputs":[{"name":"","type":"uint96","internalType":"uint96"}],"stateMutability":"view"},{"type":"event","name":"MinimumStakeForQuorumUpdated","inputs":[{"name":"quorumNumber","type":"uint8","indexed":true,"internalType":"uint8"},{"name":"minimumStake","type":"uint96","indexed":false,"internalType":"uint96"}],"anonymous":false},{"type":"event","name":"OperatorStakeUpdate","inputs":[{"name":"operatorId","type":"bytes32","indexed":true,"internalType":"bytes32"},{"name":"quorumNumber","type":"uint8","indexed":false,"internalType":"uint8"},{"name":"stake","type":"uint96","indexed":false,"internalType":"uint96"}],"anonymous":false},{"type":"event","name":"QuorumCreated","inputs":[{"name":"quorumNumber","type":"uint8","indexed":true,"internalType":"uint8"}],"anonymous":false},{"type":"event","name":"StrategyAddedToQuorum","inputs":[{"name":"quorumNumber","type":"uint8","indexed":true,"internalType":"uint8"},{"name":"strategy","type":"address","indexed":false,"internalType":"contract IStrategy"}],"anonymous":false},{"type":"event","name":"StrategyMultiplierUpdated","inputs":[{"name":"quorumNumber","type":"uint8","indexed":true,"internalType":"uint8"},{"name":"strategy","type":"address","indexed":false,"internalType":"contract IStrategy"},{"name":"multiplier","type":"uint256","indexed":false,"internalType":"uint256"}],"anonymous":false},{"type":"event","name":"StrategyRemovedFromQuorum","inputs":[{"name":"quorumNumber","type":"uint8","indexed":true,"internalType":"uint8"},{"name":"strategy","type":"address","indexed":false,"internalType":"contract IStrategy"}],"anonymous":false}],"bytecode":{"object":"0x60c06040523480156200001157600080fd5b5060405162003a6a38038062003a6a833981016040819052620000349162000065565b6001600160a01b0391821660a05216608052620000a4565b6001600160a01b03811681146200006257600080fd5b50565b600080604083850312156200007957600080fd5b825162000086816200004c565b602084015190925062000099816200004c565b809150509250929050565b60805160a05161396162000109600039600081816103b9015281816106b9015281816109f601528181610d6d01528181611198015281816117ab015281816118a8015281816119cc0152611d8e01526000818161058e01526120c901526139616000f3fe608060405234801561001057600080fd5b50600436106102115760003560e01c806381c0750211610125578063c8294c56116100ad578063f2be94ae1161007c578063f2be94ae146105b0578063f509551a146105c3578063f851e198146105d6578063fa28c627146105e9578063ff694a77146105fc57600080fd5b8063c8294c561461053b578063d5eccc051461054e578063dd9846b914610561578063df5cf7231461058957600080fd5b8063b6904b78116100f4578063b6904b78146104c6578063bc9a40c3146104d9578063bd29b8cd146104ec578063c46778a5146104ff578063c601527d1461052857600080fd5b806381c07502146104335780639f3ccf6514610453578063ac6bfb0314610466578063adc804da1461048657600080fd5b80634bd26e09116101a857806366acfefe1161017757806366acfefe146103895780636d14a987146103b457806374454c6d146103f35780637c172347146104065780637f4298221461042057600080fd5b80634bd26e09146103245780635401ed27146103545780635e5a6775146103675780635f1f2d771461037657600080fd5b806320b66298116101e457806320b66298146102ad57806325504777146102c05780632cd95940146102e15780633ca5a5f51461030157600080fd5b80630390a4d5146102165780630491b41c1461022b57806308732461146102615780631f9b74e014610282575b600080fd5b610229610224366004612cce565b61060f565b005b61024e610239366004612cf8565b60ff1660009081526001602052604090205490565b6040519081526020015b60405180910390f35b61027461026f366004612cce565b61061e565b604051610258929190612d13565b610295610290366004612d4d565b610667565b6040516001600160601b039091168152602001610258565b6102296102bb366004612dc8565b6106b7565b6102d36102ce366004612e89565b6109e8565b604051610258929190612f28565b6102f46102ef366004612f4d565b610cb3565b6040516102589190612f79565b61024e61030f366004612cf8565b60ff1660009081526003602052604090205490565b61024e610332366004612f4d565b600091825260026020908152604080842060ff93909316845291905290205490565b610295610362366004612f4d565b610d52565b61024e670de0b6b3a764000081565b610229610384366004613082565b610d6b565b61039c610397366004612e89565b61118b565b6040516001600160c01b039091168152602001610258565b6103db7f000000000000000000000000000000000000000000000000000000000000000081565b6040516001600160a01b039091168152602001610258565b61024e610401366004613141565b6112e5565b61040e602081565b60405160ff9091168152602001610258565b61029561042e36600461317d565b6112fc565b6104466104413660046131ad565b611308565b60405161025891906131ff565b6103db610461366004612cce565b6115d0565b61047961047436600461323d565b611608565b6040516102589190613270565b610499610494366004612cce565b6116a0565b6040805182516001600160a01b031681526020928301516001600160601b03169281019290925201610258565b6104796104d4366004612cce565b61171a565b6102296104e73660046132a5565b6117a9565b6102296104fa3660046132cf565b61189d565b61029561050d366004612cf8565b6000602081905290815260409020546001600160601b031681565b61022961053636600461339b565b6119ca565b6102956105493660046133e8565b611abe565b61029561055c366004612cf8565b611b3c565b61057461056f366004613424565b611b8f565b60405163ffffffff9091168152602001610258565b6103db7f000000000000000000000000000000000000000000000000000000000000000081565b6102956105be366004613457565b611b9c565b61024e6105d1366004613499565b611c31565b6104796105e4366004612f4d565b611c3d565b6102956105f7366004613424565b611d22565b61022961060a3660046134b5565b611d83565b6106198282611eee565b505050565b6003602052816000526040600020818154811061063a57600080fd5b6000918252602090912001546001600160a01b0381169250600160a01b90046001600160601b0316905082565b60ff821660009081526001602052604081205483906106a15760405162461bcd60e51b815260040161069890613512565b60405180910390fd5b60006106ad8585612068565b5095945050505050565b7f00000000000000000000000000000000000000000000000000000000000000006001600160a01b0316638da5cb5b6040518163ffffffff1660e01b8152600401602060405180830381865afa158015610715573d6000803e3d6000fd5b505050506040513d601f19601f820116820180604052508101906107399190613563565b6001600160a01b0316336001600160a01b0316146107695760405162461bcd60e51b815260040161069890613580565b846107858160ff16600090815260016020526040902054151590565b6107a15760405162461bcd60e51b815260040161069890613512565b8380610817576040805162461bcd60e51b81526020600482015260248101919091527f5374616b6552656769737472792e6d6f6469667953747261746567795061726160448201527f6d733a206e6f20737472617465677920696e64696365732070726f76696465646064820152608401610698565b82811461088c5760405162461bcd60e51b815260206004820152603960248201527f5374616b6552656769737472792e6d6f6469667953747261746567795061726160448201527f6d733a20696e707574206c656e677468206d69736d61746368000000000000006064820152608401610698565b60ff87166000908152600360205260408120905b828110156109dd578585828181106108ba576108ba6135fc565b90506020020160208101906108cf9190613612565b828989848181106108e2576108e26135fc565b90506020020135815481106108f9576108f96135fc565b9060005260206000200160000160146101000a8154816001600160601b0302191690836001600160601b031602179055508860ff167f11a5641322da1dff56a4b66eaac31ffa465295ece907cd163437793b4d009a75838a8a85818110610962576109626135fc565b9050602002013581548110610979576109796135fc565b6000918252602090912001546001600160a01b03168888858181106109a0576109a06135fc565b90506020020160208101906109b59190613612565b6040516109c3929190612d13565b60405180910390a2806109d581613643565b9150506108a0565b505050505050505050565b606080336001600160a01b037f00000000000000000000000000000000000000000000000000000000000000001614610a335760405162461bcd60e51b81526004016106989061365e565b6000836001600160401b03811115610a4d57610a4d612ff1565b604051908082528060200260200182016040528015610a76578160200160208202803683370190505b5090506000846001600160401b03811115610a9357610a93612ff1565b604051908082528060200260200182016040528015610abc578160200160208202803683370190505b50905060005b85811015610ca5576000878783818110610ade57610ade6135fc565b919091013560f81c60008181526001602052604090205490925015159050610b665760405162461bcd60e51b815260206004820152603560248201527f5374616b6552656769737472792e72656769737465724f70657261746f723a206044820152741c5d5bdc9d5b48191bd95cc81b9bdd08195e1a5cdd605a1b6064820152608401610698565b600080610b73838d612068565b9150915080610c105760405162461bcd60e51b815260206004820152605b60248201527f5374616b6552656769737472792e72656769737465724f70657261746f723a2060448201527f4f70657261746f7220646f6573206e6f74206d656574206d696e696d756d207360648201527f74616b6520726571756972656d656e7420666f722071756f72756d0000000000608482015260a401610698565b6000610c1d8c8585612266565b905082878681518110610c3257610c326135fc565b60200260200101906001600160601b031690816001600160601b031681525050610c5c8482611eee565b868681518110610c6e57610c6e6135fc565b60200260200101906001600160601b031690816001600160601b031681525050505050508080610c9d90613643565b915050610ac2565b509097909650945050505050565b600082815260026020908152604080832060ff851684528252808320805482518185028101850190935280835260609492939192909184015b82821015610d45576000848152602090819020604080516060810182529185015463ffffffff8082168452600160201b82041683850152600160401b90046001600160601b031690820152825260019092019101610cec565b5050505090505b92915050565b600080610d5f8484611c3d565b60400151949350505050565b7f00000000000000000000000000000000000000000000000000000000000000006001600160a01b0316638da5cb5b6040518163ffffffff1660e01b8152600401602060405180830381865afa158015610dc9573d6000803e3d6000fd5b505050506040513d601f19601f82011682018060405250810190610ded9190613563565b6001600160a01b0316336001600160a01b031614610e1d5760405162461bcd60e51b815260040161069890613580565b81610e398160ff16600090815260016020526040902054151590565b610e555760405162461bcd60e51b815260040161069890613512565b815180610eca5760405162461bcd60e51b815260206004820152603d60248201527f5374616b6552656769737472792e72656d6f7665537472617465676965733a2060448201527f6e6f20696e646963657320746f2072656d6f76652070726f76696465640000006064820152608401610698565b60ff841660009081526003602090815260408083206004909252822090915b83811015611182578660ff167f31fa2e2cd280c9375e13ffcf3d81e2378100186e4058f8d3ddb690b82dcd31f784888481518110610f2957610f296135fc565b602002602001015181548110610f4157610f416135fc565b600091825260209182902001546040516001600160a01b0390911681520160405180910390a28660ff167f11a5641322da1dff56a4b66eaac31ffa465295ece907cd163437793b4d009a7584888481518110610f9f57610f9f6135fc565b602002602001015181548110610fb757610fb76135fc565b600091825260208083209190910154604080516001600160a01b039092168252918101929092520160405180910390a282548390610ff7906001906136d0565b81548110611007576110076135fc565b9060005260206000200183878381518110611024576110246135fc565b60200260200101518154811061103c5761103c6135fc565b600091825260209091208254910180546001600160a01b0319166001600160a01b03909216918217815591546001600160601b03600160a01b918290041602179055825483908061108f5761108f6136e7565b600082815260208120820160001990810191909155019055815482906110b7906001906136d0565b815481106110c7576110c76135fc565b9060005260206000200160009054906101000a90046001600160a01b0316828783815181106110f8576110f86135fc565b602002602001015181548110611110576111106135fc565b9060005260206000200160006101000a8154816001600160a01b0302191690836001600160a01b031602179055508180548061114e5761114e6136e7565b600082815260209020810160001990810180546001600160a01b03191690550190558061117a81613643565b915050610ee9565b50505050505050565b6000336001600160a01b037f000000000000000000000000000000000000000000000000000000000000000016146111d55760405162461bcd60e51b81526004016106989061365e565b6000805b838110156106ad5760008585838181106111f5576111f56135fc565b919091013560f81c600081815260016020526040902054909250151590506112855760405162461bcd60e51b815260206004820152603860248201527f5374616b6552656769737472792e7570646174654f70657261746f725374616b60448201527f653a2071756f72756d20646f6573206e6f7420657869737400000000000000006064820152608401610698565b600080611292838b612068565b91509150806112b45760009150600160ff84161b6001600160c01b0386161794505b60006112c18a8585612266565b90506112cd8482611eee565b505050505080806112dd90613643565b9150506111d9565b60006112f2848484612266565b90505b9392505050565b60006112f583836124e6565b60606000826001600160401b0381111561132457611324612ff1565b60405190808252806020026020018201604052801561134d578160200160208202803683370190505b50905060005b838110156115c757600085858381811061136f5761136f6135fc565b919091013560f81c6000818152600160205260409020549092501515905061140e5760405162461bcd60e51b815260206004820152604660248201527f5374616b6552656769737472792e676574546f74616c5374616b65496e64696360448201527f65734174426c6f636b4e756d6265723a2071756f72756d20646f6573206e6f7460648201526508195e1a5cdd60d21b608482015260a401610698565b60ff81166000908152600160205260408120805463ffffffff8a169290611437576114376135fc565b60009182526020909120015463ffffffff1611156114e35760405162461bcd60e51b815260206004820152605b60248201527f5374616b6552656769737472792e676574546f74616c5374616b65496e64696360448201527f65734174426c6f636b4e756d6265723a2071756f72756d20686173206e6f207360648201527f74616b6520686973746f727920617420626c6f636b4e756d6265720000000000608482015260a401610698565b60ff8116600090815260016020526040812054905b818110156115b15760ff8316600090815260016020819052604090912063ffffffff8b169161152784866136d0565b61153191906136d0565b81548110611541576115416135fc565b60009182526020909120015463ffffffff161161159f57600161156482846136d0565b61156e91906136d0565b858581518110611580576115806135fc565b602002602001019063ffffffff16908163ffffffff16815250506115b1565b806115a981613643565b9150506114f8565b50505080806115bf90613643565b915050611353565b50949350505050565b600460205281600052604060002081815481106115ec57600080fd5b6000918252602090912001546001600160a01b03169150829050565b60408051606081018252600080825260208083018290528284018290528582526002815283822060ff8816835290529190912080548390811061164d5761164d6135fc565b600091825260209182902060408051606081018252929091015463ffffffff8082168452600160201b82041693830193909352600160401b9092046001600160601b031691810191909152949350505050565b604080518082019091526000808252602082015260ff831660009081526003602052604090208054839081106116d8576116d86135fc565b6000918252602091829020604080518082019091529101546001600160a01b0381168252600160a01b90046001600160601b0316918101919091529392505050565b604080516060810182526000808252602080830182905282840182905260ff861682526001905291909120805483908110611757576117576135fc565b600091825260209182902060408051606081018252929091015463ffffffff8082168452600160201b82041693830193909352600160401b9092046001600160601b0316918101919091529392505050565b7f00000000000000000000000000000000000000000000000000000000000000006001600160a01b0316638da5cb5b6040518163ffffffff1660e01b8152600401602060405180830381865afa158015611807573d6000803e3d6000fd5b505050506040513d601f19601f8201168201806040525081019061182b9190613563565b6001600160a01b0316336001600160a01b03161461185b5760405162461bcd60e51b815260040161069890613580565b816118778160ff16600090815260016020526040902054151590565b6118935760405162461bcd60e51b815260040161069890613512565b6106198383612514565b336001600160a01b037f000000000000000000000000000000000000000000000000000000000000000016146118e55760405162461bcd60e51b81526004016106989061365e565b60005b818110156119c4576000838383818110611904576119046135fc565b919091013560f81c600081815260016020526040902054909250151590506119945760405162461bcd60e51b815260206004820152603760248201527f5374616b6552656769737472792e646572656769737465724f70657261746f7260448201527f3a2071756f72756d20646f6573206e6f742065786973740000000000000000006064820152608401610698565b60006119a286836000612266565b90506119ae8282611eee565b50505080806119bc90613643565b9150506118e8565b50505050565b7f00000000000000000000000000000000000000000000000000000000000000006001600160a01b0316638da5cb5b6040518163ffffffff1660e01b8152600401602060405180830381865afa158015611a28573d6000803e3d6000fd5b505050506040513d601f19601f82011682018060405250810190611a4c9190613563565b6001600160a01b0316336001600160a01b031614611a7c5760405162461bcd60e51b815260040161069890613580565b81611a988160ff16600090815260016020526040902054151590565b611ab45760405162461bcd60e51b815260040161069890613512565b610619838361257d565b60ff83166000908152600160205260408120805482919084908110611ae557611ae56135fc565b600091825260209182902060408051606081018252919092015463ffffffff8082168352600160201b820416938201939093526001600160601b03600160401b90930492909216908201529050610d5f81856129c0565b60ff81166000908152600160208190526040822080549091611b5d916136d0565b81548110611b6d57611b6d6135fc565b600091825260209091200154600160401b90046001600160601b031692915050565b60006112f2848484612b3a565b600082815260026020908152604080832060ff881684529091528120805482919084908110611bcd57611bcd6135fc565b600091825260209182902060408051606081018252919092015463ffffffff8082168352600160201b820416938201939093526001600160601b03600160401b90930492909216908201529050611c2481866129c0565b6040015195945050505050565b60006112f58383612ca0565b6040805160608082018352600080835260208084018290528385018290528682526002815284822060ff87168352815284822054855193840186528284529083018290529382015290919081611c96579150610d4c9050565b600085815260026020908152604080832060ff881684529091529020611cbd6001846136d0565b81548110611ccd57611ccd6135fc565b600091825260209182902060408051606081018252919092015463ffffffff8082168352600160201b820416938201939093526001600160601b03600160401b90930492909216908201529250610d4c915050565b600083815260026020908152604080832060ff861684529091528120611d49858585612b3a565b63ffffffff1681548110611d5f57611d5f6135fc565b600091825260209091200154600160401b90046001600160601b0316949350505050565b336001600160a01b037f00000000000000000000000000000000000000000000000000000000000000001614611dcb5760405162461bcd60e51b81526004016106989061365e565b60ff831660009081526001602052604090205415611e495760405162461bcd60e51b815260206004820152603560248201527f5374616b6552656769737472792e696e697469616c697a6551756f72756d3a2060448201527471756f72756d20616c72656164792065786973747360581b6064820152608401610698565b611e53838261257d565b611e5d8383612514565b505060ff166000908152600160208181526040808420815160608101835263ffffffff438116825281850187815293820187815283549687018455928752939095209451949093018054915193516001600160601b0316600160401b02600160401b600160a01b0319948416600160201b0267ffffffffffffffff1990931695909316949094171791909116179055565b60ff821660009081526001602081905260408220805491839190611f1290846136d0565b81548110611f2257611f226135fc565b9060005260206000200190508360001415611f515754600160401b90046001600160601b03169150610d4c9050565b8054600090611f7090600160401b90046001600160601b0316866124e6565b82549091504363ffffffff90811691161415611fad578154600160401b600160a01b031916600160401b6001600160601b0383160217825561205f565b815463ffffffff438116600160201b81810267ffffffff000000001990941693909317855560ff8916600090815260016020818152604080842081516060810183529586528583018581526001600160601b03808b169388019384528254958601835591865292909420945194909201805491519251909316600160401b02600160401b600160a01b031992861690960267ffffffffffffffff19909116939094169290921792909217169190911790555b95945050505050565b6000806000806120878660ff1660009081526003602052604090205490565b604080518082019091526000808252602082015290915060ff871660009081526004602081905260408083209051639004134760e01b81526001600160a01b037f000000000000000000000000000000000000000000000000000000000000000016926390041347926120fc928c92016136fd565b600060405180830381865afa158015612119573d6000803e3d6000fd5b505050506040513d6000823e601f3d908101601f19168201604052612141919081019061375c565b905060005b838110156122325760ff89166000908152600360205260409020805482908110612172576121726135fc565b60009182526020808320604080518082019091529201546001600160a01b0381168352600160a01b90046001600160601b03169082015283519094508390839081106121c0576121c06135fc565b6020026020010151111561222057670de0b6b3a764000083602001516001600160601b03168383815181106121f7576121f76135fc565b602002602001015161220991906137ec565b612213919061380b565b61221d908661382d565b94505b8061222a81613643565b915050612146565b50505060ff8616600090815260208190526040902054919350506001600160601b03908116908316101590505b9250929050565b600083815260026020908152604080832060ff8616845290915281205481908061232a57600086815260026020908152604080832060ff891684528252808320815160608101835263ffffffff43811682528185018681526001600160601b03808c16958401958652845460018101865594885295909620915191909201805495519351909416600160401b02600160401b600160a01b0319938316600160201b0267ffffffffffffffff199096169190921617939093171691909117905561248c565b600086815260026020908152604080832060ff8916845290915281206123516001846136d0565b81548110612361576123616135fc565b600091825260209091200180546001600160601b03600160401b90910481169450909150851683141561239a57600093505050506112f5565b80544363ffffffff908116911614156123d4578054600160401b600160a01b031916600160401b6001600160601b0387160217815561248a565b805467ffffffff000000001916600160201b4363ffffffff90811682810293909317845560008a815260026020908152604080832060ff8d168452825280832081516060810183529687528683018481526001600160601b038d81169389019384528254600181018455928652939094209651960180549351915196851667ffffffffffffffff1990941693909317931690930291909117600160401b600160a01b031916600160401b93909216929092021790555b505b6040805160ff871681526001600160601b038616602082015287917f2f527d527e95d8fe40aec55377743bb779087da3f6d0d08f12e36444da62327d910160405180910390a26124dc8285612ca0565b9695505050505050565b60008082121561250a576124f982613858565b6125039084613875565b9050610d4c565b612503828461382d565b60ff82166000818152602081815260409182902080546bffffffffffffffffffffffff19166001600160601b03861690811790915591519182527f26eecff2b70b0a71104ff4d940ba7162d23a95c248771fc487a7be17a596b3cf910160405180910390a25050565b60008151116125e25760405162461bcd60e51b8152602060048201526038602482015260008051602061390c83398151915260448201527f3a206e6f20737472617465676965732070726f766964656400000000000000006064820152608401610698565b805160ff831660009081526003602090815260409091205490612605838361389d565b11156126755760405162461bcd60e51b8152602060048201526045602482015260008051602061390c83398151915260448201527f3a20657863656564204d41585f5745494748494e475f46554e4354494f4e5f4c60648201526408a9c8ea8960db1b608482015260a401610698565b60005b828110156129b95760005b61268d828461389d565b81101561276e578482815181106126a6576126a66135fc565b6020026020010151600001516001600160a01b0316600360008860ff1660ff16815260200190815260200160002082815481106126e5576126e56135fc565b6000918252602090912001546001600160a01b0316141561275c5760405162461bcd60e51b815260206004820152603d602482015260008051602061390c83398151915260448201527f3a2063616e6e6f74206164642073616d652073747261746567792032780000006064820152608401610698565b8061276681613643565b915050612683565b506000848281518110612783576127836135fc565b6020026020010151602001516001600160601b0316116128085760405162461bcd60e51b8152602060048201526046602482015260008051602061390c83398151915260448201527f3a2063616e6e6f74206164642073747261746567792077697468207a65726f206064820152651dd95a59da1d60d21b608482015260a401610698565b60ff85166000908152600360205260409020845185908390811061282e5761282e6135fc565b602090810291909101810151825460018101845560009384528284208251928401516001600160601b0316600160a01b026001600160a01b039093169290921791015560ff8716825260049052604090208451859083908110612893576128936135fc565b6020908102919091018101515182546001810184556000938452919092200180546001600160a01b0319166001600160a01b03909216919091179055835160ff8616907f10565e56cacbf32eca267945f054fec02e59750032d113d3302182ad967f54049086908490811061290a5761290a6135fc565b602090810291909101810151516040516001600160a01b0390911681520160405180910390a28460ff167f11a5641322da1dff56a4b66eaac31ffa465295ece907cd163437793b4d009a75858381518110612967576129676135fc565b602002602001015160000151868481518110612985576129856135fc565b60200260200101516020015160405161299f929190612d13565b60405180910390a2806129b181613643565b915050612678565b5050505050565b816000015163ffffffff168163ffffffff161015612a655760405162461bcd60e51b815260206004820152605660248201527f5374616b6552656769737472792e5f76616c69646174655374616b655570646160448201527f74654174426c6f636b4e756d6265723a207374616b6555706461746520697320606482015275333937b69030b33a32b910313637b1b5a73ab6b132b960511b608482015260a401610698565b602082015163ffffffff161580612a8b5750816020015163ffffffff168163ffffffff16105b612b365760405162461bcd60e51b815260206004820152606a60248201527f5374616b6552656769737472792e5f76616c69646174655374616b655570646160448201527f74654174426c6f636b4e756d6265723a2074686572652069732061206e65776560648201527f72207374616b6555706461746520617661696c61626c65206265666f726520626084820152693637b1b5a73ab6b132b960b11b60a482015260c401610698565b5050565b600083815260026020908152604080832060ff86168452909152812054805b8015612bdb57600086815260026020908152604080832060ff89168452909152902063ffffffff851690612b8e6001846136d0565b81548110612b9e57612b9e6135fc565b60009182526020909120015463ffffffff1611612bc957612bc06001826136d0565b925050506112f5565b80612bd3816138b5565b915050612b59565b5060405162461bcd60e51b815260206004820152608160248201527f5374616b6552656769737472792e5f6765745374616b65557064617465496e6460448201527f6578466f724f70657261746f724174426c6f636b4e756d6265723a206e6f207360648201527f74616b652075706461746520666f756e6420666f72206f70657261746f72496460848201527f20616e642071756f72756d4e756d62657220617420626c6f636b206e756d626560a4820152603960f91b60c482015260e401610698565b60006112f56001600160601b038085169084166138cc565b803560ff81168114612cc957600080fd5b919050565b60008060408385031215612ce157600080fd5b612cea83612cb8565b946020939093013593505050565b600060208284031215612d0a57600080fd5b6112f582612cb8565b6001600160a01b039290921682526001600160601b0316602082015260400190565b6001600160a01b0381168114612d4a57600080fd5b50565b60008060408385031215612d6057600080fd5b612d6983612cb8565b91506020830135612d7981612d35565b809150509250929050565b60008083601f840112612d9657600080fd5b5081356001600160401b03811115612dad57600080fd5b6020830191508360208260051b850101111561225f57600080fd5b600080600080600060608688031215612de057600080fd5b612de986612cb8565b945060208601356001600160401b0380821115612e0557600080fd5b612e1189838a01612d84565b90965094506040880135915080821115612e2a57600080fd5b50612e3788828901612d84565b969995985093965092949392505050565b60008083601f840112612e5a57600080fd5b5081356001600160401b03811115612e7157600080fd5b60208301915083602082850101111561225f57600080fd5b60008060008060608587031215612e9f57600080fd5b8435612eaa81612d35565b93506020850135925060408501356001600160401b03811115612ecc57600080fd5b612ed887828801612e48565b95989497509550505050565b600081518084526020808501945080840160005b83811015612f1d5781516001600160601b031687529582019590820190600101612ef8565b509495945050505050565b604081526000612f3b6040830185612ee4565b828103602084015261205f8185612ee4565b60008060408385031215612f6057600080fd5b82359150612f7060208401612cb8565b90509250929050565b6020808252825182820181905260009190848201906040850190845b81811015612fe557612fd283855163ffffffff808251168352806020830151166020840152506001600160601b0360408201511660408301525050565b9284019260609290920191600101612f95565b50909695505050505050565b634e487b7160e01b600052604160045260246000fd5b604080519081016001600160401b038111828210171561302957613029612ff1565b60405290565b604051601f8201601f191681016001600160401b038111828210171561305757613057612ff1565b604052919050565b60006001600160401b0382111561307857613078612ff1565b5060051b60200190565b6000806040838503121561309557600080fd5b61309e83612cb8565b91506020808401356001600160401b038111156130ba57600080fd5b8401601f810186136130cb57600080fd5b80356130de6130d98261305f565b61302f565b81815260059190911b820183019083810190888311156130fd57600080fd5b928401925b8284101561311b57833582529284019290840190613102565b80955050505050509250929050565b80356001600160601b0381168114612cc957600080fd5b60008060006060848603121561315657600080fd5b8335925061316660208501612cb8565b91506131746040850161312a565b90509250925092565b6000806040838503121561319057600080fd5b612cea8361312a565b803563ffffffff81168114612cc957600080fd5b6000806000604084860312156131c257600080fd5b6131cb84613199565b925060208401356001600160401b038111156131e657600080fd5b6131f286828701612e48565b9497909650939450505050565b6020808252825182820181905260009190848201906040850190845b81811015612fe557835163ffffffff168352928401929184019160010161321b565b60008060006060848603121561325257600080fd5b61325b84612cb8565b95602085013595506040909401359392505050565b815163ffffffff9081168252602080840151909116908201526040808301516001600160601b03169082015260608101610d4c565b600080604083850312156132b857600080fd5b6132c183612cb8565b9150612f706020840161312a565b6000806000604084860312156132e457600080fd5b8335925060208401356001600160401b038111156131e657600080fd5b600082601f83011261331257600080fd5b813560206133226130d98361305f565b82815260069290921b8401810191818101908684111561334157600080fd5b8286015b84811015613390576040818903121561335e5760008081fd5b613366613007565b813561337181612d35565b815261337e82860161312a565b81860152835291830191604001613345565b509695505050505050565b600080604083850312156133ae57600080fd5b6133b783612cb8565b915060208301356001600160401b038111156133d257600080fd5b6133de85828601613301565b9150509250929050565b6000806000606084860312156133fd57600080fd5b61340684612cb8565b925061341460208501613199565b9150604084013590509250925092565b60008060006060848603121561343957600080fd5b8335925061344960208501612cb8565b915061317460408501613199565b6000806000806080858703121561346d57600080fd5b61347685612cb8565b935061348460208601613199565b93969395505050506040820135916060013590565b600080604083850312156134ac57600080fd5b6132c18361312a565b6000806000606084860312156134ca57600080fd5b6134d384612cb8565b92506134e16020850161312a565b915060408401356001600160401b038111156134fc57600080fd5b61350886828701613301565b9150509250925092565b60208082526031908201527f5374616b6552656769737472792e71756f72756d4578697374733a2071756f726040820152701d5b48191bd95cc81b9bdd08195e1a5cdd607a1b606082015260800190565b60006020828403121561357557600080fd5b81516112f581612d35565b60208082526056908201527f5374616b6552656769737472792e6f6e6c79436f6f7264696e61746f724f776e60408201527f65723a2063616c6c6572206973206e6f7420746865206f776e6572206f6620746060820152753432903932b3b4b9ba393ca1b7b7b93234b730ba37b960511b608082015260a00190565b634e487b7160e01b600052603260045260246000fd5b60006020828403121561362457600080fd5b6112f58261312a565b634e487b7160e01b600052601160045260246000fd5b60006000198214156136575761365761362d565b5060010190565b6020808252604c908201527f5374616b6552656769737472792e6f6e6c795265676973747279436f6f72646960408201527f6e61746f723a2063616c6c6572206973206e6f7420746865205265676973747260608201526b3ca1b7b7b93234b730ba37b960a11b608082015260a00190565b6000828210156136e2576136e261362d565b500390565b634e487b7160e01b600052603160045260246000fd5b60006040820160018060a01b03808616845260206040818601528286548085526060870191508760005282600020945060005b8181101561374e578554851683526001958601959284019201613730565b509098975050505050505050565b6000602080838503121561376f57600080fd5b82516001600160401b0381111561378557600080fd5b8301601f8101851361379657600080fd5b80516137a46130d98261305f565b81815260059190911b820183019083810190878311156137c357600080fd5b928401925b828410156137e1578351825292840192908401906137c8565b979650505050505050565b60008160001904831182151516156138065761380661362d565b500290565b60008261382857634e487b7160e01b600052601260045260246000fd5b500490565b60006001600160601b0380831681851680830382111561384f5761384f61362d565b01949350505050565b6000600160ff1b82141561386e5761386e61362d565b5060000390565b60006001600160601b03838116908316818110156138955761389561362d565b039392505050565b600082198211156138b0576138b061362d565b500190565b6000816138c4576138c461362d565b506000190190565b60008083128015600160ff1b8501841216156138ea576138ea61362d565b6001600160ff1b03840183138116156139055761390561362d565b5050039056fe5374616b6552656769737472792e5f6164645374726174656779506172616d73a2646970667358221220895aef2e8b788a7d1b68c64520a48ce548cb81c683d58fb8b9252045635c9db564736f6c634300080c0033","linkReferences":{}},"methodIdentifiers":{"MAX_WEIGHING_FUNCTION_LENGTH()":"7c172347","WEIGHTING_DIVISOR()":"5e5a6775","addStrategies(uint8,(address,uint96)[])":"c601527d","applyDelta(uint96,int256)":"7f429822","calculateDelta(uint96,uint96)":"f509551a","delegation()":"df5cf723","deregisterOperator(bytes32,bytes)":"bd29b8cd","getCurrentStake(bytes32,uint8)":"5401ed27","getCurrentTotalStake(uint8)":"d5eccc05","getLatestStakeUpdate(bytes32,uint8)":"f851e198","getStakeAtBlockNumber(bytes32,uint8,uint32)":"fa28c627","getStakeAtBlockNumberAndIndex(uint8,uint32,bytes32,uint256)":"f2be94ae","getStakeHistory(bytes32,uint8)":"2cd95940","getStakeHistoryLength(bytes32,uint8)":"4bd26e09","getStakeUpdateAtIndex(uint8,bytes32,uint256)":"ac6bfb03","getStakeUpdateIndexAtBlockNumber(bytes32,uint8,uint32)":"dd9846b9","getTotalStakeAtBlockNumberFromIndex(uint8,uint32,uint256)":"c8294c56","getTotalStakeHistoryLength(uint8)":"0491b41c","getTotalStakeIndicesAtBlockNumber(uint32,bytes)":"81c07502","getTotalStakeUpdateAtIndex(uint8,uint256)":"b6904b78","initializeQuorum(uint8,uint96,(address,uint96)[])":"ff694a77","minimumStakeForQuorum(uint8)":"c46778a5","modifyStrategyParams(uint8,uint256[],uint96[])":"20b66298","recordOperatorStakeUpdate(bytes32,uint8,uint96)":"74454c6d","recordTotalStakeUpdate(uint8,int256)":"0390a4d5","registerOperator(address,bytes32,bytes)":"25504777","registryCoordinator()":"6d14a987","removeStrategies(uint8,uint256[])":"5f1f2d77","setMinimumStakeForQuorum(uint8,uint96)":"bc9a40c3","strategiesPerQuorum(uint8,uint256)":"9f3ccf65","strategyParams(uint8,uint256)":"08732461","strategyParamsByIndex(uint8,uint256)":"adc804da","strategyParamsLength(uint8)":"3ca5a5f5","updateOperatorStake(address,bytes32,bytes)":"66acfefe","weightOfOperatorForQuorum(uint8,address)":"1f9b74e0"},"id":81}