{"abi":[{"type":"constructor","inputs":[{"name":"_registryCoordinator","type":"address","internalType":"contract IRegistryCoordinator"}],"stateMutability":"nonpayable"},{"type":"function","name":"apkHistory","inputs":[{"name":"","type":"uint8","internalType":"uint8"},{"name":"","type":"uint256","internalType":"uint256"}],"outputs":[{"name":"apkHash","type":"bytes24","internalType":"bytes24"},{"name":"updateBlockNumber","type":"uint32","internalType":"uint32"},{"name":"nextUpdateBlockNumber","type":"uint32","internalType":"uint32"}],"stateMutability":"view"},{"type":"function","name":"currentApk","inputs":[{"name":"","type":"uint8","internalType":"uint8"}],"outputs":[{"name":"X","type":"uint256","internalType":"uint256"},{"name":"Y","type":"uint256","internalType":"uint256"}],"stateMutability":"view"},{"type":"function","name":"deregisterOperator","inputs":[{"name":"operator","type":"address","internalType":"address"},{"name":"quorumNumbers","type":"bytes","internalType":"bytes"}],"outputs":[],"stateMutability":"nonpayable"},{"type":"function","name":"getApk","inputs":[{"name":"quorumNumber","type":"uint8","internalType":"uint8"}],"outputs":[{"name":"","type":"tuple","internalType":"struct BN254.G1Point","components":[{"name":"X","type":"uint256","internalType":"uint256"},{"name":"Y","type":"uint256","internalType":"uint256"}]}],"stateMutability":"view"},{"type":"function","name":"getApkHashAtBlockNumberAndIndex","inputs":[{"name":"quorumNumber","type":"uint8","internalType":"uint8"},{"name":"blockNumber","type":"uint32","internalType":"uint32"},{"name":"index","type":"uint256","internalType":"uint256"}],"outputs":[{"name":"","type":"bytes24","internalType":"bytes24"}],"stateMutability":"view"},{"type":"function","name":"getApkHistoryLength","inputs":[{"name":"quorumNumber","type":"uint8","internalType":"uint8"}],"outputs":[{"name":"","type":"uint32","internalType":"uint32"}],"stateMutability":"view"},{"type":"function","name":"getApkIndicesAtBlockNumber","inputs":[{"name":"quorumNumbers","type":"bytes","internalType":"bytes"},{"name":"blockNumber","type":"uint256","internalType":"uint256"}],"outputs":[{"name":"","type":"uint32[]","internalType":"uint32[]"}],"stateMutability":"view"},{"type":"function","name":"getApkUpdateAtIndex","inputs":[{"name":"quorumNumber","type":"uint8","internalType":"uint8"},{"name":"index","type":"uint256","internalType":"uint256"}],"outputs":[{"name":"","type":"tuple","internalType":"struct IBLSApkRegistry.ApkUpdate","components":[{"name":"apkHash","type":"bytes24","internalType":"bytes24"},{"name":"updateBlockNumber","type":"uint32","internalType":"uint32"},{"name":"nextUpdateBlockNumber","type":"uint32","internalType":"uint32"}]}],"stateMutability":"view"},{"type":"function","name":"getOperatorFromPubkeyHash","inputs":[{"name":"pubkeyHash","type":"bytes32","internalType":"bytes32"}],"outputs":[{"name":"","type":"address","internalType":"address"}],"stateMutability":"view"},{"type":"function","name":"getOperatorId","inputs":[{"name":"operator","type":"address","internalType":"address"}],"outputs":[{"name":"","type":"bytes32","internalType":"bytes32"}],"stateMutability":"view"},{"type":"function","name":"getRegisteredPubkey","inputs":[{"name":"operator","type":"address","internalType":"address"}],"outputs":[{"name":"","type":"tuple","internalType":"struct BN254.G1Point","components":[{"name":"X","type":"uint256","internalType":"uint256"},{"name":"Y","type":"uint256","internalType":"uint256"}]},{"name":"","type":"bytes32","internalType":"bytes32"}],"stateMutability":"view"},{"type":"function","name":"initializeQuorum","inputs":[{"name":"quorumNumber","type":"uint8","internalType":"uint8"}],"outputs":[],"stateMutability":"nonpayable"},{"type":"function","name":"operatorToPubkey","inputs":[{"name":"","type":"address","internalType":"address"}],"outputs":[{"name":"X","type":"uint256","internalType":"uint256"},{"name":"Y","type":"uint256","internalType":"uint256"}],"stateMutability":"view"},{"type":"function","name":"operatorToPubkeyHash","inputs":[{"name":"","type":"address","internalType":"address"}],"outputs":[{"name":"","type":"bytes32","internalType":"bytes32"}],"stateMutability":"view"},{"type":"function","name":"pubkeyHashToOperator","inputs":[{"name":"","type":"bytes32","internalType":"bytes32"}],"outputs":[{"name":"","type":"address","internalType":"address"}],"stateMutability":"view"},{"type":"function","name":"registerBLSPublicKey","inputs":[{"name":"operator","type":"address","internalType":"address"},{"name":"params","type":"tuple","internalType":"struct IBLSApkRegistry.PubkeyRegistrationParams","components":[{"name":"pubkeyRegistrationSignature","type":"tuple","internalType":"struct BN254.G1Point","components":[{"name":"X","type":"uint256","internalType":"uint256"},{"name":"Y","type":"uint256","internalType":"uint256"}]},{"name":"pubkeyG1","type":"tuple","internalType":"struct BN254.G1Point","components":[{"name":"X","type":"uint256","internalType":"uint256"},{"name":"Y","type":"uint256","internalType":"uint256"}]},{"name":"pubkeyG2","type":"tuple","internalType":"struct BN254.G2Point","components":[{"name":"X","type":"uint256[2]","internalType":"uint256[2]"},{"name":"Y","type":"uint256[2]","internalType":"uint256[2]"}]}]},{"name":"pubkeyRegistrationMessageHash","type":"tuple","internalType":"struct BN254.G1Point","components":[{"name":"X","type":"uint256","internalType":"uint256"},{"name":"Y","type":"uint256","internalType":"uint256"}]}],"outputs":[{"name":"operatorId","type":"bytes32","internalType":"bytes32"}],"stateMutability":"nonpayable"},{"type":"function","name":"registerOperator","inputs":[{"name":"operator","type":"address","internalType":"address"},{"name":"quorumNumbers","type":"bytes","internalType":"bytes"}],"outputs":[],"stateMutability":"nonpayable"},{"type":"function","name":"registryCoordinator","inputs":[],"outputs":[{"name":"","type":"address","internalType":"address"}],"stateMutability":"view"},{"type":"function","name":"setBLSPublicKey","inputs":[{"name":"account","type":"address","internalType":"address"},{"name":"pk","type":"tuple","internalType":"struct BN254.G1Point","components":[{"name":"X","type":"uint256","internalType":"uint256"},{"name":"Y","type":"uint256","internalType":"uint256"}]}],"outputs":[],"stateMutability":"nonpayable"},{"type":"event","name":"Initialized","inputs":[{"name":"version","type":"uint8","indexed":false,"internalType":"uint8"}],"anonymous":false},{"type":"event","name":"NewPubkeyRegistration","inputs":[{"name":"operator","type":"address","indexed":true,"internalType":"address"},{"name":"pubkeyG1","type":"tuple","indexed":false,"internalType":"struct BN254.G1Point","components":[{"name":"X","type":"uint256","internalType":"uint256"},{"name":"Y","type":"uint256","internalType":"uint256"}]},{"name":"pubkeyG2","type":"tuple","indexed":false,"internalType":"struct BN254.G2Point","components":[{"name":"X","type":"uint256[2]","internalType":"uint256[2]"},{"name":"Y","type":"uint256[2]","internalType":"uint256[2]"}]}],"anonymous":false},{"type":"event","name":"OperatorAddedToQuorums","inputs":[{"name":"operator","type":"address","indexed":false,"internalType":"address"},{"name":"operatorId","type":"bytes32","indexed":false,"internalType":"bytes32"},{"name":"quorumNumbers","type":"bytes","indexed":false,"internalType":"bytes"}],"anonymous":false},{"type":"event","name":"OperatorRemovedFromQuorums","inputs":[{"name":"operator","type":"address","indexed":false,"internalType":"address"},{"name":"operatorId","type":"bytes32","indexed":false,"internalType":"bytes32"},{"name":"quorumNumbers","type":"bytes","indexed":false,"internalType":"bytes"}],"anonymous":false}],"bytecode":{"object":"0x60a06040523480156200001157600080fd5b50604051620021d2380380620021d2833981016040819052620000349162000118565b6001600160a01b03811660805280806200004d62000056565b5050506200014a565b600054610100900460ff1615620000c35760405162461bcd60e51b815260206004820152602760248201527f496e697469616c697a61626c653a20636f6e747261637420697320696e697469604482015266616c697a696e6760c81b606482015260840160405180910390fd5b60005460ff908116101562000116576000805460ff191660ff9081179091556040519081527f7f26b83ff96e1f2b6a682f133852f6798a09c465da95921460cefb38474024989060200160405180910390a15b565b6000602082840312156200012b57600080fd5b81516001600160a01b03811681146200014357600080fd5b9392505050565b608051612050620001826000396000818161031a015281816104db0152818161063401528181610a3a01526110a601526120506000f3fe608060405234801561001057600080fd5b50600436106101205760003560e01c80636d14a987116100ad578063d5254a8c11610071578063d5254a8c146103ea578063de29fac01461040a578063df4d09e01461042a578063e8bb9ae614610494578063f4e24fe5146104bd57600080fd5b80636d14a987146103155780637916cea61461033c5780637ff81a871461037d578063a3db80e2146103b0578063bf79ce58146103d757600080fd5b80633fb27952116100f45780633fb27952146101ea57806347b314e8146101fd5780635f61a8841461023e578063605747d51461029a57806368bccaac146102e857600080fd5b8062a1f4cb1461012557806313542a4e1461016657806326d941f21461019d578063377ed99d146101b2575b600080fd5b61014c610133366004611979565b6003602052600090815260409020805460019091015482565b604080519283526020830191909152015b60405180910390f35b61018f610174366004611979565b6001600160a01b031660009081526001602052604090205490565b60405190815260200161015d565b6101b06101ab3660046119ac565b6104d0565b005b6101d56101c03660046119ac565b60ff1660009081526004602052604090205490565b60405163ffffffff909116815260200161015d565b6101b06101f8366004611a37565b610629565b61022661020b366004611add565b6000908152600260205260409020546001600160a01b031690565b6040516001600160a01b03909116815260200161015d565b61028d61024c3660046119ac565b60408051808201909152600080825260208201525060ff16600090815260056020908152604091829020825180840190935280548352600101549082015290565b60405161015d9190611af6565b6102ad6102a8366004611b0d565b6106e7565b60408051825167ffffffffffffffff1916815260208084015163ffffffff90811691830191909152928201519092169082015260600161015d565b6102fb6102f6366004611b37565b61077a565b60405167ffffffffffffffff19909116815260200161015d565b6102267f000000000000000000000000000000000000000000000000000000000000000081565b61034f61034a366004611b0d565b610915565b6040805167ffffffffffffffff19909416845263ffffffff928316602085015291169082015260600161015d565b61039061038b366004611979565b610960565b60408051835181526020938401519381019390935282015260600161015d565b61014c6103be3660046119ac565b6005602052600090815260409020805460019091015482565b61018f6103e5366004611b7f565b610a2d565b6103fd6103f8366004611bdc565b610e81565b60405161015d9190611c54565b61018f610418366004611979565b60016020526000908152604090205481565b6101b0610438366004611cce565b8051600090815260208083018051825260408084206001600160a01b039690961680855260018085528286208890559685526002845281852080546001600160a01b031916821790558452600390925291209151825551910155565b6102266104a2366004611add565b6002602052600090815260409020546001600160a01b031681565b6101b06104cb366004611a37565b61109b565b336001600160a01b037f000000000000000000000000000000000000000000000000000000000000000016146105215760405162461bcd60e51b815260040161051890611d02565b60405180910390fd5b60ff8116600090815260046020526040902054156105a05760405162461bcd60e51b815260206004820152603660248201527f424c5341706b52656769737472792e696e697469616c697a6551756f72756d3a6044820152752071756f72756d20616c72656164792065786973747360501b6064820152608401610518565b60ff166000908152600460209081526040808320815160608101835284815263ffffffff4381168286019081528285018781528454600181018655948852959096209151919092018054955194518316600160e01b026001600160e01b0395909316600160c01b026001600160e01b03199096169190931c179390931791909116919091179055565b336001600160a01b037f000000000000000000000000000000000000000000000000000000000000000016146106715760405162461bcd60e51b815260040161051890611d02565b600061067c83610960565b5090506106898282611144565b7f73a2b7fb844724b971802ae9b15db094d4b7192df9d7350e14eb466b9b22eb4e836106ca856001600160a01b031660009081526001602052604090205490565b846040516106da93929190611d76565b60405180910390a1505050565b604080516060810182526000808252602080830182905282840182905260ff86168252600490529190912080548390811061072457610724611de2565b600091825260209182902060408051606081018252919092015467ffffffffffffffff1981841b16825263ffffffff600160c01b8204811694830194909452600160e01b90049092169082015290505b92915050565b60ff831660009081526004602052604081208054829190849081106107a1576107a1611de2565b600091825260209182902060408051606081018252919092015467ffffffffffffffff1981841b16825263ffffffff600160c01b82048116948301859052600160e01b9091048116928201929092529250851610156108685760405162461bcd60e51b815260206004820152603e60248201527f424c5341706b52656769737472792e5f76616c696461746541706b486173684160448201527f74426c6f636b4e756d6265723a20696e64657820746f6f20726563656e7400006064820152608401610518565b604081015163ffffffff16158061088e5750806040015163ffffffff168463ffffffff16105b61090c5760405162461bcd60e51b815260206004820152604360248201527f424c5341706b52656769737472792e5f76616c696461746541706b486173684160448201527f74426c6f636b4e756d6265723a206e6f74206c61746573742061706b2075706460648201526261746560e81b608482015260a401610518565b51949350505050565b6004602052816000526040600020818154811061093157600080fd5b600091825260209091200154604081901b925063ffffffff600160c01b820481169250600160e01b9091041683565b60408051808201909152600080825260208201526001600160a01b038216600081815260036020908152604080832081518083018352815481526001918201548185015294845290915281205490919080610a235760405162461bcd60e51b815260206004820152603e60248201527f424c5341706b52656769737472792e676574526567697374657265645075626b60448201527f65793a206f70657261746f72206973206e6f74207265676973746572656400006064820152608401610518565b9094909350915050565b6000336001600160a01b037f00000000000000000000000000000000000000000000000000000000000000001614610a775760405162461bcd60e51b815260040161051890611d02565b6000610aa5610a8e36869003860160408701611df8565b805160009081526020918201519091526040902090565b90507fad3228b676f7d3cd4284a5443f17f1962b36e491b30a40b2405849e597ba5fb5811415610b2d576040805162461bcd60e51b8152602060048201526024810191909152600080516020611ffb83398151915260448201527f4b65793a2063616e6e6f74207265676973746572207a65726f207075626b65796064820152608401610518565b6001600160a01b03851660009081526001602052604090205415610bb75760405162461bcd60e51b81526020600482015260476024820152600080516020611ffb83398151915260448201527f4b65793a206f70657261746f7220616c72656164792072656769737465726564606482015266207075626b657960c81b608482015260a401610518565b6000818152600260205260409020546001600160a01b031615610c3b5760405162461bcd60e51b81526020600482015260426024820152600080516020611ffb83398151915260448201527f4b65793a207075626c6963206b657920616c7265616479207265676973746572606482015261195960f21b608482015260a401610518565b604080516000917f30644e72e131a029b85045b68181585d2833e84879b9709143e1f593f000000191610c94918835916020808b0135928b01359160608c01359160808d019160c08e01918d35918e8201359101611e14565b6040516020818303038152906040528051906020012060001c610cb79190611e5f565b9050610d51610cf0610cdb83610cd5368a90038a0160408b01611df8565b9061138f565b610cea36899003890189611df8565b90611426565b610cf86114ba565b610d3a610d2b85610cd5604080518082018252600080825260209182015281518083019092526001825260029082015290565b610cea368a90038a018a611df8565b610d4c368a90038a0160808b01611ef1565b61157a565b610dec5760405162461bcd60e51b815260206004820152606c6024820152600080516020611ffb83398151915260448201527f4b65793a2065697468657220746865204731207369676e61747572652069732060648201527f77726f6e672c206f7220473120616e642047322070726976617465206b65792060848201526b0c8de40dcdee840dac2e8c6d60a31b60a482015260c401610518565b6001600160a01b03861660008181526003602090815260408083208982018035825560608b013560019283015590835281842087905586845260029092529182902080546001600160a01b0319168417905590517fe3fb6613af2e8930cf85d47fcf6db10192224a64c6cbe8023e0eee1ba382804191610e709160808a0190611f30565b60405180910390a250949350505050565b606060008367ffffffffffffffff811115610e9e57610e9e6119c7565b604051908082528060200260200182016040528015610ec7578160200160208202803683370190505b50905060005b84811015611092576000868683818110610ee957610ee9611de2565b919091013560f81c6000818152600460205260409020549092509050801580610f4c575060ff821660009081526004602052604081208054909190610f3057610f30611de2565b600091825260209091200154600160c01b900463ffffffff1686105b15610fd95760405162461bcd60e51b815260206004820152605160248201527f424c5341706b52656769737472792e67657441706b496e64696365734174426c60448201527f6f636b4e756d6265723a20626c6f636b4e756d626572206973206265666f7265606482015270207468652066697273742075706461746560781b608482015260a401610518565b805b801561107c5760ff831660009081526004602052604090208790611000600184611f7a565b8154811061101057611010611de2565b600091825260209091200154600160c01b900463ffffffff161161106a57611039600182611f7a565b85858151811061104b5761104b611de2565b602002602001019063ffffffff16908163ffffffff168152505061107c565b8061107481611f91565b915050610fdb565b505050808061108a90611fa8565b915050610ecd565b50949350505050565b336001600160a01b037f000000000000000000000000000000000000000000000000000000000000000016146110e35760405162461bcd60e51b815260040161051890611d02565b60006110ee83610960565b509050611103826110fe836117e7565b611144565b7ff843ecd53a563675e62107be1494fdde4a3d49aeedaf8d88c616d85346e3500e836106ca856001600160a01b031660009081526001602052604090205490565b604080518082019091526000808252602082015260005b835181101561138957600084828151811061117857611178611de2565b0160209081015160f81c60008181526004909252604090912054909150806112085760405162461bcd60e51b815260206004820152603d60248201527f424c5341706b52656769737472792e5f70726f6365737351756f72756d41706b60448201527f5570646174653a2071756f72756d20646f6573206e6f742065786973740000006064820152608401610518565b60ff8216600090815260056020908152604091829020825180840190935280548352600101549082015261123c9086611426565b60ff831660008181526005602090815260408083208551808255868401805160019384015590855251835281842094845260049092528220939750919290916112859085611f7a565b8154811061129557611295611de2565b600091825260209091200180549091504363ffffffff908116600160c01b9092041614156112d65780546001600160c01b031916604083901c178155611372565b805463ffffffff438116600160e01b8181026001600160e01b0394851617855560ff88166000908152600460209081526040808320815160608101835267ffffffffffffffff198b16815280840196875280830185815282546001810184559286529390942093519301805495519251871690940291909516600160c01b026001600160e01b0319949094169190941c17919091179092161790555b50505050808061138190611fa8565b91505061115b565b50505050565b60408051808201909152600080825260208201526113ab6118a6565b835181526020808501519082015260408082018490526000908360608460076107d05a03fa90508080156113de576113e0565bfe5b508061141e5760405162461bcd60e51b815260206004820152600d60248201526c1958cb5b5d5b0b59985a5b1959609a1b6044820152606401610518565b505092915050565b60408051808201909152600080825260208201526114426118c4565b835181526020808501518183015283516040808401919091529084015160608301526000908360808460066107d05a03fa90508080156113de57508061141e5760405162461bcd60e51b815260206004820152600d60248201526c1958cb5859190b59985a5b1959609a1b6044820152606401610518565b6114c26118e2565b50604080516080810182527f198e9393920d483a7260bfb731fb5d25f1aa493335a9e71297e485b7aef312c28183019081527f1800deef121f1e76426a00665e5c4479674322d4f75edadd46debd5cd992f6ed6060830152815281518083019092527f275dc4a288d1afb3cbb1ac09187524c7db36395df7be3b99e673b13a075a65ec82527f1d9befcd05a5323e6da4d435f3b617cdb3af83285c2df711ef39c01571827f9d60208381019190915281019190915290565b6040805180820182528581526020808201859052825180840190935285835282018390526000916115a9611907565b60005b600281101561176e5760006115c2826006611fc3565b90508482600281106115d6576115d6611de2565b602002015151836115e8836000611fe2565b600c81106115f8576115f8611de2565b602002015284826002811061160f5761160f611de2565b602002015160200151838260016116269190611fe2565b600c811061163657611636611de2565b602002015283826002811061164d5761164d611de2565b6020020151515183611660836002611fe2565b600c811061167057611670611de2565b602002015283826002811061168757611687611de2565b60200201515160016020020151836116a0836003611fe2565b600c81106116b0576116b0611de2565b60200201528382600281106116c7576116c7611de2565b6020020151602001516000600281106116e2576116e2611de2565b6020020151836116f3836004611fe2565b600c811061170357611703611de2565b602002015283826002811061171a5761171a611de2565b60200201516020015160016002811061173557611735611de2565b602002015183611746836005611fe2565b600c811061175657611756611de2565b6020020152508061176681611fa8565b9150506115ac565b50611777611926565b60006020826101808560086107d05a03fa90508080156113de5750806117d75760405162461bcd60e51b81526020600482015260156024820152741c185a5c9a5b99cb5bdc18dbd9194b59985a5b1959605a1b6044820152606401610518565b5051151598975050505050505050565b6040805180820190915260008082526020820152815115801561180c57506020820151155b1561182a575050604080518082019091526000808252602082015290565b6040518060400160405280836000015181526020017f30644e72e131a029b85045b68181585d97816a916871ca8d3c208c16d87cfd47846020015161186f9190611e5f565b611899907f30644e72e131a029b85045b68181585d97816a916871ca8d3c208c16d87cfd47611f7a565b905292915050565b919050565b60405180606001604052806003906020820280368337509192915050565b60405180608001604052806004906020820280368337509192915050565b60405180604001604052806118f5611944565b8152602001611902611944565b905290565b604051806101800160405280600c906020820280368337509192915050565b60405180602001604052806001906020820280368337509192915050565b60405180604001604052806002906020820280368337509192915050565b80356001600160a01b03811681146118a157600080fd5b60006020828403121561198b57600080fd5b61199482611962565b9392505050565b803560ff811681146118a157600080fd5b6000602082840312156119be57600080fd5b6119948261199b565b634e487b7160e01b600052604160045260246000fd5b6040805190810167ffffffffffffffff81118282101715611a0057611a006119c7565b60405290565b604051601f8201601f1916810167ffffffffffffffff81118282101715611a2f57611a2f6119c7565b604052919050565b60008060408385031215611a4a57600080fd5b611a5383611962565b915060208084013567ffffffffffffffff80821115611a7157600080fd5b818601915086601f830112611a8557600080fd5b813581811115611a9757611a976119c7565b611aa9601f8201601f19168501611a06565b91508082528784828501011115611abf57600080fd5b80848401858401376000848284010152508093505050509250929050565b600060208284031215611aef57600080fd5b5035919050565b815181526020808301519082015260408101610774565b60008060408385031215611b2057600080fd5b611b298361199b565b946020939093013593505050565b600080600060608486031215611b4c57600080fd5b611b558461199b565b9250602084013563ffffffff81168114611b6e57600080fd5b929592945050506040919091013590565b6000806000838503610160811215611b9657600080fd5b611b9f85611962565b9350610100601f1982011215611bb457600080fd5b602085019250604061011f1982011215611bcd57600080fd5b50610120840190509250925092565b600080600060408486031215611bf157600080fd5b833567ffffffffffffffff80821115611c0957600080fd5b818601915086601f830112611c1d57600080fd5b813581811115611c2c57600080fd5b876020828501011115611c3e57600080fd5b6020928301989097509590910135949350505050565b6020808252825182820181905260009190848201906040850190845b81811015611c9257835163ffffffff1683529284019291840191600101611c70565b50909695505050505050565b600060408284031215611cb057600080fd5b611cb86119dd565b9050813581526020820135602082015292915050565b60008060608385031215611ce157600080fd5b611cea83611962565b9150611cf98460208501611c9e565b90509250929050565b6020808252604e908201527f424c5341706b52656769737472792e6f6e6c795265676973747279436f6f726460408201527f696e61746f723a2063616c6c6572206973206e6f74207468652072656769737460608201526d393c9031b7b7b93234b730ba37b960911b608082015260a00190565b60018060a01b038416815260006020848184015260606040840152835180606085015260005b81811015611db857858101830151858201608001528201611d9c565b81811115611dca576000608083870101525b50601f01601f19169290920160800195945050505050565b634e487b7160e01b600052603260045260246000fd5b600060408284031215611e0a57600080fd5b6119948383611c9e565b8881528760208201528660408201528560608201526040856080830137600060c082016000815260408682375050610100810192909252610120820152610140019695505050505050565b600082611e7c57634e487b7160e01b600052601260045260246000fd5b500690565b600082601f830112611e9257600080fd5b6040516040810181811067ffffffffffffffff82111715611eb557611eb56119c7565b8060405250806040840185811115611ecc57600080fd5b845b81811015611ee6578035835260209283019201611ece565b509195945050505050565b600060808284031215611f0357600080fd5b611f0b6119dd565b611f158484611e81565b8152611f248460408501611e81565b60208201529392505050565b823581526020808401359082015260c081016040838184013760808201600081526040808501823750600081529392505050565b634e487b7160e01b600052601160045260246000fd5b600082821015611f8c57611f8c611f64565b500390565b600081611fa057611fa0611f64565b506000190190565b6000600019821415611fbc57611fbc611f64565b5060010190565b6000816000190483118215151615611fdd57611fdd611f64565b500290565b60008219821115611ff557611ff5611f64565b50019056fe424c5341706b52656769737472792e7265676973746572424c535075626c6963a26469706673582212200061311b89180baaf7342370e0e786c7ff586f79c80ddd4a51d668aaa82e036264736f6c634300080c0033","linkReferences":{}},"methodIdentifiers":{"apkHistory(uint8,uint256)":"7916cea6","currentApk(uint8)":"a3db80e2","deregisterOperator(address,bytes)":"f4e24fe5","getApk(uint8)":"5f61a884","getApkHashAtBlockNumberAndIndex(uint8,uint32,uint256)":"68bccaac","getApkHistoryLength(uint8)":"377ed99d","getApkIndicesAtBlockNumber(bytes,uint256)":"d5254a8c","getApkUpdateAtIndex(uint8,uint256)":"605747d5","getOperatorFromPubkeyHash(bytes32)":"47b314e8","getOperatorId(address)":"13542a4e","getRegisteredPubkey(address)":"7ff81a87","initializeQuorum(uint8)":"26d941f2","operatorToPubkey(address)":"00a1f4cb","operatorToPubkeyHash(address)":"de29fac0","pubkeyHashToOperator(bytes32)":"e8bb9ae6","registerBLSPublicKey(address,((uint256,uint256),(uint256,uint256),(uint256[2],uint256[2])),(uint256,uint256))":"bf79ce58","registerOperator(address,bytes)":"3fb27952","registryCoordinator()":"6d14a987","setBLSPublicKey(address,(uint256,uint256))":"df4d09e0"},"id":79}