{"abi":[{"type":"function","name":"addShares","inputs":[{"name":"staker","type":"address","internalType":"address"},{"name":"token","type":"address","internalType":"contract IERC20"},{"name":"strategy","type":"address","internalType":"contract IStrategy"},{"name":"shares","type":"uint256","internalType":"uint256"}],"outputs":[],"stateMutability":"nonpayable"},{"type":"function","name":"addStrategiesToDepositWhitelist","inputs":[{"name":"","type":"address[]","internalType":"contract IStrategy[]"},{"name":"","type":"bool[]","internalType":"bool[]"}],"outputs":[],"stateMutability":"pure"},{"type":"function","name":"beaconChainETHStrategy","inputs":[],"outputs":[{"name":"","type":"address","internalType":"contract IStrategy"}],"stateMutability":"view"},{"type":"function","name":"calculateWithdrawalRoot","inputs":[{"name":"queuedWithdrawal","type":"tuple","internalType":"struct IStrategyManager.DeprecatedStruct_QueuedWithdrawal","components":[{"name":"strategies","type":"address[]","internalType":"contract IStrategy[]"},{"name":"shares","type":"uint256[]","internalType":"uint256[]"},{"name":"staker","type":"address","internalType":"address"},{"name":"withdrawerAndNonce","type":"tuple","internalType":"struct IStrategyManager.DeprecatedStruct_WithdrawerAndNonce","components":[{"name":"withdrawer","type":"address","internalType":"address"},{"name":"nonce","type":"uint96","internalType":"uint96"}]},{"name":"withdrawalStartBlock","type":"uint32","internalType":"uint32"},{"name":"delegatedAddress","type":"address","internalType":"address"}]}],"outputs":[{"name":"","type":"bytes32","internalType":"bytes32"}],"stateMutability":"pure"},{"type":"function","name":"cumulativeWithdrawalsQueued","inputs":[{"name":"","type":"address","internalType":"address"}],"outputs":[{"name":"","type":"uint256","internalType":"uint256"}],"stateMutability":"view"},{"type":"function","name":"delegation","inputs":[],"outputs":[{"name":"","type":"address","internalType":"contract IDelegationManager"}],"stateMutability":"view"},{"type":"function","name":"depositBeaconChainETH","inputs":[{"name":"staker","type":"address","internalType":"address"},{"name":"amount","type":"uint256","internalType":"uint256"}],"outputs":[],"stateMutability":"nonpayable"},{"type":"function","name":"depositIntoStrategy","inputs":[{"name":"strategy","type":"address","internalType":"contract IStrategy"},{"name":"token","type":"address","internalType":"contract IERC20"},{"name":"amount","type":"uint256","internalType":"uint256"}],"outputs":[{"name":"","type":"uint256","internalType":"uint256"}],"stateMutability":"nonpayable"},{"type":"function","name":"depositIntoStrategyWithSignature","inputs":[{"name":"strategy","type":"address","internalType":"contract IStrategy"},{"name":"token","type":"address","internalType":"contract IERC20"},{"name":"amount","type":"uint256","internalType":"uint256"},{"name":"staker","type":"address","internalType":"address"},{"name":"expiry","type":"uint256","internalType":"uint256"},{"name":"signature","type":"bytes","internalType":"bytes"}],"outputs":[{"name":"shares","type":"uint256","internalType":"uint256"}],"stateMutability":"nonpayable"},{"type":"function","name":"eigenPodManager","inputs":[],"outputs":[{"name":"","type":"address","internalType":"contract IEigenPodManager"}],"stateMutability":"view"},{"type":"function","name":"getDeposits","inputs":[{"name":"staker","type":"address","internalType":"address"}],"outputs":[{"name":"","type":"address[]","internalType":"contract IStrategy[]"},{"name":"","type":"uint256[]","internalType":"uint256[]"}],"stateMutability":"view"},{"type":"function","name":"migrateQueuedWithdrawal","inputs":[{"name":"queuedWithdrawal","type":"tuple","internalType":"struct IStrategyManager.DeprecatedStruct_QueuedWithdrawal","components":[{"name":"strategies","type":"address[]","internalType":"contract IStrategy[]"},{"name":"shares","type":"uint256[]","internalType":"uint256[]"},{"name":"staker","type":"address","internalType":"address"},{"name":"withdrawerAndNonce","type":"tuple","internalType":"struct IStrategyManager.DeprecatedStruct_WithdrawerAndNonce","components":[{"name":"withdrawer","type":"address","internalType":"address"},{"name":"nonce","type":"uint96","internalType":"uint96"}]},{"name":"withdrawalStartBlock","type":"uint32","internalType":"uint32"},{"name":"delegatedAddress","type":"address","internalType":"address"}]}],"outputs":[{"name":"","type":"bool","internalType":"bool"},{"name":"","type":"bytes32","internalType":"bytes32"}],"stateMutability":"nonpayable"},{"type":"function","name":"owner","inputs":[],"outputs":[{"name":"","type":"address","internalType":"address"}],"stateMutability":"view"},{"type":"function","name":"pause","inputs":[{"name":"newPausedStatus","type":"uint256","internalType":"uint256"}],"outputs":[],"stateMutability":"nonpayable"},{"type":"function","name":"pauseAll","inputs":[],"outputs":[],"stateMutability":"nonpayable"},{"type":"function","name":"paused","inputs":[{"name":"index","type":"uint8","internalType":"uint8"}],"outputs":[{"name":"","type":"bool","internalType":"bool"}],"stateMutability":"view"},{"type":"function","name":"paused","inputs":[],"outputs":[{"name":"","type":"uint256","internalType":"uint256"}],"stateMutability":"view"},{"type":"function","name":"pauserRegistry","inputs":[],"outputs":[{"name":"","type":"address","internalType":"contract IPauserRegistry"}],"stateMutability":"view"},{"type":"function","name":"recordBeaconChainETHBalanceUpdate","inputs":[{"name":"overcommittedPodOwner","type":"address","internalType":"address"},{"name":"beaconChainETHStrategyIndex","type":"uint256","internalType":"uint256"},{"name":"sharesDelta","type":"int256","internalType":"int256"}],"outputs":[],"stateMutability":"nonpayable"},{"type":"function","name":"removeShares","inputs":[{"name":"staker","type":"address","internalType":"address"},{"name":"strategy","type":"address","internalType":"contract IStrategy"},{"name":"shares","type":"uint256","internalType":"uint256"}],"outputs":[],"stateMutability":"nonpayable"},{"type":"function","name":"removeStrategiesFromDepositWhitelist","inputs":[{"name":"","type":"address[]","internalType":"contract IStrategy[]"}],"outputs":[],"stateMutability":"pure"},{"type":"function","name":"renounceOwnership","inputs":[],"outputs":[],"stateMutability":"nonpayable"},{"type":"function","name":"setAddresses","inputs":[{"name":"_delegation","type":"address","internalType":"contract IDelegationManager"},{"name":"_eigenPodManager","type":"address","internalType":"contract IEigenPodManager"},{"name":"_slasher","type":"address","internalType":"contract ISlasher"}],"outputs":[],"stateMutability":"nonpayable"},{"type":"function","name":"setDeposits","inputs":[{"name":"staker","type":"address","internalType":"address"},{"name":"_strategiesToReturn","type":"address[]","internalType":"contract IStrategy[]"},{"name":"_sharesToReturn","type":"uint256[]","internalType":"uint256[]"}],"outputs":[],"stateMutability":"nonpayable"},{"type":"function","name":"setPauserRegistry","inputs":[{"name":"newPauserRegistry","type":"address","internalType":"contract IPauserRegistry"}],"outputs":[],"stateMutability":"nonpayable"},{"type":"function","name":"setStakerStrategyListLengthReturnValue","inputs":[{"name":"valueToSet","type":"uint256","internalType":"uint256"}],"outputs":[],"stateMutability":"nonpayable"},{"type":"function","name":"setStrategyWhitelist","inputs":[{"name":"strategy","type":"address","internalType":"contract IStrategy"},{"name":"value","type":"bool","internalType":"bool"}],"outputs":[],"stateMutability":"nonpayable"},{"type":"function","name":"setThirdPartyTransfersForbidden","inputs":[{"name":"strategy","type":"address","internalType":"contract IStrategy"},{"name":"value","type":"bool","internalType":"bool"}],"outputs":[],"stateMutability":"nonpayable"},{"type":"function","name":"sharesToReturn","inputs":[{"name":"","type":"address","internalType":"address"},{"name":"","type":"uint256","internalType":"uint256"}],"outputs":[{"name":"","type":"uint256","internalType":"uint256"}],"stateMutability":"view"},{"type":"function","name":"slasher","inputs":[],"outputs":[{"name":"","type":"address","internalType":"contract ISlasher"}],"stateMutability":"view"},{"type":"function","name":"stakerStrategyListLength","inputs":[{"name":"","type":"address","internalType":"address"}],"outputs":[{"name":"","type":"uint256","internalType":"uint256"}],"stateMutability":"view"},{"type":"function","name":"stakerStrategyListLengthReturnValue","inputs":[],"outputs":[{"name":"","type":"uint256","internalType":"uint256"}],"stateMutability":"view"},{"type":"function","name":"stakerStrategyShares","inputs":[{"name":"user","type":"address","internalType":"address"},{"name":"strategy","type":"address","internalType":"contract IStrategy"}],"outputs":[{"name":"shares","type":"uint256","internalType":"uint256"}],"stateMutability":"view"},{"type":"function","name":"stakerStrats","inputs":[{"name":"staker","type":"address","internalType":"address"}],"outputs":[{"name":"","type":"address[]","internalType":"contract IStrategy[]"}],"stateMutability":"view"},{"type":"function","name":"strategiesToReturn","inputs":[{"name":"","type":"address","internalType":"address"},{"name":"","type":"uint256","internalType":"uint256"}],"outputs":[{"name":"","type":"address","internalType":"contract IStrategy"}],"stateMutability":"view"},{"type":"function","name":"strategyIsWhitelistedForDeposit","inputs":[{"name":"","type":"address","internalType":"contract IStrategy"}],"outputs":[{"name":"","type":"bool","internalType":"bool"}],"stateMutability":"view"},{"type":"function","name":"strategyWhitelister","inputs":[],"outputs":[{"name":"","type":"address","internalType":"address"}],"stateMutability":"view"},{"type":"function","name":"thirdPartyTransfersForbidden","inputs":[{"name":"","type":"address","internalType":"contract IStrategy"}],"outputs":[{"name":"","type":"bool","internalType":"bool"}],"stateMutability":"view"},{"type":"function","name":"transferOwnership","inputs":[{"name":"newOwner","type":"address","internalType":"address"}],"outputs":[],"stateMutability":"nonpayable"},{"type":"function","name":"unpause","inputs":[{"name":"newPausedStatus","type":"uint256","internalType":"uint256"}],"outputs":[],"stateMutability":"nonpayable"},{"type":"function","name":"withdrawSharesAsTokens","inputs":[{"name":"recipient","type":"address","internalType":"address"},{"name":"strategy","type":"address","internalType":"contract IStrategy"},{"name":"shares","type":"uint256","internalType":"uint256"},{"name":"token","type":"address","internalType":"contract IERC20"}],"outputs":[],"stateMutability":"nonpayable"},{"type":"event","name":"Deposit","inputs":[{"name":"staker","type":"address","indexed":false,"internalType":"address"},{"name":"token","type":"address","indexed":false,"internalType":"contract IERC20"},{"name":"strategy","type":"address","indexed":false,"internalType":"contract IStrategy"},{"name":"shares","type":"uint256","indexed":false,"internalType":"uint256"}],"anonymous":false},{"type":"event","name":"Initialized","inputs":[{"name":"version","type":"uint8","indexed":false,"internalType":"uint8"}],"anonymous":false},{"type":"event","name":"OwnershipTransferred","inputs":[{"name":"previousOwner","type":"address","indexed":true,"internalType":"address"},{"name":"newOwner","type":"address","indexed":true,"internalType":"address"}],"anonymous":false},{"type":"event","name":"Paused","inputs":[{"name":"account","type":"address","indexed":true,"internalType":"address"},{"name":"newPausedStatus","type":"uint256","indexed":false,"internalType":"uint256"}],"anonymous":false},{"type":"event","name":"PauserRegistrySet","inputs":[{"name":"pauserRegistry","type":"address","indexed":false,"internalType":"contract IPauserRegistry"},{"name":"newPauserRegistry","type":"address","indexed":false,"internalType":"contract IPauserRegistry"}],"anonymous":false},{"type":"event","name":"StrategyAddedToDepositWhitelist","inputs":[{"name":"strategy","type":"address","indexed":false,"internalType":"contract IStrategy"}],"anonymous":false},{"type":"event","name":"StrategyRemovedFromDepositWhitelist","inputs":[{"name":"strategy","type":"address","indexed":false,"internalType":"contract IStrategy"}],"anonymous":false},{"type":"event","name":"StrategyWhitelisterChanged","inputs":[{"name":"previousAddress","type":"address","indexed":false,"internalType":"address"},{"name":"newAddress","type":"address","indexed":false,"internalType":"address"}],"anonymous":false},{"type":"event","name":"Unpaused","inputs":[{"name":"account","type":"address","indexed":true,"internalType":"address"},{"name":"newPausedStatus","type":"uint256","indexed":false,"internalType":"uint256"}],"anonymous":false},{"type":"event","name":"UpdatedThirdPartyTransfersForbidden","inputs":[{"name":"strategy","type":"address","indexed":false,"internalType":"contract IStrategy"},{"name":"value","type":"bool","indexed":false,"internalType":"bool"}],"anonymous":false}],"bytecode":{"object":"0x608060405234801561001057600080fd5b506118e7806100206000396000f3fe608060405234801561001057600080fd5b50600436106102535760003560e01c806394f649dd11610146578063b5d8b5b8116100c3578063df5cf72311610087578063df5cf723146105c1578063e243dc3c146105d4578063e2a818c5146105e7578063e7a050aa146105fa578063f2fde38b14610611578063fabc1cbc1461062457600080fd5b8063b5d8b5b814610556578063c4623ea114610564578063c608c7f314610578578063cd293f6f14610586578063df5b3547146105b357600080fd5b80639f00fa241161010a5780639f00fa24146104ef578063a178848414610501578063a1ca780b14610521578063b13442711461052f578063b43b514b1461054257600080fd5b806394f649dd1461044c578063967fc0d21461046d5780639a9519e0146104805780639b4da03d146104935780639b7e2f77146104b657600080fd5b80635c975abb116101d4578063886f119511610198578063886f1195146103f95780638b8aac3c1461040c5780638c80d4e5146104215780638da5cb5b146104345780639104c3191461044557600080fd5b80635c975abb1461039d57806363fca888146103a5578063663c1de4146103b8578063715018a6146103db5780637a7e0d92146103e357600080fd5b8063363bf9641161021b578063363bf964146102d75780634665bcda146103245780634e5a42631461034f578063595c6a67146103625780635ac86ab71461036a57600080fd5b806301f820b2146102585780630d3908f41461027457806310d67a2f14610295578063136439dd146102aa57806332e89ace146102bd575b600080fd5b61026160d25481565b6040519081526020015b60405180910390f35b610288610282366004610fb4565b50606090565b60405161026b919061101c565b6102a86102a3366004610fb4565b610637565b005b6102a86102b836600461102f565b6106f3565b6102616102cb3660046110b8565b60009695505050505050565b6102a86102e5366004611197565b60c980546001600160a01b039485166001600160a01b03199182161790915560cb80549285169282169290921790915560ca8054929093169116179055565b60ca54610337906001600160a01b031681565b6040516001600160a01b03909116815260200161026b565b6102a861035d3660046111f0565b610832565b6102a86108a0565b61038d610378366004611229565b609854600160ff9092169190911b9081161490565b604051901515815260200161026b565b609854610261565b6102616103b336600461124c565b610967565b61038d6103c6366004610fb4565b60cf6020526000908152604090205460ff1681565b6102a8610998565b6102616103f1366004611278565b600092915050565b609754610337906001600160a01b031681565b61026161041a366004610fb4565b5060d25490565b6102a861042f3660046112a6565b505050565b6033546001600160a01b0316610337565b6000610337565b61045f61045a366004610fb4565b6109ac565b60405161026b9291906112e7565b60cc54610337906001600160a01b031681565b6102a861048e36600461102f565b60d255565b61038d6104a1366004610fb4565b60d16020526000908152604090205460ff1681565b6102a86104c43660046111f0565b6001600160a01b0391909116600090815260cf60205260409020805460ff1916911515919091179055565b6102a86104fd36600461124c565b5050565b61026161050f366004610fb4565b60d06020526000908152604090205481565b6102a861042f36600461133e565b60cb54610337906001600160a01b031681565b6102616105503660046114ee565b50600090565b6102a86104fd366004611610565b6102a8610572366004611652565b50505050565b6102a86105723660046116a3565b61059c6105943660046114ee565b600080915091565b60408051921515835260208301919091520161026b565b6102a86105723660046116f6565b60c954610337906001600160a01b031681565b6103376105e236600461124c565b610a85565b6102a86105f5366004611762565b610abd565b6102616106083660046112a6565b60009392505050565b6102a861061f366004610fb4565b610b67565b6102a861063236600461102f565b610bdd565b609760009054906101000a90046001600160a01b03166001600160a01b031663eab66d7a6040518163ffffffff1660e01b8152600401602060405180830381865afa15801561068a573d6000803e3d6000fd5b505050506040513d601f19601f820116820180604052508101906106ae91906117e5565b6001600160a01b0316336001600160a01b0316146106e75760405162461bcd60e51b81526004016106de90611802565b60405180910390fd5b6106f081610d39565b50565b60975460405163237dfb4760e11b81523360048201526001600160a01b03909116906346fbf68e90602401602060405180830381865afa15801561073b573d6000803e3d6000fd5b505050506040513d601f19601f8201168201806040525081019061075f919061184c565b61077b5760405162461bcd60e51b81526004016106de90611869565b609854818116146107f45760405162461bcd60e51b815260206004820152603860248201527f5061757361626c652e70617573653a20696e76616c696420617474656d70742060448201527f746f20756e70617573652066756e6374696f6e616c697479000000000000000060648201526084016106de565b609881905560405181815233907fab40a374bc51de372200a8bc981af8c9ecdc08dfdaef0bb6e09f88f3c616ef3d906020015b60405180910390a250565b604080516001600160a01b038416815282151560208201527f77d930df4937793473a95024d87a98fd2ccb9e92d3c2463b3dacd65d3e6a5786910160405180910390a16001600160a01b0391909116600090815260d160205260409020805460ff1916911515919091179055565b60975460405163237dfb4760e11b81523360048201526001600160a01b03909116906346fbf68e90602401602060405180830381865afa1580156108e8573d6000803e3d6000fd5b505050506040513d601f19601f8201168201806040525081019061090c919061184c565b6109285760405162461bcd60e51b81526004016106de90611869565b600019609881905560405190815233907fab40a374bc51de372200a8bc981af8c9ecdc08dfdaef0bb6e09f88f3c616ef3d9060200160405180910390a2565b60ce602052816000526040600020818154811061098357600080fd5b90600052602060002001600091509150505481565b6109a0610e30565b6109aa6000610e8a565b565b6001600160a01b038116600090815260cd6020908152604080832060ce835292819020835482518185028101850190935280835260609485949093918491830182828015610a2357602002820191906000526020600020905b81546001600160a01b03168152600190910190602001808311610a05575b5050505050915080805480602002602001604051908101604052809291908181526020018280548015610a7557602002820191906000526020600020905b815481526020019060010190808311610a61575b5050505050905091509150915091565b60cd6020528160005260406000208181548110610aa157600080fd5b6000918252602090912001546001600160a01b03169150829050565b828114610b185760405162461bcd60e51b8152602060048201526024808201527f53747261746567794d616e616765724d6f636b3a206c656e677468206d69736d6044820152630c2e8c6d60e31b60648201526084016106de565b6001600160a01b038516600090815260cd60205260409020610b3b908585610edc565b506001600160a01b038516600090815260ce60205260409020610b5f908383610f3f565b505050505050565b610b6f610e30565b6001600160a01b038116610bd45760405162461bcd60e51b815260206004820152602660248201527f4f776e61626c653a206e6577206f776e657220697320746865207a65726f206160448201526564647265737360d01b60648201526084016106de565b6106f081610e8a565b609760009054906101000a90046001600160a01b03166001600160a01b031663eab66d7a6040518163ffffffff1660e01b8152600401602060405180830381865afa158015610c30573d6000803e3d6000fd5b505050506040513d601f19601f82011682018060405250810190610c5491906117e5565b6001600160a01b0316336001600160a01b031614610c845760405162461bcd60e51b81526004016106de90611802565b609854198119609854191614610d025760405162461bcd60e51b815260206004820152603860248201527f5061757361626c652e756e70617573653a20696e76616c696420617474656d7060448201527f7420746f2070617573652066756e6374696f6e616c697479000000000000000060648201526084016106de565b609881905560405181815233907f3582d1828e26bf56bd801502bc021ac0bc8afb57c826e4986b45593c8fad389c90602001610827565b6001600160a01b038116610dc75760405162461bcd60e51b815260206004820152604960248201527f5061757361626c652e5f73657450617573657252656769737472793a206e657760448201527f50617573657252656769737472792063616e6e6f7420626520746865207a65726064820152686f206164647265737360b81b608482015260a4016106de565b609754604080516001600160a01b03928316815291831660208301527f6e9fcd539896fca60e8b0f01dd580233e48a6b0f7df013b89ba7f565869acdb6910160405180910390a1609780546001600160a01b0319166001600160a01b0392909216919091179055565b6033546001600160a01b031633146109aa5760405162461bcd60e51b815260206004820181905260248201527f4f776e61626c653a2063616c6c6572206973206e6f7420746865206f776e657260448201526064016106de565b603380546001600160a01b038381166001600160a01b0319831681179093556040519116919082907f8be0079c531659141344cd1fd0a4f28419497f9722a3daafe3b4186f6b6457e090600090a35050565b828054828255906000526020600020908101928215610f2f579160200282015b82811115610f2f5781546001600160a01b0319166001600160a01b03843516178255602090920191600190910190610efc565b50610f3b929150610f7a565b5090565b828054828255906000526020600020908101928215610f2f579160200282015b82811115610f2f578235825591602001919060010190610f5f565b5b80821115610f3b5760008155600101610f7b565b6001600160a01b03811681146106f057600080fd5b8035610faf81610f8f565b919050565b600060208284031215610fc657600080fd5b8135610fd181610f8f565b9392505050565b600081518084526020808501945080840160005b838110156110115781516001600160a01b031687529582019590820190600101610fec565b509495945050505050565b602081526000610fd16020830184610fd8565b60006020828403121561104157600080fd5b5035919050565b634e487b7160e01b600052604160045260246000fd5b60405160c0810167ffffffffffffffff8111828210171561108157611081611048565b60405290565b604051601f8201601f1916810167ffffffffffffffff811182821017156110b0576110b0611048565b604052919050565b60008060008060008060c087890312156110d157600080fd5b86356110dc81610f8f565b95506020878101356110ed81610f8f565b955060408801359450606088013561110481610f8f565b93506080880135925060a088013567ffffffffffffffff8082111561112857600080fd5b818a0191508a601f83011261113c57600080fd5b81358181111561114e5761114e611048565b611160601f8201601f19168501611087565b91508082528b8482850101111561117657600080fd5b80848401858401376000848284010152508093505050509295509295509295565b6000806000606084860312156111ac57600080fd5b83356111b781610f8f565b925060208401356111c781610f8f565b915060408401356111d781610f8f565b809150509250925092565b80151581146106f057600080fd5b6000806040838503121561120357600080fd5b823561120e81610f8f565b9150602083013561121e816111e2565b809150509250929050565b60006020828403121561123b57600080fd5b813560ff81168114610fd157600080fd5b6000806040838503121561125f57600080fd5b823561126a81610f8f565b946020939093013593505050565b6000806040838503121561128b57600080fd5b823561129681610f8f565b9150602083013561121e81610f8f565b6000806000606084860312156112bb57600080fd5b83356112c681610f8f565b925060208401356112d681610f8f565b929592945050506040919091013590565b6040815260006112fa6040830185610fd8565b82810360208481019190915284518083528582019282019060005b8181101561133157845183529383019391830191600101611315565b5090979650505050505050565b60008060006060848603121561135357600080fd5b833561135e81610f8f565b95602085013595506040909401359392505050565b600067ffffffffffffffff82111561138d5761138d611048565b5060051b60200190565b600082601f8301126113a857600080fd5b813560206113bd6113b883611373565b611087565b82815260059290921b840181019181810190868411156113dc57600080fd5b8286015b848110156114005780356113f381610f8f565b83529183019183016113e0565b509695505050505050565b600082601f83011261141c57600080fd5b8135602061142c6113b883611373565b82815260059290921b8401810191818101908684111561144b57600080fd5b8286015b84811015611400578035835291830191830161144f565b60006040828403121561147857600080fd5b6040516040810181811067ffffffffffffffff8211171561149b5761149b611048565b60405290508082356114ac81610f8f565b815260208301356bffffffffffffffffffffffff811681146114cd57600080fd5b6020919091015292915050565b803563ffffffff81168114610faf57600080fd5b60006020828403121561150057600080fd5b813567ffffffffffffffff8082111561151857600080fd5b9083019060e0828603121561152c57600080fd5b61153461105e565b82358281111561154357600080fd5b61154f87828601611397565b82525060208301358281111561156457600080fd5b6115708782860161140b565b60208301525061158260408401610fa4565b60408201526115948660608501611466565b60608201526115a560a084016114da565b60808201526115b660c08401610fa4565b60a082015295945050505050565b60008083601f8401126115d657600080fd5b50813567ffffffffffffffff8111156115ee57600080fd5b6020830191508360208260051b850101111561160957600080fd5b9250929050565b6000806020838503121561162357600080fd5b823567ffffffffffffffff81111561163a57600080fd5b611646858286016115c4565b90969095509350505050565b6000806000806080858703121561166857600080fd5b843561167381610f8f565b9350602085013561168381610f8f565b9250604085013561169381610f8f565b9396929550929360600135925050565b600080600080608085870312156116b957600080fd5b84356116c481610f8f565b935060208501356116d481610f8f565b92506040850135915060608501356116eb81610f8f565b939692955090935050565b6000806000806040858703121561170c57600080fd5b843567ffffffffffffffff8082111561172457600080fd5b611730888389016115c4565b9096509450602087013591508082111561174957600080fd5b50611756878288016115c4565b95989497509550505050565b60008060008060006060868803121561177a57600080fd5b853561178581610f8f565b9450602086013567ffffffffffffffff808211156117a257600080fd5b6117ae89838a016115c4565b909650945060408801359150808211156117c757600080fd5b506117d4888289016115c4565b969995985093965092949392505050565b6000602082840312156117f757600080fd5b8151610fd181610f8f565b6020808252602a908201527f6d73672e73656e646572206973206e6f74207065726d697373696f6e6564206160408201526939903ab73830bab9b2b960b11b606082015260800190565b60006020828403121561185e57600080fd5b8151610fd1816111e2565b60208082526028908201527f6d73672e73656e646572206973206e6f74207065726d697373696f6e6564206160408201526739903830bab9b2b960c11b60608201526080019056fea26469706673582212203ee74930ef6152e4eed5291e7aac6f2e7d011937a8801481e307bcfe8fc2fb1464736f6c634300080c0033","linkReferences":{}},"methodIdentifiers":{"addShares(address,address,address,uint256)":"c4623ea1","addStrategiesToDepositWhitelist(address[],bool[])":"df5b3547","beaconChainETHStrategy()":"9104c319","calculateWithdrawalRoot((address[],uint256[],address,(address,uint96),uint32,address))":"b43b514b","cumulativeWithdrawalsQueued(address)":"a1788484","delegation()":"df5cf723","depositBeaconChainETH(address,uint256)":"9f00fa24","depositIntoStrategy(address,address,uint256)":"e7a050aa","depositIntoStrategyWithSignature(address,address,uint256,address,uint256,bytes)":"32e89ace","eigenPodManager()":"4665bcda","getDeposits(address)":"94f649dd","migrateQueuedWithdrawal((address[],uint256[],address,(address,uint96),uint32,address))":"cd293f6f","owner()":"8da5cb5b","pause(uint256)":"136439dd","pauseAll()":"595c6a67","paused()":"5c975abb","paused(uint8)":"5ac86ab7","pauserRegistry()":"886f1195","recordBeaconChainETHBalanceUpdate(address,uint256,int256)":"a1ca780b","removeShares(address,address,uint256)":"8c80d4e5","removeStrategiesFromDepositWhitelist(address[])":"b5d8b5b8","renounceOwnership()":"715018a6","setAddresses(address,address,address)":"363bf964","setDeposits(address,address[],uint256[])":"e2a818c5","setPauserRegistry(address)":"10d67a2f","setStakerStrategyListLengthReturnValue(uint256)":"9a9519e0","setStrategyWhitelist(address,bool)":"9b7e2f77","setThirdPartyTransfersForbidden(address,bool)":"4e5a4263","sharesToReturn(address,uint256)":"63fca888","slasher()":"b1344271","stakerStrategyListLength(address)":"8b8aac3c","stakerStrategyListLengthReturnValue()":"01f820b2","stakerStrategyShares(address,address)":"7a7e0d92","stakerStrats(address)":"0d3908f4","strategiesToReturn(address,uint256)":"e243dc3c","strategyIsWhitelistedForDeposit(address)":"663c1de4","strategyWhitelister()":"967fc0d2","thirdPartyTransfersForbidden(address)":"9b4da03d","transferOwnership(address)":"f2fde38b","unpause(uint256)":"fabc1cbc","withdrawSharesAsTokens(address,address,uint256,address)":"c608c7f3"},"id":56}