{"abi":[{"type":"function","name":"foo","inputs":[],"outputs":[{"name":"","type":"uint256","internalType":"uint256"}],"stateMutability":"pure"}],"bytecode":{"object":"0x6080604052348015600f57600080fd5b50607780601d6000396000f3fe6080604052348015600f57600080fd5b506004361060285760003560e01c8063c298557814602d575b600080fd5b600060405190815260200160405180910390f3fea26469706673582212206d793207d50cd37ad6426bce075555c1966dc16f0f6406316fcfa5bbfb5fa72164736f6c634300080c0033","linkReferences":{}},"methodIdentifiers":{"foo()":"c2985578"},"id":55}