{"abi":[{"type":"constructor","inputs":[{"name":"_registryCoordinator","type":"address","internalType":"contract IRegistryCoordinator"},{"name":"_taskResponseWindowBlock","type":"uint32","internalType":"uint32"}],"stateMutability":"nonpayable"},{"type":"function","name":"TASK_CHALLENGE_WINDOW_BLOCK","inputs":[],"outputs":[{"name":"","type":"uint32","internalType":"uint32"}],"stateMutability":"view"},{"type":"function","name":"TASK_RESPONSE_WINDOW_BLOCK","inputs":[],"outputs":[{"name":"","type":"uint32","internalType":"uint32"}],"stateMutability":"view"},{"type":"function","name":"aggregator","inputs":[],"outputs":[{"name":"","type":"address","internalType":"address"}],"stateMutability":"view"},{"type":"function","name":"allTaskHashes","inputs":[{"name":"","type":"uint32","internalType":"uint32"}],"outputs":[{"name":"","type":"bytes32","internalType":"bytes32"}],"stateMutability":"view"},{"type":"function","name":"allTaskResponses","inputs":[{"name":"","type":"uint32","internalType":"uint32"}],"outputs":[{"name":"","type":"bytes32","internalType":"bytes32"}],"stateMutability":"view"},{"type":"function","name":"blsApkRegistry","inputs":[],"outputs":[{"name":"","type":"address","internalType":"contract IBLSApkRegistry"}],"stateMutability":"view"},{"type":"function","name":"checkSignatures","inputs":[{"name":"msgHash","type":"bytes32","internalType":"bytes32"},{"name":"quorumNumbers","type":"bytes","internalType":"bytes"},{"name":"referenceBlockNumber","type":"uint32","internalType":"uint32"},{"name":"params","type":"tuple","internalType":"struct IBLSSignatureChecker.NonSignerStakesAndSignature","components":[{"name":"nonSignerQuorumBitmapIndices","type":"uint32[]","internalType":"uint32[]"},{"name":"nonSignerPubkeys","type":"tuple[]","internalType":"struct BN254.G1Point[]","components":[{"name":"X","type":"uint256","internalType":"uint256"},{"name":"Y","type":"uint256","internalType":"uint256"}]},{"name":"quorumApks","type":"tuple[]","internalType":"struct BN254.G1Point[]","components":[{"name":"X","type":"uint256","internalType":"uint256"},{"name":"Y","type":"uint256","internalType":"uint256"}]},{"name":"apkG2","type":"tuple","internalType":"struct BN254.G2Point","components":[{"name":"X","type":"uint256[2]","internalType":"uint256[2]"},{"name":"Y","type":"uint256[2]","internalType":"uint256[2]"}]},{"name":"sigma","type":"tuple","internalType":"struct BN254.G1Point","components":[{"name":"X","type":"uint256","internalType":"uint256"},{"name":"Y","type":"uint256","internalType":"uint256"}]},{"name":"quorumApkIndices","type":"uint32[]","internalType":"uint32[]"},{"name":"totalStakeIndices","type":"uint32[]","internalType":"uint32[]"},{"name":"nonSignerStakeIndices","type":"uint32[][]","internalType":"uint32[][]"}]}],"outputs":[{"name":"","type":"tuple","internalType":"struct IBLSSignatureChecker.QuorumStakeTotals","components":[{"name":"signedStakeForQuorum","type":"uint96[]","internalType":"uint96[]"},{"name":"totalStakeForQuorum","type":"uint96[]","internalType":"uint96[]"}]},{"name":"","type":"bytes32","internalType":"bytes32"}],"stateMutability":"view"},{"type":"function","name":"createNewTask","inputs":[{"name":"numberToBeSquared","type":"uint256","internalType":"uint256"},{"name":"quorumThresholdPercentage","type":"uint32","internalType":"uint32"},{"name":"quorumNumbers","type":"bytes","internalType":"bytes"}],"outputs":[],"stateMutability":"nonpayable"},{"type":"function","name":"delegation","inputs":[],"outputs":[{"name":"","type":"address","internalType":"contract IDelegationManager"}],"stateMutability":"view"},{"type":"function","name":"generator","inputs":[],"outputs":[{"name":"","type":"address","internalType":"address"}],"stateMutability":"view"},{"type":"function","name":"getCheckSignaturesIndices","inputs":[{"name":"registryCoordinator","type":"address","internalType":"contract IRegistryCoordinator"},{"name":"referenceBlockNumber","type":"uint32","internalType":"uint32"},{"name":"quorumNumbers","type":"bytes","internalType":"bytes"},{"name":"nonSignerOperatorIds","type":"bytes32[]","internalType":"bytes32[]"}],"outputs":[{"name":"","type":"tuple","internalType":"struct OperatorStateRetriever.CheckSignaturesIndices","components":[{"name":"nonSignerQuorumBitmapIndices","type":"uint32[]","internalType":"uint32[]"},{"name":"quorumApkIndices","type":"uint32[]","internalType":"uint32[]"},{"name":"totalStakeIndices","type":"uint32[]","internalType":"uint32[]"},{"name":"nonSignerStakeIndices","type":"uint32[][]","internalType":"uint32[][]"}]}],"stateMutability":"view"},{"type":"function","name":"getOperatorState","inputs":[{"name":"registryCoordinator","type":"address","internalType":"contract IRegistryCoordinator"},{"name":"quorumNumbers","type":"bytes","internalType":"bytes"},{"name":"blockNumber","type":"uint32","internalType":"uint32"}],"outputs":[{"name":"","type":"tuple[][]","internalType":"struct OperatorStateRetriever.Operator[][]","components":[{"name":"operator","type":"address","internalType":"address"},{"name":"operatorId","type":"bytes32","internalType":"bytes32"},{"name":"stake","type":"uint96","internalType":"uint96"}]}],"stateMutability":"view"},{"type":"function","name":"getOperatorState","inputs":[{"name":"registryCoordinator","type":"address","internalType":"contract IRegistryCoordinator"},{"name":"operatorId","type":"bytes32","internalType":"bytes32"},{"name":"blockNumber","type":"uint32","internalType":"uint32"}],"outputs":[{"name":"","type":"uint256","internalType":"uint256"},{"name":"","type":"tuple[][]","internalType":"struct OperatorStateRetriever.Operator[][]","components":[{"name":"operator","type":"address","internalType":"address"},{"name":"operatorId","type":"bytes32","internalType":"bytes32"},{"name":"stake","type":"uint96","internalType":"uint96"}]}],"stateMutability":"view"},{"type":"function","name":"getQuorumBitmapsAtBlockNumber","inputs":[{"name":"registryCoordinator","type":"address","internalType":"contract IRegistryCoordinator"},{"name":"operatorIds","type":"bytes32[]","internalType":"bytes32[]"},{"name":"blockNumber","type":"uint32","internalType":"uint32"}],"outputs":[{"name":"","type":"uint256[]","internalType":"uint256[]"}],"stateMutability":"view"},{"type":"function","name":"getTaskResponseWindowBlock","inputs":[],"outputs":[{"name":"","type":"uint32","internalType":"uint32"}],"stateMutability":"view"},{"type":"function","name":"initialize","inputs":[{"name":"_pauserRegistry","type":"address","internalType":"contract IPauserRegistry"},{"name":"initialOwner","type":"address","internalType":"address"},{"name":"_aggregator","type":"address","internalType":"address"},{"name":"_generator","type":"address","internalType":"address"}],"outputs":[],"stateMutability":"nonpayable"},{"type":"function","name":"latestTaskNum","inputs":[],"outputs":[{"name":"","type":"uint32","internalType":"uint32"}],"stateMutability":"view"},{"type":"function","name":"owner","inputs":[],"outputs":[{"name":"","type":"address","internalType":"address"}],"stateMutability":"view"},{"type":"function","name":"pause","inputs":[{"name":"newPausedStatus","type":"uint256","internalType":"uint256"}],"outputs":[],"stateMutability":"nonpayable"},{"type":"function","name":"pauseAll","inputs":[],"outputs":[],"stateMutability":"nonpayable"},{"type":"function","name":"paused","inputs":[{"name":"index","type":"uint8","internalType":"uint8"}],"outputs":[{"name":"","type":"bool","internalType":"bool"}],"stateMutability":"view"},{"type":"function","name":"paused","inputs":[],"outputs":[{"name":"","type":"uint256","internalType":"uint256"}],"stateMutability":"view"},{"type":"function","name":"pauserRegistry","inputs":[],"outputs":[{"name":"","type":"address","internalType":"contract IPauserRegistry"}],"stateMutability":"view"},{"type":"function","name":"raiseAndResolveChallenge","inputs":[{"name":"task","type":"tuple","internalType":"struct IIncredibleSquaringTaskManager.Task","components":[{"name":"numberToBeSquared","type":"uint256","internalType":"uint256"},{"name":"taskCreatedBlock","type":"uint32","internalType":"uint32"},{"name":"quorumNumbers","type":"bytes","internalType":"bytes"},{"name":"quorumThresholdPercentage","type":"uint32","internalType":"uint32"}]},{"name":"taskResponse","type":"tuple","internalType":"struct IIncredibleSquaringTaskManager.TaskResponse","components":[{"name":"referenceTaskIndex","type":"uint32","internalType":"uint32"},{"name":"numberSquared","type":"uint256","internalType":"uint256"}]},{"name":"taskResponseMetadata","type":"tuple","internalType":"struct IIncredibleSquaringTaskManager.TaskResponseMetadata","components":[{"name":"taskResponsedBlock","type":"uint32","internalType":"uint32"},{"name":"hashOfNonSigners","type":"bytes32","internalType":"bytes32"}]},{"name":"pubkeysOfNonSigningOperators","type":"tuple[]","internalType":"struct BN254.G1Point[]","components":[{"name":"X","type":"uint256","internalType":"uint256"},{"name":"Y","type":"uint256","internalType":"uint256"}]}],"outputs":[],"stateMutability":"nonpayable"},{"type":"function","name":"registryCoordinator","inputs":[],"outputs":[{"name":"","type":"address","internalType":"contract IRegistryCoordinator"}],"stateMutability":"view"},{"type":"function","name":"renounceOwnership","inputs":[],"outputs":[],"stateMutability":"nonpayable"},{"type":"function","name":"respondToTask","inputs":[{"name":"task","type":"tuple","internalType":"struct IIncredibleSquaringTaskManager.Task","components":[{"name":"numberToBeSquared","type":"uint256","internalType":"uint256"},{"name":"taskCreatedBlock","type":"uint32","internalType":"uint32"},{"name":"quorumNumbers","type":"bytes","internalType":"bytes"},{"name":"quorumThresholdPercentage","type":"uint32","internalType":"uint32"}]},{"name":"taskResponse","type":"tuple","internalType":"struct IIncredibleSquaringTaskManager.TaskResponse","components":[{"name":"referenceTaskIndex","type":"uint32","internalType":"uint32"},{"name":"numberSquared","type":"uint256","internalType":"uint256"}]},{"name":"nonSignerStakesAndSignature","type":"tuple","internalType":"struct IBLSSignatureChecker.NonSignerStakesAndSignature","components":[{"name":"nonSignerQuorumBitmapIndices","type":"uint32[]","internalType":"uint32[]"},{"name":"nonSignerPubkeys","type":"tuple[]","internalType":"struct BN254.G1Point[]","components":[{"name":"X","type":"uint256","internalType":"uint256"},{"name":"Y","type":"uint256","internalType":"uint256"}]},{"name":"quorumApks","type":"tuple[]","internalType":"struct BN254.G1Point[]","components":[{"name":"X","type":"uint256","internalType":"uint256"},{"name":"Y","type":"uint256","internalType":"uint256"}]},{"name":"apkG2","type":"tuple","internalType":"struct BN254.G2Point","components":[{"name":"X","type":"uint256[2]","internalType":"uint256[2]"},{"name":"Y","type":"uint256[2]","internalType":"uint256[2]"}]},{"name":"sigma","type":"tuple","internalType":"struct BN254.G1Point","components":[{"name":"X","type":"uint256","internalType":"uint256"},{"name":"Y","type":"uint256","internalType":"uint256"}]},{"name":"quorumApkIndices","type":"uint32[]","internalType":"uint32[]"},{"name":"totalStakeIndices","type":"uint32[]","internalType":"uint32[]"},{"name":"nonSignerStakeIndices","type":"uint32[][]","internalType":"uint32[][]"}]}],"outputs":[],"stateMutability":"nonpayable"},{"type":"function","name":"setPauserRegistry","inputs":[{"name":"newPauserRegistry","type":"address","internalType":"contract IPauserRegistry"}],"outputs":[],"stateMutability":"nonpayable"},{"type":"function","name":"setStaleStakesForbidden","inputs":[{"name":"value","type":"bool","internalType":"bool"}],"outputs":[],"stateMutability":"nonpayable"},{"type":"function","name":"stakeRegistry","inputs":[],"outputs":[{"name":"","type":"address","internalType":"contract IStakeRegistry"}],"stateMutability":"view"},{"type":"function","name":"staleStakesForbidden","inputs":[],"outputs":[{"name":"","type":"bool","internalType":"bool"}],"stateMutability":"view"},{"type":"function","name":"taskNumber","inputs":[],"outputs":[{"name":"","type":"uint32","internalType":"uint32"}],"stateMutability":"view"},{"type":"function","name":"taskSuccesfullyChallenged","inputs":[{"name":"","type":"uint32","internalType":"uint32"}],"outputs":[{"name":"","type":"bool","internalType":"bool"}],"stateMutability":"view"},{"type":"function","name":"transferOwnership","inputs":[{"name":"newOwner","type":"address","internalType":"address"}],"outputs":[],"stateMutability":"nonpayable"},{"type":"function","name":"trySignatureAndApkVerification","inputs":[{"name":"msgHash","type":"bytes32","internalType":"bytes32"},{"name":"apk","type":"tuple","internalType":"struct BN254.G1Point","components":[{"name":"X","type":"uint256","internalType":"uint256"},{"name":"Y","type":"uint256","internalType":"uint256"}]},{"name":"apkG2","type":"tuple","internalType":"struct BN254.G2Point","components":[{"name":"X","type":"uint256[2]","internalType":"uint256[2]"},{"name":"Y","type":"uint256[2]","internalType":"uint256[2]"}]},{"name":"sigma","type":"tuple","internalType":"struct BN254.G1Point","components":[{"name":"X","type":"uint256","internalType":"uint256"},{"name":"Y","type":"uint256","internalType":"uint256"}]}],"outputs":[{"name":"pairingSuccessful","type":"bool","internalType":"bool"},{"name":"siganatureIsValid","type":"bool","internalType":"bool"}],"stateMutability":"view"},{"type":"function","name":"unpause","inputs":[{"name":"newPausedStatus","type":"uint256","internalType":"uint256"}],"outputs":[],"stateMutability":"nonpayable"},{"type":"event","name":"Initialized","inputs":[{"name":"version","type":"uint8","indexed":false,"internalType":"uint8"}],"anonymous":false},{"type":"event","name":"NewTaskCreated","inputs":[{"name":"taskIndex","type":"uint32","indexed":true,"internalType":"uint32"},{"name":"task","type":"tuple","indexed":false,"internalType":"struct IIncredibleSquaringTaskManager.Task","components":[{"name":"numberToBeSquared","type":"uint256","internalType":"uint256"},{"name":"taskCreatedBlock","type":"uint32","internalType":"uint32"},{"name":"quorumNumbers","type":"bytes","internalType":"bytes"},{"name":"quorumThresholdPercentage","type":"uint32","internalType":"uint32"}]}],"anonymous":false},{"type":"event","name":"OwnershipTransferred","inputs":[{"name":"previousOwner","type":"address","indexed":true,"internalType":"address"},{"name":"newOwner","type":"address","indexed":true,"internalType":"address"}],"anonymous":false},{"type":"event","name":"Paused","inputs":[{"name":"account","type":"address","indexed":true,"internalType":"address"},{"name":"newPausedStatus","type":"uint256","indexed":false,"internalType":"uint256"}],"anonymous":false},{"type":"event","name":"PauserRegistrySet","inputs":[{"name":"pauserRegistry","type":"address","indexed":false,"internalType":"contract IPauserRegistry"},{"name":"newPauserRegistry","type":"address","indexed":false,"internalType":"contract IPauserRegistry"}],"anonymous":false},{"type":"event","name":"StaleStakesForbiddenUpdate","inputs":[{"name":"value","type":"bool","indexed":false,"internalType":"bool"}],"anonymous":false},{"type":"event","name":"TaskChallengedSuccessfully","inputs":[{"name":"taskIndex","type":"uint32","indexed":true,"internalType":"uint32"},{"name":"challenger","type":"address","indexed":true,"internalType":"address"}],"anonymous":false},{"type":"event","name":"TaskChallengedUnsuccessfully","inputs":[{"name":"taskIndex","type":"uint32","indexed":true,"internalType":"uint32"},{"name":"challenger","type":"address","indexed":true,"internalType":"address"}],"anonymous":false},{"type":"event","name":"TaskCompleted","inputs":[{"name":"taskIndex","type":"uint32","indexed":true,"internalType":"uint32"}],"anonymous":false},{"type":"event","name":"TaskResponded","inputs":[{"name":"taskResponse","type":"tuple","indexed":false,"internalType":"struct IIncredibleSquaringTaskManager.TaskResponse","components":[{"name":"referenceTaskIndex","type":"uint32","internalType":"uint32"},{"name":"numberSquared","type":"uint256","internalType":"uint256"}]},{"name":"taskResponseMetadata","type":"tuple","indexed":false,"internalType":"struct IIncredibleSquaringTaskManager.TaskResponseMetadata","components":[{"name":"taskResponsedBlock","type":"uint32","internalType":"uint32"},{"name":"hashOfNonSigners","type":"bytes32","internalType":"bytes32"}]}],"anonymous":false},{"type":"event","name":"Unpaused","inputs":[{"name":"account","type":"address","indexed":true,"internalType":"address"},{"name":"newPausedStatus","type":"uint256","indexed":false,"internalType":"uint256"}],"anonymous":false}],"bytecode":{"object":"0x6101206040523480156200001257600080fd5b5060405162005e9638038062005e968339810160408190526200003591620001f7565b81806001600160a01b03166080816001600160a01b031681525050806001600160a01b031663683048356040518163ffffffff1660e01b8152600401602060405180830381865afa1580156200008f573d6000803e3d6000fd5b505050506040513d601f19601f82011682018060405250810190620000b591906200023e565b6001600160a01b031660a0816001600160a01b031681525050806001600160a01b0316635df459466040518163ffffffff1660e01b8152600401602060405180830381865afa1580156200010d573d6000803e3d6000fd5b505050506040513d601f19601f820116820180604052508101906200013391906200023e565b6001600160a01b031660c0816001600160a01b03168152505060a0516001600160a01b031663df5cf7236040518163ffffffff1660e01b8152600401602060405180830381865afa1580156200018d573d6000803e3d6000fd5b505050506040513d601f19601f82011682018060405250810190620001b391906200023e565b6001600160a01b031660e052506097805460ff1916600117905563ffffffff16610100525062000265565b6001600160a01b0381168114620001f457600080fd5b50565b600080604083850312156200020b57600080fd5b82516200021881620001de565b602084015190925063ffffffff811681146200023357600080fd5b809150509250929050565b6000602082840312156200025157600080fd5b81516200025e81620001de565b9392505050565b60805160a05160c05160e05161010051615b9f620002f76000396000818161027d0152818161059c015261195c0152600081816105650152612bee01526000818161041e0152818161224b0152612dd001526000818161044501528181612fa6015261316801526000818161049201528181610e0b015281816128d801528181612a510152612c8b0152615b9f6000f3fe608060405234801561001057600080fd5b506004361061021c5760003560e01c80636b532e9e116101255780638da5cb5b116100ad578063f2fde38b1161007c578063f2fde38b14610587578063f5c9899d1461059a578063f63c5bab146105c0578063f8c8765e146105c8578063fabc1cbc146105db57600080fd5b80638da5cb5b14610521578063b98d090814610532578063cefdc1d41461053f578063df5cf7231461056057600080fd5b8063715018a6116100f4578063715018a6146104d557806372d18e8d146104dd5780637afa1eed146104eb578063886f1195146104fe5780638b00ce7c1461051157600080fd5b80636b532e9e146104675780636b92787e1461047a5780636d14a9871461048d5780636efb4636146104b457600080fd5b80634f739f74116101a85780635c155662116101775780635c155662146103ce5780635c975abb146103ee5780635decc3f5146103f65780635df4594614610419578063683048351461044057600080fd5b80634f739f7414610360578063595c6a67146103805780635ac86ab7146103885780635baec9a0146103bb57600080fd5b8063245a7bfc116101ef578063245a7bfc146102b45780632cb223d5146102df5780632d89f6fc1461030d5780633563b0d11461032d578063416c7e5e1461034d57600080fd5b806310d67a2f14610221578063136439dd14610236578063171f1d5b146102495780631ad4318914610278575b600080fd5b61023461022f3660046146c1565b6105ee565b005b6102346102443660046146de565b6106aa565b61025c61025736600461485c565b6107e9565b6040805192151583529015156020830152015b60405180910390f35b61029f7f000000000000000000000000000000000000000000000000000000000000000081565b60405163ffffffff909116815260200161026f565b60cd546102c7906001600160a01b031681565b6040516001600160a01b03909116815260200161026f565b6102ff6102ed3660046148ca565b60cb6020526000908152604090205481565b60405190815260200161026f565b6102ff61031b3660046148ca565b60ca6020526000908152604090205481565b61034061033b3660046148e7565b610973565b60405161026f9190614a42565b61023461035b366004614a6a565b610e09565b61037361036e366004614acf565b610f7e565b60405161026f9190614bd3565b6102346116a4565b6103ab610396366004614c9d565b606654600160ff9092169190911b9081161490565b604051901515815260200161026f565b6102346103c9366004614f88565b61176b565b6103e16103dc366004614ffc565b611bea565b60405161026f91906150a8565b6066546102ff565b6103ab6104043660046148ca565b60cc6020526000908152604090205460ff1681565b6102c77f000000000000000000000000000000000000000000000000000000000000000081565b6102c77f000000000000000000000000000000000000000000000000000000000000000081565b6102346104753660046150ec565b611db2565b610234610488366004615172565b612384565b6102c77f000000000000000000000000000000000000000000000000000000000000000081565b6104c76104c23660046151cd565b612525565b60405161026f92919061528d565b61023461341d565b60c95463ffffffff1661029f565b60ce546102c7906001600160a01b031681565b6065546102c7906001600160a01b031681565b60c95461029f9063ffffffff1681565b6033546001600160a01b03166102c7565b6097546103ab9060ff1681565b61055261054d3660046152d6565b613431565b60405161026f929190615318565b6102c77f000000000000000000000000000000000000000000000000000000000000000081565b6102346105953660046146c1565b6135c3565b7f000000000000000000000000000000000000000000000000000000000000000061029f565b61029f606481565b6102346105d6366004615339565b613639565b6102346105e93660046146de565b61378a565b606560009054906101000a90046001600160a01b03166001600160a01b031663eab66d7a6040518163ffffffff1660e01b8152600401602060405180830381865afa158015610641573d6000803e3d6000fd5b505050506040513d601f19601f820116820180604052508101906106659190615395565b6001600160a01b0316336001600160a01b03161461069e5760405162461bcd60e51b8152600401610695906153b2565b60405180910390fd5b6106a7816138e6565b50565b60655460405163237dfb4760e11b81523360048201526001600160a01b03909116906346fbf68e90602401602060405180830381865afa1580156106f2573d6000803e3d6000fd5b505050506040513d601f19601f8201168201806040525081019061071691906153fc565b6107325760405162461bcd60e51b815260040161069590615419565b606654818116146107ab5760405162461bcd60e51b815260206004820152603860248201527f5061757361626c652e70617573653a20696e76616c696420617474656d70742060448201527f746f20756e70617573652066756e6374696f6e616c69747900000000000000006064820152608401610695565b606681905560405181815233907fab40a374bc51de372200a8bc981af8c9ecdc08dfdaef0bb6e09f88f3c616ef3d906020015b60405180910390a250565b60008060007f30644e72e131a029b85045b68181585d2833e84879b9709143e1f593f00000018787600001518860200151886000015160006002811061083157610831615461565b60200201518951600160200201518a6020015160006002811061085657610856615461565b60200201518b6020015160016002811061087257610872615461565b602090810291909101518c518d8301516040516108cf9a99989796959401988952602089019790975260408801959095526060870193909352608086019190915260a085015260c084015260e08301526101008201526101200190565b6040516020818303038152906040528051906020012060001c6108f29190615477565b905061096561090b61090488846139dd565b8690613a74565b610913613b08565b61095b61094c85610946604080518082018252600080825260209182015281518083019092526001825260029082015290565b906139dd565b6109558c613bc8565b90613a74565b886201d4c0613c58565b909890975095505050505050565b60606000846001600160a01b031663683048356040518163ffffffff1660e01b8152600401602060405180830381865afa1580156109b5573d6000803e3d6000fd5b505050506040513d601f19601f820116820180604052508101906109d99190615395565b90506000856001600160a01b0316639e9923c26040518163ffffffff1660e01b8152600401602060405180830381865afa158015610a1b573d6000803e3d6000fd5b505050506040513d601f19601f82011682018060405250810190610a3f9190615395565b90506000866001600160a01b0316635df459466040518163ffffffff1660e01b8152600401602060405180830381865afa158015610a81573d6000803e3d6000fd5b505050506040513d601f19601f82011682018060405250810190610aa59190615395565b9050600086516001600160401b03811115610ac257610ac26146f7565b604051908082528060200260200182016040528015610af557816020015b6060815260200190600190039081610ae05790505b50905060005b8751811015610dfd576000888281518110610b1857610b18615461565b0160200151604051638902624560e01b815260f89190911c6004820181905263ffffffff8a16602483015291506000906001600160a01b03871690638902624590604401600060405180830381865afa158015610b79573d6000803e3d6000fd5b505050506040513d6000823e601f3d908101601f19168201604052610ba19190810190615499565b905080516001600160401b03811115610bbc57610bbc6146f7565b604051908082528060200260200182016040528015610c0757816020015b6040805160608101825260008082526020808301829052928201528252600019909201910181610bda5790505b50848481518110610c1a57610c1a615461565b602002602001018190525060005b8151811015610de7576040518060600160405280876001600160a01b03166347b314e8858581518110610c5d57610c5d615461565b60200260200101516040518263ffffffff1660e01b8152600401610c8391815260200190565b602060405180830381865afa158015610ca0573d6000803e3d6000fd5b505050506040513d601f19601f82011682018060405250810190610cc49190615395565b6001600160a01b03168152602001838381518110610ce457610ce4615461565b60200260200101518152602001896001600160a01b031663fa28c627858581518110610d1257610d12615461565b60209081029190910101516040516001600160e01b031960e084901b168152600481019190915260ff8816602482015263ffffffff8f166044820152606401602060405180830381865afa158015610d6e573d6000803e3d6000fd5b505050506040513d601f19601f82011682018060405250810190610d929190615529565b6001600160601b0316815250858581518110610db057610db0615461565b60200260200101518281518110610dc957610dc9615461565b60200260200101819052508080610ddf90615568565b915050610c28565b5050508080610df590615568565b915050610afb565b50979650505050505050565b7f00000000000000000000000000000000000000000000000000000000000000006001600160a01b0316638da5cb5b6040518163ffffffff1660e01b8152600401602060405180830381865afa158015610e67573d6000803e3d6000fd5b505050506040513d601f19601f82011682018060405250810190610e8b9190615395565b6001600160a01b0316336001600160a01b031614610f375760405162461bcd60e51b815260206004820152605c60248201527f424c535369676e6174757265436865636b65722e6f6e6c79436f6f7264696e6160448201527f746f724f776e65723a2063616c6c6572206973206e6f7420746865206f776e6560648201527f72206f6620746865207265676973747279436f6f7264696e61746f7200000000608482015260a401610695565b6097805460ff19168215159081179091556040519081527f40e4ed880a29e0f6ddce307457fb75cddf4feef7d3ecb0301bfdf4976a0e2dfc9060200160405180910390a150565b610fa96040518060800160405280606081526020016060815260200160608152602001606081525090565b6000876001600160a01b031663683048356040518163ffffffff1660e01b8152600401602060405180830381865afa158015610fe9573d6000803e3d6000fd5b505050506040513d601f19601f8201168201806040525081019061100d9190615395565b905061103a6040518060800160405280606081526020016060815260200160608152602001606081525090565b6040516361c8a12f60e11b81526001600160a01b038a169063c391425e9061106a908b9089908990600401615583565b600060405180830381865afa158015611087573d6000803e3d6000fd5b505050506040513d6000823e601f3d908101601f191682016040526110af91908101906155cd565b81526040516340e03a8160e11b81526001600160a01b038316906381c07502906110e1908b908b908b90600401615684565b600060405180830381865afa1580156110fe573d6000803e3d6000fd5b505050506040513d6000823e601f3d908101601f1916820160405261112691908101906155cd565b6040820152856001600160401b03811115611143576111436146f7565b60405190808252806020026020018201604052801561117657816020015b60608152602001906001900390816111615790505b50606082015260005b60ff81168711156115b5576000856001600160401b038111156111a4576111a46146f7565b6040519080825280602002602001820160405280156111cd578160200160208202803683370190505b5083606001518360ff16815181106111e7576111e7615461565b602002602001018190525060005b868110156114b55760008c6001600160a01b03166304ec63518a8a8581811061122057611220615461565b905060200201358e8860000151868151811061123e5761123e615461565b60200260200101516040518463ffffffff1660e01b815260040161127b9392919092835263ffffffff918216602084015216604082015260600190565b602060405180830381865afa158015611298573d6000803e3d6000fd5b505050506040513d601f19601f820116820180604052508101906112bc91906156ad565b90506001600160c01b0381166113605760405162461bcd60e51b815260206004820152605c60248201527f4f70657261746f7253746174655265747269657665722e676574436865636b5360448201527f69676e617475726573496e64696365733a206f70657261746f72206d7573742060648201527f6265207265676973746572656420617420626c6f636b6e756d62657200000000608482015260a401610695565b8a8a8560ff1681811061137557611375615461565b6001600160c01b03841692013560f81c9190911c6001908116141590506114a257856001600160a01b031663dd9846b98a8a858181106113b7576113b7615461565b905060200201358d8d8860ff168181106113d3576113d3615461565b6040516001600160e01b031960e087901b1681526004810194909452919091013560f81c60248301525063ffffffff8f166044820152606401602060405180830381865afa158015611429573d6000803e3d6000fd5b505050506040513d601f19601f8201168201806040525081019061144d91906156d6565b85606001518560ff168151811061146657611466615461565b6020026020010151848151811061147f5761147f615461565b63ffffffff909216602092830291909101909101528261149e81615568565b9350505b50806114ad81615568565b9150506111f5565b506000816001600160401b038111156114d0576114d06146f7565b6040519080825280602002602001820160405280156114f9578160200160208202803683370190505b50905060005b8281101561157a5784606001518460ff168151811061152057611520615461565b6020026020010151818151811061153957611539615461565b602002602001015182828151811061155357611553615461565b63ffffffff909216602092830291909101909101528061157281615568565b9150506114ff565b508084606001518460ff168151811061159557611595615461565b6020026020010181905250505080806115ad906156f3565b91505061117f565b506000896001600160a01b0316635df459466040518163ffffffff1660e01b8152600401602060405180830381865afa1580156115f6573d6000803e3d6000fd5b505050506040513d601f19601f8201168201806040525081019061161a9190615395565b60405163354952a360e21b81529091506001600160a01b0382169063d5254a8c9061164d908b908b908e90600401615713565b600060405180830381865afa15801561166a573d6000803e3d6000fd5b505050506040513d6000823e601f3d908101601f1916820160405261169291908101906155cd565b60208301525098975050505050505050565b60655460405163237dfb4760e11b81523360048201526001600160a01b03909116906346fbf68e90602401602060405180830381865afa1580156116ec573d6000803e3d6000fd5b505050506040513d601f19601f8201168201806040525081019061171091906153fc565b61172c5760405162461bcd60e51b815260040161069590615419565b600019606681905560405190815233907fab40a374bc51de372200a8bc981af8c9ecdc08dfdaef0bb6e09f88f3c616ef3d9060200160405180910390a2565b60cd546001600160a01b031633146117c55760405162461bcd60e51b815260206004820152601d60248201527f41676772656761746f72206d757374206265207468652063616c6c65720000006044820152606401610695565b60006117d760408501602086016148ca565b90503660006117e9604087018761573d565b9092509050600061180060808801606089016148ca565b905060ca600061181360208901896148ca565b63ffffffff1663ffffffff168152602001908152602001600020548760405160200161183f9190615783565b60405160208183030381529060405280519060200120146118c85760405162461bcd60e51b815260206004820152603d60248201527f737570706c696564207461736b20646f6573206e6f74206d617463682074686560448201527f206f6e65207265636f7264656420696e2074686520636f6e74726163740000006064820152608401610695565b600060cb816118da60208a018a6148ca565b63ffffffff1663ffffffff16815260200190815260200160002054146119575760405162461bcd60e51b815260206004820152602c60248201527f41676772656761746f722068617320616c726561647920726573706f6e64656460448201526b20746f20746865207461736b60a01b6064820152608401610695565b6119817f000000000000000000000000000000000000000000000000000000000000000085615824565b63ffffffff164363ffffffff1611156119f25760405162461bcd60e51b815260206004820152602d60248201527f41676772656761746f722068617320726573706f6e64656420746f207468652060448201526c7461736b20746f6f206c61746560981b6064820152608401610695565b600086604051602001611a05919061586a565b604051602081830303815290604052805190602001209050600080611a2d8387878a8c612525565b9150915060005b85811015611b2c578460ff1683602001518281518110611a5657611a56615461565b6020026020010151611a689190615878565b6001600160601b0316606484600001518381518110611a8957611a89615461565b60200260200101516001600160601b0316611aa491906158a7565b1015611b1a576040805162461bcd60e51b81526020600482015260248101919091527f5369676e61746f7269657320646f206e6f74206f776e206174206c656173742060448201527f7468726573686f6c642070657263656e74616765206f6620612071756f72756d6064820152608401610695565b80611b2481615568565b915050611a34565b5060408051808201825263ffffffff43168152602080820184905291519091611b59918c918491016158c6565b6040516020818303038152906040528051906020012060cb60008c6000016020810190611b8691906148ca565b63ffffffff1663ffffffff168152602001908152602001600020819055507f349c1ee60e4e8972ee9dba642c1774543d5c4136879b7f4caaf04bf81a487a2a8a82604051611bd59291906158c6565b60405180910390a15050505050505050505050565b60606000846001600160a01b031663c391425e84866040518363ffffffff1660e01b8152600401611c1c9291906158f2565b600060405180830381865afa158015611c39573d6000803e3d6000fd5b505050506040513d6000823e601f3d908101601f19168201604052611c6191908101906155cd565b9050600084516001600160401b03811115611c7e57611c7e6146f7565b604051908082528060200260200182016040528015611ca7578160200160208202803683370190505b50905060005b8551811015611da857866001600160a01b03166304ec6351878381518110611cd757611cd7615461565b602002602001015187868581518110611cf257611cf2615461565b60200260200101516040518463ffffffff1660e01b8152600401611d2f9392919092835263ffffffff918216602084015216604082015260600190565b602060405180830381865afa158015611d4c573d6000803e3d6000fd5b505050506040513d601f19601f82011682018060405250810190611d7091906156ad565b6001600160c01b0316828281518110611d8b57611d8b615461565b602090810291909101015280611da081615568565b915050611cad565b5095945050505050565b6000611dc160208501856148ca565b63ffffffff8116600090815260cb6020526040902054909150853590611e335760405162461bcd60e51b815260206004820152602160248201527f5461736b206861736e2774206265656e20726573706f6e64656420746f2079656044820152601d60fa1b6064820152608401610695565b8484604051602001611e46929190615946565b60408051601f19818403018152918152815160209283012063ffffffff8516600090815260cb90935291205414611ee55760405162461bcd60e51b815260206004820152603d60248201527f5461736b20726573706f6e736520646f6573206e6f74206d617463682074686560448201527f206f6e65207265636f7264656420696e2074686520636f6e74726163740000006064820152608401610695565b63ffffffff8216600090815260cc602052604090205460ff1615611f7d5760405162461bcd60e51b815260206004820152604360248201527f54686520726573706f6e736520746f2074686973207461736b2068617320616c60448201527f7265616479206265656e206368616c6c656e676564207375636365737366756c606482015262363c9760e91b608482015260a401610695565b6064611f8c60208601866148ca565b611f969190615824565b63ffffffff164363ffffffff1611156120175760405162461bcd60e51b815260206004820152603760248201527f546865206368616c6c656e676520706572696f6420666f72207468697320746160448201527f736b2068617320616c726561647920657870697265642e0000000000000000006064820152608401610695565b600061202382806158a7565b905060208601358114600181141561207157604051339063ffffffff8616907ffd3e26beeb5967fc5a57a0446914eabc45b4aa474c67a51b4b5160cac60ddb0590600090a35050505061237e565b600085516001600160401b0381111561208c5761208c6146f7565b6040519080825280602002602001820160405280156120b5578160200160208202803683370190505b50905060005b8651811015612127576120f88782815181106120d9576120d9615461565b6020026020010151805160009081526020918201519091526040902090565b82828151811061210a5761210a615461565b60209081029190910101528061211f81615568565b9150506120bb565b50600061213a60408b0160208c016148ca565b8260405160200161214c92919061597c565b604051602081830303815290604052805190602001209050876020013581146121f65760405162461bcd60e51b815260206004820152605060248201527f546865207075626b657973206f66206e6f6e2d7369676e696e67206f7065726160448201527f746f727320737570706c69656420627920746865206368616c6c656e6765722060648201526f30b932903737ba1031b7b93932b1ba1760811b608482015260a401610695565b600087516001600160401b03811115612211576122116146f7565b60405190808252806020026020018201604052801561223a578160200160208202803683370190505b50905060005b885181101561232d577f00000000000000000000000000000000000000000000000000000000000000006001600160a01b031663e8bb9ae685838151811061228a5761228a615461565b60200260200101516040518263ffffffff1660e01b81526004016122b091815260200190565b602060405180830381865afa1580156122cd573d6000803e3d6000fd5b505050506040513d601f19601f820116820180604052508101906122f19190615395565b82828151811061230357612303615461565b6001600160a01b03909216602092830291909101909101528061232581615568565b915050612240565b5063ffffffff8716600081815260cc6020526040808220805460ff19166001179055513392917fc20d1bb0f1623680306b83d4ff4bb99a2beb9d86d97832f3ca40fd13a29df1ec91a3505050505050505b50505050565b60ce546001600160a01b031633146123e85760405162461bcd60e51b815260206004820152602160248201527f5461736b2067656e657261746f72206d757374206265207468652063616c6c656044820152603960f91b6064820152608401610695565b61241f604051806080016040528060008152602001600063ffffffff16815260200160608152602001600063ffffffff1681525090565b84815263ffffffff438116602080840191909152908516606083015260408051601f8501839004830281018301909152838152908490849081908401838280828437600092019190915250505050604080830191909152516124859082906020016159c4565b60408051601f19818403018152828252805160209182012060c9805463ffffffff908116600090815260ca90945293909220555416907f1695b8d06ec800b4615e745cfb5bd00c1f2875615d42925c3b5afa543bb24c48906124e89084906159c4565b60405180910390a260c9546125049063ffffffff166001615824565b60c9805463ffffffff191663ffffffff929092169190911790555050505050565b604080518082019091526060808252602082015260008461259c5760405162461bcd60e51b81526020600482015260376024820152600080516020615b4a83398151915260448201527f7265733a20656d7074792071756f72756d20696e7075740000000000000000006064820152608401610695565b604083015151851480156125b4575060a08301515185145b80156125c4575060c08301515185145b80156125d4575060e08301515185145b61263e5760405162461bcd60e51b81526020600482015260416024820152600080516020615b4a83398151915260448201527f7265733a20696e7075742071756f72756d206c656e677468206d69736d6174636064820152600d60fb1b608482015260a401610695565b825151602084015151146126b65760405162461bcd60e51b815260206004820152604460248201819052600080516020615b4a833981519152908201527f7265733a20696e707574206e6f6e7369676e6572206c656e677468206d69736d6064820152630c2e8c6d60e31b608482015260a401610695565b4363ffffffff168463ffffffff16106127255760405162461bcd60e51b815260206004820152603c6024820152600080516020615b4a83398151915260448201527f7265733a20696e76616c6964207265666572656e636520626c6f636b000000006064820152608401610695565b6040805180820182526000808252602080830191909152825180840190935260608084529083015290866001600160401b03811115612766576127666146f7565b60405190808252806020026020018201604052801561278f578160200160208202803683370190505b506020820152866001600160401b038111156127ad576127ad6146f7565b6040519080825280602002602001820160405280156127d6578160200160208202803683370190505b50815260408051808201909152606080825260208201528560200151516001600160401b0381111561280a5761280a6146f7565b604051908082528060200260200182016040528015612833578160200160208202803683370190505b5081526020860151516001600160401b03811115612853576128536146f7565b60405190808252806020026020018201604052801561287c578160200160208202803683370190505b508160200181905250600061294e8a8a8080601f0160208091040260200160405190810160405280939291908181526020018383808284376000920191909152505060408051639aa1653d60e01b815290516001600160a01b037f0000000000000000000000000000000000000000000000000000000000000000169350639aa1653d925060048083019260209291908290030181865afa158015612925573d6000803e3d6000fd5b505050506040513d601f19601f820116820180604052508101906129499190615a4f565b613e7c565b905060005b876020015151811015612bca57612979886020015182815181106120d9576120d9615461565b8360200151828151811061298f5761298f615461565b60209081029190910101528015612a4f5760208301516129b0600183615a6c565b815181106129c0576129c0615461565b602002602001015160001c836020015182815181106129e1576129e1615461565b602002602001015160001c11612a4f576040805162461bcd60e51b8152602060048201526024810191909152600080516020615b4a83398151915260448201527f7265733a206e6f6e5369676e65725075626b657973206e6f7420736f727465646064820152608401610695565b7f00000000000000000000000000000000000000000000000000000000000000006001600160a01b03166304ec635184602001518381518110612a9457612a94615461565b60200260200101518b8b600001518581518110612ab357612ab3615461565b60200260200101516040518463ffffffff1660e01b8152600401612af09392919092835263ffffffff918216602084015216604082015260600190565b602060405180830381865afa158015612b0d573d6000803e3d6000fd5b505050506040513d601f19601f82011682018060405250810190612b3191906156ad565b6001600160c01b031683600001518281518110612b5057612b50615461565b602002602001018181525050612bb6610904612b8a8486600001518581518110612b7c57612b7c615461565b602002602001015116613f0f565b8a602001518481518110612ba057612ba0615461565b6020026020010151613f3a90919063ffffffff16565b945080612bc281615568565b915050612953565b5050612bd58361401e565b60975490935060ff16600081612bec576000612c6e565b7f00000000000000000000000000000000000000000000000000000000000000006001600160a01b031663c448feb86040518163ffffffff1660e01b8152600401602060405180830381865afa158015612c4a573d6000803e3d6000fd5b505050506040513d601f19601f82011682018060405250810190612c6e9190615a83565b905060005b8a8110156132ec578215612dce578963ffffffff16827f00000000000000000000000000000000000000000000000000000000000000006001600160a01b031663249a0c428f8f86818110612cca57612cca615461565b60405160e085901b6001600160e01b031916815292013560f81c600483015250602401602060405180830381865afa158015612d0a573d6000803e3d6000fd5b505050506040513d601f19601f82011682018060405250810190612d2e9190615a83565b612d389190615a9c565b11612dce5760405162461bcd60e51b81526020600482015260666024820152600080516020615b4a83398151915260448201527f7265733a205374616b6552656769737472792075706461746573206d7573742060648201527f62652077697468696e207769746864726177616c44656c6179426c6f636b732060848201526577696e646f7760d01b60a482015260c401610695565b7f00000000000000000000000000000000000000000000000000000000000000006001600160a01b03166368bccaac8d8d84818110612e0f57612e0f615461565b9050013560f81c60f81b60f81c8c8c60a001518581518110612e3357612e33615461565b60209081029190910101516040516001600160e01b031960e086901b16815260ff909316600484015263ffffffff9182166024840152166044820152606401602060405180830381865afa158015612e8f573d6000803e3d6000fd5b505050506040513d601f19601f82011682018060405250810190612eb39190615ab4565b6001600160401b031916612ed68a6040015183815181106120d9576120d9615461565b67ffffffffffffffff191614612f725760405162461bcd60e51b81526020600482015260616024820152600080516020615b4a83398151915260448201527f7265733a2071756f72756d41706b206861736820696e2073746f72616765206460648201527f6f6573206e6f74206d617463682070726f76696465642071756f72756d2061706084820152606b60f81b60a482015260c401610695565b612fa289604001518281518110612f8b57612f8b615461565b602002602001015187613a7490919063ffffffff16565b95507f00000000000000000000000000000000000000000000000000000000000000006001600160a01b031663c8294c568d8d84818110612fe557612fe5615461565b9050013560f81c60f81b60f81c8c8c60c00151858151811061300957613009615461565b60209081029190910101516040516001600160e01b031960e086901b16815260ff909316600484015263ffffffff9182166024840152166044820152606401602060405180830381865afa158015613065573d6000803e3d6000fd5b505050506040513d601f19601f820116820180604052508101906130899190615529565b8560200151828151811061309f5761309f615461565b6001600160601b039092166020928302919091018201528501518051829081106130cb576130cb615461565b6020026020010151856000015182815181106130e9576130e9615461565b60200260200101906001600160601b031690816001600160601b0316815250506000805b8a60200151518110156132d7576131618660000151828151811061313357613133615461565b60200260200101518f8f8681811061314d5761314d615461565b600192013560f81c9290921c811614919050565b156132c5577f00000000000000000000000000000000000000000000000000000000000000006001600160a01b031663f2be94ae8f8f868181106131a7576131a7615461565b9050013560f81c60f81b60f81c8e896020015185815181106131cb576131cb615461565b60200260200101518f60e0015188815181106131e9576131e9615461565b6020026020010151878151811061320257613202615461565b60209081029190910101516040516001600160e01b031960e087901b16815260ff909416600485015263ffffffff92831660248501526044840191909152166064820152608401602060405180830381865afa158015613266573d6000803e3d6000fd5b505050506040513d601f19601f8201168201806040525081019061328a9190615529565b875180518590811061329e5761329e615461565b602002602001018181516132b29190615adf565b6001600160601b03169052506001909101905b806132cf81615568565b91505061310d565b505080806132e490615568565b915050612c73565b5050506000806133068c868a606001518b608001516107e9565b91509150816133775760405162461bcd60e51b81526020600482015260436024820152600080516020615b4a83398151915260448201527f7265733a2070616972696e6720707265636f6d70696c652063616c6c206661696064820152621b195960ea1b608482015260a401610695565b806133d85760405162461bcd60e51b81526020600482015260396024820152600080516020615b4a83398151915260448201527f7265733a207369676e617475726520697320696e76616c6964000000000000006064820152608401610695565b505060008782602001516040516020016133f392919061597c565b60408051808303601f190181529190528051602090910120929b929a509198505050505050505050565b6134256140b9565b61342f6000614113565b565b604080516001808252818301909252600091606091839160208083019080368337019050509050848160008151811061346c5761346c615461565b60209081029190910101526040516361c8a12f60e11b81526000906001600160a01b0388169063c391425e906134a890889086906004016158f2565b600060405180830381865afa1580156134c5573d6000803e3d6000fd5b505050506040513d6000823e601f3d908101601f191682016040526134ed91908101906155cd565b6000815181106134ff576134ff615461565b60209081029190910101516040516304ec635160e01b81526004810188905263ffffffff87811660248301529091166044820181905291506000906001600160a01b038916906304ec635190606401602060405180830381865afa15801561356b573d6000803e3d6000fd5b505050506040513d601f19601f8201168201806040525081019061358f91906156ad565b6001600160c01b0316905060006135a582614165565b9050816135b38a838a610973565b9550955050505050935093915050565b6135cb6140b9565b6001600160a01b0381166136305760405162461bcd60e51b815260206004820152602660248201527f4f776e61626c653a206e6577206f776e657220697320746865207a65726f206160448201526564647265737360d01b6064820152608401610695565b6106a781614113565b600054610100900460ff16158080156136595750600054600160ff909116105b806136735750303b158015613673575060005460ff166001145b6136d65760405162461bcd60e51b815260206004820152602e60248201527f496e697469616c697a61626c653a20636f6e747261637420697320616c72656160448201526d191e481a5b9a5d1a585b1a5e995960921b6064820152608401610695565b6000805460ff1916600117905580156136f9576000805461ff0019166101001790555b613704856000614231565b61370d84614113565b60cd80546001600160a01b038086166001600160a01b03199283161790925560ce8054928516929091169190911790558015613783576000805461ff0019169055604051600181527f7f26b83ff96e1f2b6a682f133852f6798a09c465da95921460cefb38474024989060200160405180910390a15b5050505050565b606560009054906101000a90046001600160a01b03166001600160a01b031663eab66d7a6040518163ffffffff1660e01b8152600401602060405180830381865afa1580156137dd573d6000803e3d6000fd5b505050506040513d601f19601f820116820180604052508101906138019190615395565b6001600160a01b0316336001600160a01b0316146138315760405162461bcd60e51b8152600401610695906153b2565b6066541981196066541916146138af5760405162461bcd60e51b815260206004820152603860248201527f5061757361626c652e756e70617573653a20696e76616c696420617474656d7060448201527f7420746f2070617573652066756e6374696f6e616c69747900000000000000006064820152608401610695565b606681905560405181815233907f3582d1828e26bf56bd801502bc021ac0bc8afb57c826e4986b45593c8fad389c906020016107de565b6001600160a01b0381166139745760405162461bcd60e51b815260206004820152604960248201527f5061757361626c652e5f73657450617573657252656769737472793a206e657760448201527f50617573657252656769737472792063616e6e6f7420626520746865207a65726064820152686f206164647265737360b81b608482015260a401610695565b606554604080516001600160a01b03928316815291831660208301527f6e9fcd539896fca60e8b0f01dd580233e48a6b0f7df013b89ba7f565869acdb6910160405180910390a1606580546001600160a01b0319166001600160a01b0392909216919091179055565b60408051808201909152600080825260208201526139f96145d2565b835181526020808501519082015260408082018490526000908360608460076107d05a03fa9050808015613a2c57613a2e565bfe5b5080613a6c5760405162461bcd60e51b815260206004820152600d60248201526c1958cb5b5d5b0b59985a5b1959609a1b6044820152606401610695565b505092915050565b6040805180820190915260008082526020820152613a906145f0565b835181526020808501518183015283516040808401919091529084015160608301526000908360808460066107d05a03fa9050808015613a2c575080613a6c5760405162461bcd60e51b815260206004820152600d60248201526c1958cb5859190b59985a5b1959609a1b6044820152606401610695565b613b1061460e565b50604080516080810182527f198e9393920d483a7260bfb731fb5d25f1aa493335a9e71297e485b7aef312c28183019081527f1800deef121f1e76426a00665e5c4479674322d4f75edadd46debd5cd992f6ed6060830152815281518083019092527f275dc4a288d1afb3cbb1ac09187524c7db36395df7be3b99e673b13a075a65ec82527f1d9befcd05a5323e6da4d435f3b617cdb3af83285c2df711ef39c01571827f9d60208381019190915281019190915290565b604080518082019091526000808252602082015260008080613bf8600080516020615b2a83398151915286615477565b90505b613c048161431b565b9093509150600080516020615b2a833981519152828309831415613c3e576040805180820190915290815260208101919091529392505050565b600080516020615b2a833981519152600182089050613bfb565b604080518082018252868152602080820186905282518084019093528683528201849052600091829190613c8a614633565b60005b6002811015613e4f576000613ca38260066158a7565b9050848260028110613cb757613cb7615461565b60200201515183613cc9836000615a9c565b600c8110613cd957613cd9615461565b6020020152848260028110613cf057613cf0615461565b60200201516020015183826001613d079190615a9c565b600c8110613d1757613d17615461565b6020020152838260028110613d2e57613d2e615461565b6020020151515183613d41836002615a9c565b600c8110613d5157613d51615461565b6020020152838260028110613d6857613d68615461565b6020020151516001602002015183613d81836003615a9c565b600c8110613d9157613d91615461565b6020020152838260028110613da857613da8615461565b602002015160200151600060028110613dc357613dc3615461565b602002015183613dd4836004615a9c565b600c8110613de457613de4615461565b6020020152838260028110613dfb57613dfb615461565b602002015160200151600160028110613e1657613e16615461565b602002015183613e27836005615a9c565b600c8110613e3757613e37615461565b60200201525080613e4781615568565b915050613c8d565b50613e58614652565b60006020826101808560088cfa9151919c9115159b50909950505050505050505050565b600080613e888461439d565b9050808360ff166001901b11613f065760405162461bcd60e51b815260206004820152603f60248201527f4269746d61705574696c732e6f72646572656442797465734172726179546f4260448201527f69746d61703a206269746d61702065786365656473206d61782076616c7565006064820152608401610695565b90505b92915050565b6000805b8215613f0957613f24600184615a6c565b9092169180613f3281615b07565b915050613f13565b60408051808201909152600080825260208201526102008261ffff1610613f965760405162461bcd60e51b815260206004820152601060248201526f7363616c61722d746f6f2d6c6172676560801b6044820152606401610695565b8161ffff1660011415613faa575081613f09565b6040805180820190915260008082526020820181905284906001905b8161ffff168661ffff161061401357600161ffff871660ff83161c81161415613ff657613ff38484613a74565b93505b6140008384613a74565b92506201fffe600192831b169101613fc6565b509195945050505050565b6040805180820190915260008082526020820152815115801561404357506020820151155b15614061575050604080518082019091526000808252602082015290565b604051806040016040528083600001518152602001600080516020615b2a83398151915284602001516140949190615477565b6140ac90600080516020615b2a833981519152615a6c565b905292915050565b919050565b6033546001600160a01b0316331461342f5760405162461bcd60e51b815260206004820181905260248201527f4f776e61626c653a2063616c6c6572206973206e6f7420746865206f776e65726044820152606401610695565b603380546001600160a01b038381166001600160a01b0319831681179093556040519116919082907f8be0079c531659141344cd1fd0a4f28419497f9722a3daafe3b4186f6b6457e090600090a35050565b606060008061417384613f0f565b61ffff166001600160401b0381111561418e5761418e6146f7565b6040519080825280601f01601f1916602001820160405280156141b8576020820181803683370190505b5090506000805b8251821080156141d0575061010081105b15614227576001811b935085841615614217578060f81b8383815181106141f9576141f9615461565b60200101906001600160f81b031916908160001a9053508160010191505b61422081615568565b90506141bf565b5090949350505050565b6065546001600160a01b031615801561425257506001600160a01b03821615155b6142d45760405162461bcd60e51b815260206004820152604760248201527f5061757361626c652e5f696e697469616c697a655061757365723a205f696e6960448201527f7469616c697a6550617573657228292063616e206f6e6c792062652063616c6c6064820152666564206f6e636560c81b608482015260a401610695565b606681905560405181815233907fab40a374bc51de372200a8bc981af8c9ecdc08dfdaef0bb6e09f88f3c616ef3d9060200160405180910390a2614317826138e6565b5050565b60008080600080516020615b2a8339815191526003600080516020615b2a83398151915286600080516020615b2a833981519152888909090890506000614391827f0c19139cb84c680a6e14116da060561765e05aa45a1c72a34f082305b61f3f52600080516020615b2a83398151915261452a565b91959194509092505050565b6000610100825111156144265760405162461bcd60e51b8152602060048201526044602482018190527f4269746d61705574696c732e6f72646572656442797465734172726179546f42908201527f69746d61703a206f7264657265644279746573417272617920697320746f6f206064820152636c6f6e6760e01b608482015260a401610695565b815161443457506000919050565b6000808360008151811061444a5761444a615461565b0160200151600160f89190911c81901b92505b84518110156145215784818151811061447857614478615461565b0160200151600160f89190911c1b915082821161450d5760405162461bcd60e51b815260206004820152604760248201527f4269746d61705574696c732e6f72646572656442797465734172726179546f4260448201527f69746d61703a206f72646572656442797465734172726179206973206e6f74206064820152661bdc99195c995960ca1b608482015260a401610695565b9181179161451a81615568565b905061445d565b50909392505050565b600080614535614652565b61453d614670565b602080825281810181905260408201819052606082018890526080820187905260a082018690528260c08360056107d05a03fa9250828015613a2c5750826145c75760405162461bcd60e51b815260206004820152601a60248201527f424e3235342e6578704d6f643a2063616c6c206661696c7572650000000000006044820152606401610695565b505195945050505050565b60405180606001604052806003906020820280368337509192915050565b60405180608001604052806004906020820280368337509192915050565b604051806040016040528061462161468e565b815260200161462e61468e565b905290565b604051806101800160405280600c906020820280368337509192915050565b60405180602001604052806001906020820280368337509192915050565b6040518060c001604052806006906020820280368337509192915050565b60405180604001604052806002906020820280368337509192915050565b6001600160a01b03811681146106a757600080fd5b6000602082840312156146d357600080fd5b8135613f06816146ac565b6000602082840312156146f057600080fd5b5035919050565b634e487b7160e01b600052604160045260246000fd5b604080519081016001600160401b038111828210171561472f5761472f6146f7565b60405290565b60405161010081016001600160401b038111828210171561472f5761472f6146f7565b604051601f8201601f191681016001600160401b0381118282101715614780576147806146f7565b604052919050565b60006040828403121561479a57600080fd5b6147a261470d565b9050813581526020820135602082015292915050565b600082601f8301126147c957600080fd5b604051604081018181106001600160401b03821117156147eb576147eb6146f7565b806040525080604084018581111561480257600080fd5b845b81811015614013578035835260209283019201614804565b60006080828403121561482e57600080fd5b61483661470d565b905061484283836147b8565b815261485183604084016147b8565b602082015292915050565b600080600080610120858703121561487357600080fd5b843593506148848660208701614788565b9250614893866060870161481c565b91506148a28660e08701614788565b905092959194509250565b63ffffffff811681146106a757600080fd5b80356140b4816148ad565b6000602082840312156148dc57600080fd5b8135613f06816148ad565b6000806000606084860312156148fc57600080fd5b8335614907816146ac565b92506020848101356001600160401b038082111561492457600080fd5b818701915087601f83011261493857600080fd5b81358181111561494a5761494a6146f7565b61495c601f8201601f19168501614758565b9150808252888482850101111561497257600080fd5b8084840185840137600084828401015250809450505050614995604085016148bf565b90509250925092565b600081518084526020808501808196508360051b810191508286016000805b86811015614a34578385038a52825180518087529087019087870190845b81811015614a1f57835180516001600160a01b031684528a8101518b8501526040908101516001600160601b031690840152928901926060909201916001016149db565b50509a87019a955050918501916001016149bd565b509298975050505050505050565b602081526000614a55602083018461499e565b9392505050565b80151581146106a757600080fd5b600060208284031215614a7c57600080fd5b8135613f0681614a5c565b60008083601f840112614a9957600080fd5b5081356001600160401b03811115614ab057600080fd5b602083019150836020828501011115614ac857600080fd5b9250929050565b60008060008060008060808789031215614ae857600080fd5b8635614af3816146ac565b95506020870135614b03816148ad565b945060408701356001600160401b0380821115614b1f57600080fd5b614b2b8a838b01614a87565b90965094506060890135915080821115614b4457600080fd5b818901915089601f830112614b5857600080fd5b813581811115614b6757600080fd5b8a60208260051b8501011115614b7c57600080fd5b6020830194508093505050509295509295509295565b600081518084526020808501945080840160005b83811015614bc857815163ffffffff1687529582019590820190600101614ba6565b509495945050505050565b600060208083528351608082850152614bef60a0850182614b92565b905081850151601f1980868403016040870152614c0c8383614b92565b92506040870151915080868403016060870152614c298383614b92565b60608801518782038301608089015280518083529194508501925084840190600581901b8501860160005b82811015614c805784878303018452614c6e828751614b92565b95880195938801939150600101614c54565b509998505050505050505050565b60ff811681146106a757600080fd5b600060208284031215614caf57600080fd5b8135613f0681614c8e565b600060808284031215614ccc57600080fd5b50919050565b600060408284031215614ccc57600080fd5b60006001600160401b03821115614cfd57614cfd6146f7565b5060051b60200190565b600082601f830112614d1857600080fd5b81356020614d2d614d2883614ce4565b614758565b82815260059290921b84018101918181019086841115614d4c57600080fd5b8286015b84811015614d70578035614d63816148ad565b8352918301918301614d50565b509695505050505050565b600082601f830112614d8c57600080fd5b81356020614d9c614d2883614ce4565b82815260069290921b84018101918181019086841115614dbb57600080fd5b8286015b84811015614d7057614dd18882614788565b835291830191604001614dbf565b600082601f830112614df057600080fd5b81356020614e00614d2883614ce4565b82815260059290921b84018101918181019086841115614e1f57600080fd5b8286015b84811015614d705780356001600160401b03811115614e425760008081fd5b614e508986838b0101614d07565b845250918301918301614e23565b60006101808284031215614e7157600080fd5b614e79614735565b905081356001600160401b0380821115614e9257600080fd5b614e9e85838601614d07565b83526020840135915080821115614eb457600080fd5b614ec085838601614d7b565b60208401526040840135915080821115614ed957600080fd5b614ee585838601614d7b565b6040840152614ef7856060860161481c565b6060840152614f098560e08601614788565b6080840152610120840135915080821115614f2357600080fd5b614f2f85838601614d07565b60a0840152610140840135915080821115614f4957600080fd5b614f5585838601614d07565b60c0840152610160840135915080821115614f6f57600080fd5b50614f7c84828501614ddf565b60e08301525092915050565b600080600060808486031215614f9d57600080fd5b83356001600160401b0380821115614fb457600080fd5b614fc087838801614cba565b9450614fcf8760208801614cd2565b93506060860135915080821115614fe557600080fd5b50614ff286828701614e5e565b9150509250925092565b60008060006060848603121561501157600080fd5b833561501c816146ac565b92506020848101356001600160401b0381111561503857600080fd5b8501601f8101871361504957600080fd5b8035615057614d2882614ce4565b81815260059190911b8201830190838101908983111561507657600080fd5b928401925b828410156150945783358252928401929084019061507b565b8096505050505050614995604085016148bf565b6020808252825182820181905260009190848201906040850190845b818110156150e0578351835292840192918401916001016150c4565b50909695505050505050565b60008060008060c0858703121561510257600080fd5b84356001600160401b038082111561511957600080fd5b61512588838901614cba565b95506151348860208901614cd2565b94506151438860608901614cd2565b935060a087013591508082111561515957600080fd5b5061516687828801614d7b565b91505092959194509250565b6000806000806060858703121561518857600080fd5b84359350602085013561519a816148ad565b925060408501356001600160401b038111156151b557600080fd5b6151c187828801614a87565b95989497509550505050565b6000806000806000608086880312156151e557600080fd5b8535945060208601356001600160401b038082111561520357600080fd5b61520f89838a01614a87565b909650945060408801359150615224826148ad565b9092506060870135908082111561523a57600080fd5b5061524788828901614e5e565b9150509295509295909350565b600081518084526020808501945080840160005b83811015614bc85781516001600160601b031687529582019590820190600101615268565b60408152600083516040808401526152a86080840182615254565b90506020850151603f198483030160608501526152c58282615254565b925050508260208301529392505050565b6000806000606084860312156152eb57600080fd5b83356152f6816146ac565b925060208401359150604084013561530d816148ad565b809150509250925092565b828152604060208201526000615331604083018461499e565b949350505050565b6000806000806080858703121561534f57600080fd5b843561535a816146ac565b9350602085013561536a816146ac565b9250604085013561537a816146ac565b9150606085013561538a816146ac565b939692955090935050565b6000602082840312156153a757600080fd5b8151613f06816146ac565b6020808252602a908201527f6d73672e73656e646572206973206e6f74207065726d697373696f6e6564206160408201526939903ab73830bab9b2b960b11b606082015260800190565b60006020828403121561540e57600080fd5b8151613f0681614a5c565b60208082526028908201527f6d73672e73656e646572206973206e6f74207065726d697373696f6e6564206160408201526739903830bab9b2b960c11b606082015260800190565b634e487b7160e01b600052603260045260246000fd5b60008261549457634e487b7160e01b600052601260045260246000fd5b500690565b600060208083850312156154ac57600080fd5b82516001600160401b038111156154c257600080fd5b8301601f810185136154d357600080fd5b80516154e1614d2882614ce4565b81815260059190911b8201830190838101908783111561550057600080fd5b928401925b8284101561551e57835182529284019290840190615505565b979650505050505050565b60006020828403121561553b57600080fd5b81516001600160601b0381168114613f0657600080fd5b634e487b7160e01b600052601160045260246000fd5b600060001982141561557c5761557c615552565b5060010190565b63ffffffff84168152604060208201819052810182905260006001600160fb1b038311156155b057600080fd5b8260051b8085606085013760009201606001918252509392505050565b600060208083850312156155e057600080fd5b82516001600160401b038111156155f657600080fd5b8301601f8101851361560757600080fd5b8051615615614d2882614ce4565b81815260059190911b8201830190838101908783111561563457600080fd5b928401925b8284101561551e57835161564c816148ad565b82529284019290840190615639565b81835281816020850137506000828201602090810191909152601f909101601f19169091010190565b63ffffffff841681526040602082015260006156a460408301848661565b565b95945050505050565b6000602082840312156156bf57600080fd5b81516001600160c01b0381168114613f0657600080fd5b6000602082840312156156e857600080fd5b8151613f06816148ad565b600060ff821660ff81141561570a5761570a615552565b60010192915050565b60408152600061572760408301858761565b565b905063ffffffff83166020830152949350505050565b6000808335601e1984360301811261575457600080fd5b8301803591506001600160401b0382111561576e57600080fd5b602001915036819003821315614ac857600080fd5b60208152813560208201526000602083013561579e816148ad565b63ffffffff81166040840152506040830135601e198436030181126157c257600080fd5b830180356001600160401b038111156157da57600080fd5b8036038513156157e957600080fd5b6080606085015261580160a08501826020850161565b565b915050615810606085016148bf565b63ffffffff81166080850152509392505050565b600063ffffffff80831681851680830382111561584357615843615552565b01949350505050565b8035615857816148ad565b63ffffffff168252602090810135910152565b60408101613f09828461584c565b60006001600160601b038083168185168183048111821515161561589e5761589e615552565b02949350505050565b60008160001904831182151516156158c1576158c1615552565b500290565b608081016158d4828561584c565b63ffffffff8351166040830152602083015160608301529392505050565b60006040820163ffffffff851683526020604081850152818551808452606086019150828701935060005b818110156159395784518352938301939183019160010161591d565b5090979650505050505050565b60808101615954828561584c565b823561595f816148ad565b63ffffffff16604083015260209290920135606090910152919050565b63ffffffff60e01b8360e01b1681526000600482018351602080860160005b838110156159b75781518552938201939082019060010161599b565b5092979650505050505050565b6000602080835283518184015263ffffffff8185015116604084015260408401516080606085015280518060a086015260005b81811015615a135782810184015186820160c0015283016159f7565b81811115615a2557600060c083880101525b50606086015163ffffffff811660808701529250601f01601f19169390930160c001949350505050565b600060208284031215615a6157600080fd5b8151613f0681614c8e565b600082821015615a7e57615a7e615552565b500390565b600060208284031215615a9557600080fd5b5051919050565b60008219821115615aaf57615aaf615552565b500190565b600060208284031215615ac657600080fd5b815167ffffffffffffffff1981168114613f0657600080fd5b60006001600160601b0383811690831681811015615aff57615aff615552565b039392505050565b600061ffff80831681811415615b1f57615b1f615552565b600101939250505056fe30644e72e131a029b85045b68181585d97816a916871ca8d3c208c16d87cfd47424c535369676e6174757265436865636b65722e636865636b5369676e617475a26469706673582212200c1be009b78e73a1f66513fd6c9b4e564d960dd373df0c75e994e8f99332b04f64736f6c634300080c0033","linkReferences":{}},"methodIdentifiers":{"TASK_CHALLENGE_WINDOW_BLOCK()":"f63c5bab","TASK_RESPONSE_WINDOW_BLOCK()":"1ad43189","aggregator()":"245a7bfc","allTaskHashes(uint32)":"2d89f6fc","allTaskResponses(uint32)":"2cb223d5","blsApkRegistry()":"5df45946","checkSignatures(bytes32,bytes,uint32,(uint32[],(uint256,uint256)[],(uint256,uint256)[],(uint256[2],uint256[2]),(uint256,uint256),uint32[],uint32[],uint32[][]))":"6efb4636","createNewTask(uint256,uint32,bytes)":"6b92787e","delegation()":"df5cf723","generator()":"7afa1eed","getCheckSignaturesIndices(address,uint32,bytes,bytes32[])":"4f739f74","getOperatorState(address,bytes,uint32)":"3563b0d1","getOperatorState(address,bytes32,uint32)":"cefdc1d4","getQuorumBitmapsAtBlockNumber(address,bytes32[],uint32)":"5c155662","getTaskResponseWindowBlock()":"f5c9899d","initialize(address,address,address,address)":"f8c8765e","latestTaskNum()":"8b00ce7c","owner()":"8da5cb5b","pause(uint256)":"136439dd","pauseAll()":"595c6a67","paused()":"5c975abb","paused(uint8)":"5ac86ab7","pauserRegistry()":"886f1195","raiseAndResolveChallenge((uint256,uint32,bytes,uint32),(uint32,uint256),(uint32,bytes32),(uint256,uint256)[])":"6b532e9e","registryCoordinator()":"6d14a987","renounceOwnership()":"715018a6","respondToTask((uint256,uint32,bytes,uint32),(uint32,uint256),(uint32[],(uint256,uint256)[],(uint256,uint256)[],(uint256[2],uint256[2]),(uint256,uint256),uint32[],uint32[],uint32[][]))":"5baec9a0","setPauserRegistry(address)":"10d67a2f","setStaleStakesForbidden(bool)":"416c7e5e","stakeRegistry()":"68304835","staleStakesForbidden()":"b98d0908","taskNumber()":"72d18e8d","taskSuccesfullyChallenged(uint32)":"5decc3f5","transferOwnership(address)":"f2fde38b","trySignatureAndApkVerification(bytes32,(uint256,uint256),(uint256[2],uint256[2]),(uint256,uint256))":"171f1d5b","unpause(uint256)":"fabc1cbc"},"id":111}